{"contracts/src/SplitMe.sol":{"SplitMe":{"abi":[{"inputs":[{"internalType":"address","name":"initialOwner","type":"address"},{"internalType":"address","name":"_usdcToken","type":"address"}],"stateMutability":"nonpayable","type":"constructor"},{"inputs":[],"name":"EnforcedPause","type":"error"},{"inputs":[],"name":"ExpectedPause","type":"error"},{"inputs":[{"internalType":"address","name":"owner","type":"address"}],"name":"OwnableInvalidOwner","type":"error"},{"inputs":[{"internalType":"address","name":"account","type":"address"}],"name":"OwnableUnauthorizedAccount","type":"error"},{"inputs":[],"name":"ReentrancyGuardReentrantCall","type":"error"},{"inputs":[{"internalType":"address","name":"token","type":"address"}],"name":"SafeERC20FailedOperation","type":"error"},{"anonymous":false,"inputs":[{"indexed":true,"internalType":"uint256","name":"groupId","type":"uint256"},{"indexed":false,"internalType":"address","name":"user","type":"address"},{"indexed":false,"internalType":"int256","name":"newBalance","type":"int256"}],"name":"BalanceUpdated","type":"event"},{"anonymous":false,"inputs":[{"indexed":true,"internalType":"uint256","name":"expenseId","type":"uint256"},{"indexed":true,"internalType":"uint256","name":"groupId","type":"uint256"},{"indexed":false,"internalType":"string","name":"description","type":"string"},{"indexed":false,"internalType":"uint256","name":"amount","type":"uint256"},{"indexed":false,"internalType":"address","name":"paidBy","type":"address"}],"name":"ExpenseCreated","type":"event"},{"anonymous":false,"inputs":[{"indexed":true,"internalType":"uint256","name":"expenseId","type":"uint256"},{"indexed":false,"internalType":"address","name":"settler","type":"address"},{"indexed":false,"internalType":"uint256","name":"amount","type":"uint256"}],"name":"ExpenseSettled","type":"event"},{"anonymous":false,"inputs":[{"indexed":true,"internalType":"uint256","name":"groupId","type":"uint256"},{"indexed":false,"internalType":"uint256","name":"amount","type":"uint256"}],"name":"GroupAmountUpdated","type":"event"},{"anonymous":false,"inputs":[{"indexed":true,"internalType":"uint256","name":"groupId","type":"uint256"},{"indexed":false,"internalType":"string","name":"category","type":"string"}],"name":"GroupCategoryUpdated","type":"event"},{"anonymous":false,"inputs":[{"indexed":true,"internalType":"uint256","name":"groupId","type":"uint256"},{"indexed":false,"internalType":"string","name":"name","type":"string"},{"indexed":false,"internalType":"address","name":"creator","type":"address"}],"name":"GroupCreated","type":"event"},{"anonymous":false,"inputs":[{"indexed":true,"internalType":"uint256","name":"groupId","type":"uint256"},{"indexed":false,"internalType":"address","name":"member","type":"address"}],"name":"MemberAdded","type":"event"},{"anonymous":false,"inputs":[{"indexed":true,"internalType":"address","name":"previousOwner","type":"address"},{"indexed":true,"internalType":"address","name":"newOwner","type":"address"}],"name":"OwnershipTransferred","type":"event"},{"anonymous":false,"inputs":[{"indexed":false,"internalType":"address","name":"account","type":"address"}],"name":"Paused","type":"event"},{"anonymous":false,"inputs":[{"indexed":true,"internalType":"uint256","name":"settlementId","type":"uint256"},{"indexed":false,"internalType":"address","name":"from","type":"address"},{"indexed":false,"internalType":"address","name":"to","type":"address"},{"indexed":false,"internalType":"uint256","name":"amount","type":"uint256"}],"name":"SettlementProcessed","type":"event"},{"anonymous":false,"inputs":[{"indexed":false,"internalType":"address","name":"account","type":"address"}],"name":"Unpaused","type":"event"},{"inputs":[{"internalType":"uint256","name":"groupId","type":"uint256"},{"internalType":"address","name":"member","type":"address"},{"internalType":"string","name":"memberName","type":"string"}],"name":"addMember","outputs":[],"stateMutability":"nonpayable","type":"function"},{"inputs":[{"internalType":"uint256","name":"groupId","type":"uint256"},{"internalType":"string","name":"description","type":"string"},{"internalType":"uint256","name":"amount","type":"uint256"},{"internalType":"address[]","name":"participants","type":"address[]"}],"name":"createExpense","outputs":[{"internalType":"uint256","name":"","type":"uint256"}],"stateMutability":"nonpayable","type":"function"},{"inputs":[{"internalType":"string","name":"name","type":"string"},{"internalType":"string","name":"category","type":"string"},{"internalType":"uint256","name":"amount","type":"uint256"},{"internalType":"string","name":"creatorName","type":"string"}],"name":"createGroup","outputs":[{"internalType":"uint256","name":"","type":"uint256"}],"stateMutability":"nonpayable","type":"function"},{"inputs":[],"name":"expenseCounter","outputs":[{"internalType":"uint256","name":"","type":"uint256"}],"stateMutability":"view","type":"function"},{"inputs":[{"internalType":"uint256","name":"","type":"uint256"}],"name":"expenses","outputs":[{"internalType":"uint256","name":"id","type":"uint256"},{"internalType":"uint256","name":"groupId","type":"uint256"},{"internalType":"string","name":"description","type":"string"},{"internalType":"uint256","name":"amount","type":"uint256"},{"internalType":"address","name":"paidBy","type":"address"},{"internalType":"bool","name":"isActive","type":"bool"},{"internalType":"uint256","name":"createdAt","type":"uint256"}],"stateMutability":"view","type":"function"},{"inputs":[{"internalType":"uint256","name":"expenseId","type":"uint256"}],"name":"getExpense","outputs":[{"internalType":"uint256","name":"id","type":"uint256"},{"internalType":"uint256","name":"groupId","type":"uint256"},{"internalType":"string","name":"description","type":"string"},{"internalType":"uint256","name":"amount","type":"uint256"},{"internalType":"address","name":"paidBy","type":"address"},{"internalType":"address[]","name":"participants","type":"address[]"},{"internalType":"bool","name":"isActive","type":"bool"},{"internalType":"uint256","name":"createdAt","type":"uint256"}],"stateMutability":"view","type":"function"},{"inputs":[{"internalType":"uint256","name":"groupId","type":"uint256"}],"name":"getGroup","outputs":[{"internalType":"uint256","name":"id","type":"uint256"},{"internalType":"string","name":"name","type":"string"},{"internalType":"address","name":"creator","type":"address"},{"internalType":"address[]","name":"members","type":"address[]"},{"internalType":"bool","name":"isActive","type":"bool"},{"internalType":"uint256","name":"createdAt","type":"uint256"},{"internalType":"string","name":"category","type":"string"},{"internalType":"uint256","name":"totalAmount","type":"uint256"}],"stateMutability":"view","type":"function"},{"inputs":[{"internalType":"uint256","name":"groupId","type":"uint256"}],"name":"getGroupBalances","outputs":[{"internalType":"address[]","name":"members","type":"address[]"},{"internalType":"int256[]","name":"balances","type":"int256[]"}],"stateMutability":"view","type":"function"},{"inputs":[{"internalType":"uint256","name":"groupId","type":"uint256"},{"internalType":"address","name":"member","type":"address"}],"name":"getMemberName","outputs":[{"internalType":"string","name":"","type":"string"}],"stateMutability":"view","type":"function"},{"inputs":[{"internalType":"address","name":"user","type":"address"},{"internalType":"uint256","name":"groupId","type":"uint256"}],"name":"getUserBalance","outputs":[{"internalType":"int256","name":"","type":"int256"}],"stateMutability":"view","type":"function"},{"inputs":[{"internalType":"address","name":"user","type":"address"}],"name":"getUserGroups","outputs":[{"internalType":"uint256[]","name":"","type":"uint256[]"}],"stateMutability":"view","type":"function"},{"inputs":[],"name":"groupCounter","outputs":[{"internalType":"uint256","name":"","type":"uint256"}],"stateMutability":"view","type":"function"},{"inputs":[{"internalType":"uint256","name":"","type":"uint256"},{"internalType":"address","name":"","type":"address"}],"name":"groupMembership","outputs":[{"internalType":"bool","name":"","type":"bool"}],"stateMutability":"view","type":"function"},{"inputs":[{"internalType":"uint256","name":"","type":"uint256"}],"name":"groups","outputs":[{"internalType":"uint256","name":"id","type":"uint256"},{"internalType":"string","name":"name","type":"string"},{"internalType":"address","name":"creator","type":"address"},{"internalType":"bool","name":"isActive","type":"bool"},{"internalType":"uint256","name":"createdAt","type":"uint256"},{"internalType":"string","name":"category","type":"string"},{"internalType":"uint256","name":"totalAmount","type":"uint256"}],"stateMutability":"view","type":"function"},{"inputs":[],"name":"owner","outputs":[{"internalType":"address","name":"","type":"address"}],"stateMutability":"view","type":"function"},{"inputs":[],"name":"pause","outputs":[],"stateMutability":"nonpayable","type":"function"},{"inputs":[],"name":"paused","outputs":[{"internalType":"bool","name":"","type":"bool"}],"stateMutability":"view","type":"function"},{"inputs":[],"name":"renounceOwnership","outputs":[],"stateMutability":"nonpayable","type":"function"},{"inputs":[{"internalType":"uint256","name":"groupId","type":"uint256"}],"name":"settleAllDebts","outputs":[],"stateMutability":"nonpayable","type":"function"},{"inputs":[{"internalType":"uint256","name":"expenseId","type":"uint256"},{"internalType":"uint256","name":"amount","type":"uint256"}],"name":"settleExpense","outputs":[],"stateMutability":"nonpayable","type":"function"},{"inputs":[],"name":"settlementCounter","outputs":[{"internalType":"uint256","name":"","type":"uint256"}],"stateMutability":"view","type":"function"},{"inputs":[{"internalType":"uint256","name":"","type":"uint256"}],"name":"settlements","outputs":[{"internalType":"uint256","name":"id","type":"uint256"},{"internalType":"uint256","name":"groupId","type":"uint256"},{"internalType":"address","name":"from","type":"address"},{"internalType":"address","name":"to","type":"address"},{"internalType":"uint256","name":"amount","type":"uint256"},{"internalType":"uint256","name":"timestamp","type":"uint256"},{"internalType":"bytes32","name":"expenseReference","type":"bytes32"}],"stateMutability":"view","type":"function"},{"inputs":[{"internalType":"address","name":"newOwner","type":"address"}],"name":"transferOwnership","outputs":[],"stateMutability":"nonpayable","type":"function"},{"inputs":[],"name":"unpause","outputs":[],"stateMutability":"nonpayable","type":"function"},{"inputs":[{"internalType":"uint256","name":"groupId","type":"uint256"},{"internalType":"uint256","name":"newAmount","type":"uint256"}],"name":"updateGroupAmount","outputs":[],"stateMutability":"nonpayable","type":"function"},{"inputs":[{"internalType":"uint256","name":"groupId","type":"uint256"},{"internalType":"string","name":"newCategory","type":"string"}],"name":"updateGroupCategory","outputs":[],"stateMutability":"nonpayable","type":"function"},{"inputs":[{"internalType":"address","name":"newToken","type":"address"}],"name":"updateUSDCToken","outputs":[],"stateMutability":"nonpayable","type":"function"},{"inputs":[],"name":"usdcToken","outputs":[{"internalType":"contract IERC20","name":"","type":"address"}],"stateMutability":"view","type":"function"},{"inputs":[{"internalType":"address","name":"","type":"address"},{"internalType":"uint256","name":"","type":"uint256"}],"name":"userBalances","outputs":[{"internalType":"int256","name":"","type":"int256"}],"stateMutability":"view","type":"function"},{"inputs":[{"internalType":"address","name":"","type":"address"},{"internalType":"uint256","name":"","type":"uint256"}],"name":"userGroups","outputs":[{"internalType":"uint256","name":"","type":"uint256"}],"stateMutability":"view","type":"function"},{"inputs":[],"name":"withdraw","outputs":[],"stateMutability":"nonpayable","type":"function"},{"inputs":[{"internalType":"address","name":"","type":"address"}],"name":"withdrawableBalances","outputs":[{"internalType":"uint256","name":"","type":"uint256"}],"stateMutability":"view","type":"function"}],"evm":{"bytecode":{"linkReferences":{},"object":"608034620000f857601f62002cb238819003918201601f19168301916001600160401b03831184841017620000fd578084926040948552833981010312620000f8576200005a6020620000528362000113565b920162000113565b60016000556001600160a01b03908282168015620000df5760018054610100600160a81b03198116600896871b610100600160a81b031617909155604051941c83167f8be0079c531659141344cd1fd0a4f28419497f9722a3daafe3b4186f6b6457e0600080a31660018060a01b03196002541617600255612b899081620001298239f35b604051631e4fbdf760e01b815260006004820152602490fd5b600080fd5b634e487b7160e01b600052604160045260246000fd5b51906001600160a01b0382168203620000f85756fe608080604052600436101561001357600080fd5b60003560e01c90816308df7dc8146123895750806311eac855146123605780631f998d60146120275780632b576f4e14611fed5780633ccfd60b14611f195780633da04e4a14611e655780633f4ba83a14611dfb5780635c975abb14611dd857806360a9e09714611d80578063715018a614611d1f5780637250dc3614611c97578063735e5db614611be657806373bbe9ff1461177b578063805351a4146116f65780638456cb591461169d57806384b971a51461167f5780638da5cb5b1461165257806391a9648a1461028657806396324bd4146115ad578063a6a5e2c514610f62578063ae59dfd314610d18578063af4afe0a14610c86578063b1411d4814610b36578063c065781214610991578063cae75515146104b4578063ceb60654146103f0578063d24924fe146103d2578063ddcad2ae146103b4578063efb37d1b14610367578063f2fde38b146102ce578063fa3bdc46146102865763ff7b9de51461017f57600080fd5b346102815761018d36612502565b81151580610275575b61019f9061271d565b8160005260066020526101bc60ff6004604060002001541661275c565b6101c46126ff565b6000828152600660205260409020600201546001600160a01b031633036102245760207fdb805fda9ed99f7b4130f56cc360ffde29fa848cfca4ce4ccb3548a4a93061ce91836000526006825280600760406000200155604051908152a2005b60405162461bcd60e51b8152602060048201526024808201527f4f6e6c792067726f75702063726561746f722063616e2075706461746520616d6044820152631bdd5b9d60e21b6064820152608490fd5b50600354821115610196565b600080fd5b34610281576040366003190112610281576001600160a01b036102a7612414565b16600052600a60205260406000206024356000526020526020604060002054604051908152f35b34610281576020366003190112610281576102e7612414565b6102ef612619565b6001600160a01b0381811691821561034e5760018054610100600160a81b03198116600893841b610100600160a81b031617909155901c167f8be0079c531659141344cd1fd0a4f28419497f9722a3daafe3b4186f6b6457e0600080a3005b604051631e4fbdf760e01b815260006004820152602490fd5b34610281576040366003190112610281576103806123fe565b600435600052600c60205260406000209060018060a01b0316600052602052602060ff604060002054166040519015158152f35b34610281576000366003190112610281576020600454604051908152f35b34610281576000366003190112610281576020600354604051908152f35b346102815760203660031901126102815760043560005260066020526040600020805460018060a01b03600283015416916104aa60ff60048301541660058301549260078101549361049061044760018401612573565b9761046060066104596003870161296f565b9501612573565b9361047d6040519a8b9a8b526101008060208d01528b0190612485565b9160408a015288820360608a01526124c5565b921515608087015260a086015284820360c0860152612485565b9060e08301520390f35b34610281576080366003190112610281576004356001600160401b038111610281576104e490369060040161242a565b906024356001600160401b0381116102815761050490369060040161242a565b6064939193356001600160401b0381116102815761052690369060040161242a565b90946105306126ff565b831561094c57610541600354612648565b908160035581600052600660205260406000209182556001600160401b0385116107dd576105726001830154612518565b601f8111610917575b50846000601f82116001146108a95760009161089e575b508560011b906000198760031b1c19161760018301555b60028201336001600160601b0360a01b8254161790556105cc336003840161266e565b600482019360ff19946001868254161790554260058401556001600160401b0381116107dd5760068301916106018354612518565b601f811161086c575b50600090601f83116001146107fe57600894939291600091836107f3575b50508160011b916000199060031b1c19161790555b604435600782015533600052016020526040600020906001600160401b0381116107dd578060209661066f8454612518565b601f81116107a2575b50600090601f83116001146107395760009261072e575b50508160011b916000199060031b1c19161790555b33600052600984526106bd6040600020600354906126a9565b600354600052600c8452604060002033600052845260016040600020918254161790557f18c62fe73d1b8ec45d443cf56b0c4966349cbb70ab036ba3ebfb065932ad17b060035492839261071e6040519283926040845260408401916126de565b33878301520390a2604051908152f35b01359050878061068f565b909150601f1983169184600052886000209260005b81811061078b5750908460019594939210610771575b505050811b0190556106a4565b0135600019600384901b60f8161c19169055878080610764565b91938a60018192878701358155019501920161074e565b6107cd908560005289600020601f850160051c8101918b86106107d3575b601f0160051c0190612657565b88610678565b90915081906107c0565b634e487b7160e01b600052604160045260246000fd5b013590508a80610628565b8360005260206000209160005b601f198516811061085457509183916001936008979695601f1981161061083a575b505050811b01905561063d565b0135600019600384901b60f8161c191690558a808061082d565b9092602060018192868601358155019401910161080b565b61089890846000526020600020601f850160051c810191602086106107d357601f0160051c0190612657565b8961060a565b905086013588610592565b90506001830160005260206000209060005b601f19881681106108ff575086601f198116106108e5575b5050600185811b0160018301556105a9565b870135600019600388901b60f8161c1916905587806108d3565b9091602060018192858c0135815501930191016108bb565b61094690600184016000526020600020601f880160051c810191602089106107d357601f0160051c0190612657565b8761057b565b60405162461bcd60e51b815260206004820152601a60248201527f47726f7570206e616d652063616e6e6f7420626520656d7074790000000000006044820152606490fd5b3461028157602080600319360112610281576004359081151580610b2a575b6109b99061271d565b81600052600681526109d560ff6004604060002001541661275c565b81600052600c815260406000203360005281526109f960ff6040600020541661279e565b610a0161294c565b610a096126ff565b33600052600a815260406000208260005281526040600020546000811215610af057600160ff1b8114610ada57806000039015610a9f57600080516020612b3483398151915291610a8c82610a6e60409460018060a01b0360025416309033906128a2565b33600052600a835283600020866000528352600084812055856129f2565b6000825191338352820152a26001600055005b60405162461bcd60e51b8152600481018390526013602482015272139bc81bdd5d1cdd185b991a5b99c81919589d606a1b6044820152606490fd5b634e487b7160e01b600052601160045260246000fd5b60405162461bcd60e51b81526004810183905260126024820152714e6f20646562747320746f20736574746c6560701b6044820152606490fd5b506003548211156109b0565b3461028157602080600319360112610281576004358060005260068252600380604060002001928354610b68816129c7565b93610b766040519586612552565b818552601f199384610b87846129c7565b013685880137610b96836129c7565b96610ba46040519889612552565b838852610bb0846129c7565b888601960136873760005b848110610c1757610bde8888888c816040519586956040875260408701906124c5565b9185830382870152519182815201929160005b828110610c0057505050500390f35b835185528695509381019392810192600101610bf1565b80610c29610c7d92849b999a9b612457565b90546001600160a01b0391861b1c8116610c43838d6129de565b52610c4e8285612457565b905490861b1c16600052600a87526040600020856000528752604060002054610c77828a6129de565b52612648565b97969597610bbb565b3461028157602036600319011261028157600435600052600760205260406000208054600182015491610cbb60028201612573565b60038201549160018060a01b03600482015416610cfd600860ff600785015416930154936040519788978852602088015260e0604088015260e0870190612485565b9360608601526080850152151560a084015260c08301520390f35b34610281576040366003190112610281576004356001600160401b0360243581811161028157610d4c90369060040161242a565b919083151580610f56575b610d609061271d565b8360005260209160068352610d7f60ff6004604060002001541661275c565b610d876126ff565b60008581526006845260409020600201546001600160a01b03163303610f0257846000526006835260066040600020019084116107dd57610dc88154612518565b601f8111610ed2575b506000601f8511600114610e465791610e3691857fcf14d138b385737a7a7561d6246253f0e6ad83997354974f612d58eae957ff1c969594600091610e3b575b508560011b906000198760031b1c19161790555b6040519383859485528401916126de565b0390a2005b905082013588610e11565b601f1985169082600052846000209160005b818110610ebb575091610e369391877fcf14d138b385737a7a7561d6246253f0e6ad83997354974f612d58eae957ff1c9897969410610ea1575b5050600185811b019055610e25565b830135600019600388901b60f8161c191690558780610e92565b919286600181928689013581550194019201610e58565b610efc908260005284600020601f870160051c8101918688106107d357601f0160051c0190612657565b85610dd1565b60405162461bcd60e51b815260048101849052602660248201527f4f6e6c792067726f75702063726561746f722063616e207570646174652063616044820152657465676f727960d01b6064820152608490fd5b50600354841115610d57565b34610281576080366003190112610281576001600160401b0360243581811161028157610f9390369060040161242a565b6064928335908082116102815736602383011215610281578082600401351161028157366024836004013560051b840101116102815760043515158061159f575b610fdd9061271d565b600435600052600660205260ff94610ffe866004604060002001541661275c565b600435600052600c80602052604060002033600052602052611026876040600020541661279e565b61102e6126ff565b841561155c57604496611043883515156127df565b8460040135156115205760043560005260066020526003604060002001548560040135116114e55760005b856004013581106114545750505050611088600454612648565b90816004558160005260076020526040600020918255600435600183015583116107dd576110b96002820154612518565b601f811161141f575b50826000601f82116001146113b1576000916113a6575b508360011b906000198560031b1c19161760028201555b8435600382015560048101336001600160601b0360a01b82541617905560058101600160401b8360040135116107dd57805460048401358083558111611384575b50602483019060005260206000209060005b846004013581106113695750505060078101600160ff198254161790556008429101556111758160040135853561284f565b6111848260040135863561286f565b9133600052600a602052604060002060043560005260205260406000206111ad87358254612879565b905560005b816004013581106112555760206111fe88887f7b0ca01b30804959458f2b66d8c41c1f282377133d5816d4958e9d381ca48cb889600454948593604051926060845260608401916126de565b93358682015233604082015280600435940390a3336000818152600a845260408082206004358084529086529181902054815193845260208401529091600080516020612b348339815191529190a2604051908152f35b8290848110611353575b6001600160a01b0361128161127c8360048701356024880161282b565b61283b565b16600052600a60205260406000206004356000526020526040600020805492600081128482810312811690858381031390151617610ada5761134e930390556112d561127c8285600401356024870161282b565b6001600160a01b036112f261127c8460048801356024890161282b565b16600052600a6020526040600020600435600052602052600080516020612b34833981519152611346604060002054604051918291600435958360209093929193604081019460018060a01b031681520152565b0390a2612648565b6111b2565b9050600183018311610ada57600183019061125f565b60019060206113778461283b565b9301928185015501611143565b6113a09082600052602060002090810190856004013501612657565b86611131565b9050840135866110d9565b90506002820160005260206000209060005b601f1986168110611407575084601f198116106113ed575b5050600183811b0160028201556110f0565b850135600019600386901b60f8161c1916905585806113db565b9091602060018192858a0135815501930191016113c3565b61144e90600283016000526020600020601f860160051c810191602087106107d357601f0160051c0190612657565b856110c2565b61146961127c82886004013560248a0161282b565b6004356000528360205260406000209060018060a01b03166000526020528160406000205416156114a25761149d90612648565b61106e565b60405162461bcd60e51b815260206004820152601860248201527f5061727469636970616e74206e6f7420696e2067726f75700000000000000000818b01528490fd5b60405162461bcd60e51b8152602060048201526015602482015274546f6f206d616e79207061727469636970616e747360581b818a01528390fd5b60405162461bcd60e51b81526020600482015260166024820152754d7573742068617665207061727469636970616e747360501b818a01528390fd5b5060405162461bcd60e51b815260206004820152601b60248201527f4465736372697074696f6e2063616e6e6f7420626520656d70747900000000006044820152fd5b506003546004351115610fd4565b34610281576020366003190112610281576004356000526006602052604060002080546115dc60018301612573565b9161164860018060a01b0360028301541660ff600484015416926005810154600761160960068401612573565b92015494611629604051988998895260e060208a015260e0890190612485565b93604088015215156060870152608086015284820360a0860152612485565b9060c08301520390f35b346102815760003660031901126102815760015460405160089190911c6001600160a01b03168152602090f35b34610281576000366003190112610281576020600554604051908152f35b34610281576000366003190112610281576116b6612619565b6116be6126ff565b600160ff19815416176001557f62e78cea01bee320cd4e420270b5ea74000d11b0c9f74754ebdbfc544b05a2586020604051338152a1005b346102815760203660031901126102815761170f612414565b611717612619565b6001600160a01b0316801561173e576001600160601b0360a01b6002541617600255600080f35b60405162461bcd60e51b8152602060048201526015602482015274496e76616c696420746f6b656e206164647265737360581b6044820152606490fd5b346102815761178936612502565b9061179261294c565b61179a6126ff565b80151580611bda575b15611ba0576117b38215156127df565b806000526007602052604060002060ff60078201541615611b66576006810191336000528260205260ff60406000205416611b2f5760018201549384600052600c60205260406000203360005260205261181460ff6040600020541661279e565b600383015493600584019485549561183687611830818561284f565b9361286f565b60005b88811080611b26575b15611b18576118518184612457565b905460039190911b1c6001600160a01b031633146118775761187290612648565b611839565b50505090919293945060018101809111610ada575b8210611ad3576002546118ad908390309033906001600160a01b03166128a2565b336000526020526040600020600160ff19825416179055600a60205260406000208460005260205260406000206118e5828254612879565b905560018060a01b03600484015416600052600b602052604060002061190c828254612895565b9055611919600554612648565b918260055560018060a01b036004850154166040519060208201838152602083526001600160401b0390836040810110826040860111176107dd576040840160405283519020906040840161012085011090610120850111176107dd5761012083016040908152808401878152606085018a8152336080870181815260a0880196875260c088018a81524260e08a0190815261010090990196875260009b8c52600860209081529b8690209451855592516001850155516002840180546001600160a01b03199081166001600160a01b0393841617909155965160038501805490981691161790955551600482015593516005850155905160069093019290925581519081529384018390527faf85b528f86f95883c3d86eef185680424986ed79e7bb3b7362e5d88a247a271937fbc779eacfe67dde2ce8cca0c2dcc5fa918c50cde558c1325a0324c4238b4dd559190a260055460049390930154604080513381526001600160a01b039092166020830152810191909152606090a2336000818152600a6020908152604080832085845282529182902054825193845290830152600080516020612b3483398151915291a26001600055005b60405162461bcd60e51b815260206004820152601e60248201527f496e73756666696369656e7420736574746c656d656e7420616d6f756e7400006044820152606490fd5b50505090919293945061188c565b50818110611842565b60405162461bcd60e51b815260206004820152600f60248201526e105b1c9958591e481cd95d1d1b1959608a1b6044820152606490fd5b60405162461bcd60e51b8152602060048201526012602482015271457870656e7365206e6f742061637469766560701b6044820152606490fd5b60405162461bcd60e51b8152602060048201526012602482015271125b9d985b1a5908195e1c195b9cd948125160721b6044820152606490fd5b506004548111156117a3565b34610281576020366003190112610281576004356000526007602052604060002080546001820154916003810154611c8660018060a01b036004840154169160ff60078501541693600881015493611c6e611c4f6005611c4860028601612573565b940161296f565b92604051998a998a5260208a01526101008060408b0152890190612485565b926060880152608087015285820360a08701526124c5565b91151560c084015260e08301520390f35b3461028157604036600319011261028157600435611cb36123fe565b81600052602091600c835260406000209160018060a01b031691826000528352611ce460ff6040600020541661279e565b600052600682526008604060002001906000528152611d066040600020612573565b90611d1b604051928284938452830190612485565b0390f35b3461028157600036600319011261028157611d38612619565b60018054610100600160a81b0319811690915560009060081c6001600160a01b03167f8be0079c531659141344cd1fd0a4f28419497f9722a3daafe3b4186f6b6457e08280a3005b3461028157604036600319011261028157611d99612414565b6001600160a01b031660009081526009602052604090208054602435919082101561028157602091611dca91612457565b90546040519160031b1c8152f35b3461028157600036600319011261028157602060ff600154166040519015158152f35b3461028157600036600319011261028157611e14612619565b60015460ff811615611e535760ff19166001557f5db9ee0a495bf2e6ff9c91a7834c1ba4fdd244a5e8aa4e537bd38aeae4b073aa6020604051338152a1005b604051638dfc202b60e01b8152600490fd5b3461028157602080600319360112610281576001600160a01b03611e87612414565b1660005260098152604060002060405190818382549182815201908192600052846000209060005b86828210611f05578686611ec582880383612552565b604051928392818401908285525180915260408401929160005b828110611eee57505050500390f35b835185528695509381019392810192600101611edf565b835485529093019260019283019201611eaf565b3461028157600036600319011261028157611f3261294c565b33600052600b6020526040600020548015611fb157336000818152600b6020908152604080832092909255600254915163a9059cbb60e01b9181019190915260248101929092526044820192909252611faa916001600160a01b0316611fa582606481015b03601f198101845283612552565b6128e4565b6001600055005b60405162461bcd60e51b81526020600482015260146024820152734e6f2066756e647320746f20776974686472617760601b6044820152606490fd5b34610281576020366003190112610281576001600160a01b0361200e612414565b16600052600b6020526020604060002054604051908152f35b34610281576060366003190112610281576004356120436123fe565b906001600160401b036044358181116102815761206490369060040161242a565b93909183151580612354575b6120799061271d565b836000526020926006845261209860ff6004604060002001541661275c565b6120a06126ff565b60008581526006855260409020600201546001600160a01b0390811633036123045783169283156122c65785600052600c8552604060002084600052855260ff6040600020541661228e57612104908660005260068652600360406000200161266e565b826000526009845261211a8560406000206126a9565b84600052600c845260406000208360005284526040600020906001918260ff198254161790558560005260068552600860406000200184600052855260406000209287116107dd5761216c8354612518565b601f811161225e575b50600090601f88116001146121da5796809281927ff328ac0f8bcae00933fe87ba0aa2d0d505c1df94bc9c1aa05b8441c28b74032c98996000946121cf575b50501b916000199060031b1c19161790555b604051908152a2005b0135925089806121b4565b9690601f1982169084600052866000209160005b818110612249575090837ff328ac0f8bcae00933fe87ba0aa2d0d505c1df94bc9c1aa05b8441c28b74032c999a921061222f575b505050811b0190556121c6565b0135600019600384901b60f8161c19169055878080612222565b8a8301358455928501929188019188016121ee565b612288908460005286600020601f8a0160051c810191888b106107d357601f0160051c0190612657565b87612175565b60405162461bcd60e51b815260048101869052601060248201526f20b63932b0b23c90309036b2b6b132b960811b6044820152606490fd5b60405162461bcd60e51b8152600481018690526016602482015275496e76616c6964206d656d626572206164647265737360501b6044820152606490fd5b60405162461bcd60e51b815260048101869052602260248201527f4f6e6c792067726f75702063726561746f722063616e20616464206d656d6265604482015261727360f01b6064820152608490fd5b50600354841115612070565b34610281576000366003190112610281576002546040516001600160a01b039091168152602090f35b346102815760203660031901126102815760e09060043560005260086020526040600020805490600181015460018060a01b0380600284015416906003840154169060048401549260066005860154950154958752602087015260408601526060850152608084015260a083015260c0820152f35b602435906001600160a01b038216820361028157565b600435906001600160a01b038216820361028157565b9181601f84011215610281578235916001600160401b038311610281576020838186019501011161028157565b805482101561246f5760005260206000200190600090565b634e487b7160e01b600052603260045260246000fd5b919082519283825260005b8481106124b1575050826000602080949584010152601f8019910116010190565b602081830181015184830182015201612490565b90815180825260208080930193019160005b8281106124e5575050505090565b83516001600160a01b0316855293810193928101926001016124d7565b6040906003190112610281576004359060243590565b90600182811c92168015612548575b602083101461253257565b634e487b7160e01b600052602260045260246000fd5b91607f1691612527565b90601f801991011681019081106001600160401b038211176107dd57604052565b906040519182600082549261258784612518565b9081845260019485811690816000146125f657506001146125b3575b50506125b192500383612552565b565b9093915060005260209081600020936000915b8183106125de5750506125b1935082010138806125a3565b855488840185015294850194879450918301916125c6565b9150506125b194506020925060ff191682840152151560051b82010138806125a3565b60015460081c6001600160a01b0316330361263057565b60405163118cdaa760e01b8152336004820152602490fd5b6000198114610ada5760010190565b818110612662575050565b60008155600101612657565b8054600160401b8110156107dd5761268b91600182018155612457565b819291549060031b9160018060a01b03809116831b921b1916179055565b8054600160401b8110156107dd576126c691600182018155612457565b819291549060031b91821b91600019901b1916179055565b908060209392818452848401376000828201840152601f01601f1916010190565b60ff6001541661270b57565b60405163d93c066560e01b8152600490fd5b1561272457565b60405162461bcd60e51b815260206004820152601060248201526f125b9d985b1a590819dc9bdd5c08125160821b6044820152606490fd5b1561276357565b60405162461bcd60e51b815260206004820152601360248201527247726f7570206973206e6f742061637469766560681b6044820152606490fd5b156127a557565b60405162461bcd60e51b81526020600482015260126024820152712737ba10309033b937bab81036b2b6b132b960711b6044820152606490fd5b156127e657565b60405162461bcd60e51b815260206004820152601760248201527f416d6f756e74206d75737420626520706f7369746976650000000000000000006044820152606490fd5b919081101561246f5760051b0190565b356001600160a01b03811681036102815790565b8115612859570490565b634e487b7160e01b600052601260045260246000fd5b8115612859570690565b91909160008382019384129112908015821691151617610ada57565b91908201809211610ada57565b6040516323b872dd60e01b60208201526001600160a01b03928316602482015292909116604483015260648201929092526125b191611fa58260848101611f97565b906000602091828151910182855af115612940576000513d61293757506001600160a01b0381163b155b6129155750565b604051635274afe760e01b81526001600160a01b039091166004820152602490fd5b6001141561290e565b6040513d6000823e3d90fd5b60026000541461295d576002600055565b604051633ee5aeb560e01b8152600490fd5b9060405191828154918282526020928383019160005283600020936000905b8282106129a4575050506125b192500383612552565b85546001600160a01b03168452600195860195889550938101939091019061298e565b6001600160401b0381116107dd5760051b60200190565b805182101561246f5760209160051b010190565b919091600092818452602060068152604091828620908691876003809201908154905b818110612adc5750508315612ad157885b8154811015612ac557612a398183612457565b905490841b1c6001600160a01b0316808b52600a8752878b20898c528752878b20548b8113612a73575b5050612a6e90612648565b612a26565b85810290808204871490151715612ab15790612a9387612a6e949361284f565b908c52600b8852612aa8898d20918254612895565b90559038612a63565b634e487b7160e01b8c52601160045260248cfd5b50505050505050509050565b505050505050509050565b612ae68184612457565b905490851b1c6001600160a01b03168b52600a8752878b20898c528752878b20548b8113612b1e575b50612b1990612648565b612a15565b612b2c90612b199297612895565b9590612b0f56fe86165805efb5d8629221a0c54d3adaa3ac6e85c4025ef4221245bac12516f0a1a26469706673582212207bb9e418bac6eb477b062c9bb8f39be7ee945193825496bb07bff18631c4387364736f6c63430008140033","opcodes":"PUSH1 0x80 CALLVALUE PUSH3 0xF8 JUMPI PUSH1 0x1F PUSH3 0x2CB2 CODESIZE DUP2 SWAP1 SUB SWAP2 DUP3 ADD PUSH1 0x1F NOT AND DUP4 ADD SWAP2 PUSH1 0x1 PUSH1 0x1 PUSH1 0x40 SHL SUB DUP4 GT DUP5 DUP5 LT OR PUSH3 0xFD JUMPI DUP1 DUP5 SWAP3 PUSH1 0x40 SWAP5 DUP6 MSTORE DUP4 CODECOPY DUP2 ADD SUB SLT PUSH3 0xF8 JUMPI PUSH3 0x5A PUSH1 0x20 PUSH3 0x52 DUP4 PUSH3 0x113 JUMP JUMPDEST SWAP3 ADD PUSH3 0x113 JUMP JUMPDEST PUSH1 0x1 PUSH1 0x0 SSTORE PUSH1 0x1 PUSH1 0x1 PUSH1 0xA0 SHL SUB SWAP1 DUP3 DUP3 AND DUP1 ISZERO PUSH3 0xDF JUMPI PUSH1 0x1 DUP1 SLOAD PUSH2 0x100 PUSH1 0x1 PUSH1 0xA8 SHL SUB NOT DUP2 AND PUSH1 0x8 SWAP7 DUP8 SHL PUSH2 0x100 PUSH1 0x1 PUSH1 0xA8 SHL SUB AND OR SWAP1 SWAP2 SSTORE PUSH1 0x40 MLOAD SWAP5 SHR DUP4 AND PUSH32 0x8BE0079C531659141344CD1FD0A4F28419497F9722A3DAAFE3B4186F6B6457E0 PUSH1 0x0 DUP1 LOG3 AND PUSH1 0x1 DUP1 PUSH1 0xA0 SHL SUB NOT PUSH1 0x2 SLOAD AND OR PUSH1 0x2 SSTORE PUSH2 0x2B89 SWAP1 DUP2 PUSH3 0x129 DUP3 CODECOPY RETURN JUMPDEST PUSH1 0x40 MLOAD PUSH4 0x1E4FBDF7 PUSH1 0xE0 SHL DUP2 MSTORE PUSH1 0x0 PUSH1 0x4 DUP3 ADD MSTORE PUSH1 0x24 SWAP1 REVERT JUMPDEST PUSH1 0x0 DUP1 REVERT JUMPDEST PUSH4 0x4E487B71 PUSH1 0xE0 SHL PUSH1 0x0 MSTORE PUSH1 0x41 PUSH1 0x4 MSTORE PUSH1 0x24 PUSH1 0x0 REVERT JUMPDEST MLOAD SWAP1 PUSH1 0x1 PUSH1 0x1 PUSH1 0xA0 SHL SUB DUP3 AND DUP3 SUB PUSH3 0xF8 JUMPI JUMP INVALID PUSH1 0x80 DUP1 PUSH1 0x40 MSTORE PUSH1 0x4 CALLDATASIZE LT ISZERO PUSH2 0x13 JUMPI PUSH1 0x0 DUP1 REVERT JUMPDEST PUSH1 0x0 CALLDATALOAD PUSH1 0xE0 SHR SWAP1 DUP2 PUSH4 0x8DF7DC8 EQ PUSH2 0x2389 JUMPI POP DUP1 PUSH4 0x11EAC855 EQ PUSH2 0x2360 JUMPI DUP1 PUSH4 0x1F998D60 EQ PUSH2 0x2027 JUMPI DUP1 PUSH4 0x2B576F4E EQ PUSH2 0x1FED JUMPI DUP1 PUSH4 0x3CCFD60B EQ PUSH2 0x1F19 JUMPI DUP1 PUSH4 0x3DA04E4A EQ PUSH2 0x1E65 JUMPI DUP1 PUSH4 0x3F4BA83A EQ PUSH2 0x1DFB JUMPI DUP1 PUSH4 0x5C975ABB EQ PUSH2 0x1DD8 JUMPI DUP1 PUSH4 0x60A9E097 EQ PUSH2 0x1D80 JUMPI DUP1 PUSH4 0x715018A6 EQ PUSH2 0x1D1F JUMPI DUP1 PUSH4 0x7250DC36 EQ PUSH2 0x1C97 JUMPI DUP1 PUSH4 0x735E5DB6 EQ PUSH2 0x1BE6 JUMPI DUP1 PUSH4 0x73BBE9FF EQ PUSH2 0x177B JUMPI DUP1 PUSH4 0x805351A4 EQ PUSH2 0x16F6 JUMPI DUP1 PUSH4 0x8456CB59 EQ PUSH2 0x169D JUMPI DUP1 PUSH4 0x84B971A5 EQ PUSH2 0x167F JUMPI DUP1 PUSH4 0x8DA5CB5B EQ PUSH2 0x1652 JUMPI DUP1 PUSH4 0x91A9648A EQ PUSH2 0x286 JUMPI DUP1 PUSH4 0x96324BD4 EQ PUSH2 0x15AD JUMPI DUP1 PUSH4 0xA6A5E2C5 EQ PUSH2 0xF62 JUMPI DUP1 PUSH4 0xAE59DFD3 EQ PUSH2 0xD18 JUMPI DUP1 PUSH4 0xAF4AFE0A EQ PUSH2 0xC86 JUMPI DUP1 PUSH4 0xB1411D48 EQ PUSH2 0xB36 JUMPI DUP1 PUSH4 0xC0657812 EQ PUSH2 0x991 JUMPI DUP1 PUSH4 0xCAE75515 EQ PUSH2 0x4B4 JUMPI DUP1 PUSH4 0xCEB60654 EQ PUSH2 0x3F0 JUMPI DUP1 PUSH4 0xD24924FE EQ PUSH2 0x3D2 JUMPI DUP1 PUSH4 0xDDCAD2AE EQ PUSH2 0x3B4 JUMPI DUP1 PUSH4 0xEFB37D1B EQ PUSH2 0x367 JUMPI DUP1 PUSH4 0xF2FDE38B EQ PUSH2 0x2CE JUMPI DUP1 PUSH4 0xFA3BDC46 EQ PUSH2 0x286 JUMPI PUSH4 0xFF7B9DE5 EQ PUSH2 0x17F JUMPI PUSH1 0x0 DUP1 REVERT JUMPDEST CALLVALUE PUSH2 0x281 JUMPI PUSH2 0x18D CALLDATASIZE PUSH2 0x2502 JUMP JUMPDEST DUP2 ISZERO ISZERO DUP1 PUSH2 0x275 JUMPI JUMPDEST PUSH2 0x19F SWAP1 PUSH2 0x271D JUMP JUMPDEST DUP2 PUSH1 0x0 MSTORE PUSH1 0x6 PUSH1 0x20 MSTORE PUSH2 0x1BC PUSH1 0xFF PUSH1 0x4 PUSH1 0x40 PUSH1 0x0 KECCAK256 ADD SLOAD AND PUSH2 0x275C JUMP JUMPDEST PUSH2 0x1C4 PUSH2 0x26FF JUMP JUMPDEST PUSH1 0x0 DUP3 DUP2 MSTORE PUSH1 0x6 PUSH1 0x20 MSTORE PUSH1 0x40 SWAP1 KECCAK256 PUSH1 0x2 ADD SLOAD PUSH1 0x1 PUSH1 0x1 PUSH1 0xA0 SHL SUB AND CALLER SUB PUSH2 0x224 JUMPI PUSH1 0x20 PUSH32 0xDB805FDA9ED99F7B4130F56CC360FFDE29FA848CFCA4CE4CCB3548A4A93061CE SWAP2 DUP4 PUSH1 0x0 MSTORE PUSH1 0x6 DUP3 MSTORE DUP1 PUSH1 0x7 PUSH1 0x40 PUSH1 0x0 KECCAK256 ADD SSTORE PUSH1 0x40 MLOAD SWAP1 DUP2 MSTORE LOG2 STOP JUMPDEST PUSH1 0x40 MLOAD PUSH3 0x461BCD PUSH1 0xE5 SHL DUP2 MSTORE PUSH1 0x20 PUSH1 0x4 DUP3 ADD MSTORE PUSH1 0x24 DUP1 DUP3 ADD MSTORE PUSH32 0x4F6E6C792067726F75702063726561746F722063616E2075706461746520616D PUSH1 0x44 DUP3 ADD MSTORE PUSH4 0x1BDD5B9D PUSH1 0xE2 SHL PUSH1 0x64 DUP3 ADD MSTORE PUSH1 0x84 SWAP1 REVERT JUMPDEST POP PUSH1 0x3 SLOAD DUP3 GT ISZERO PUSH2 0x196 JUMP JUMPDEST PUSH1 0x0 DUP1 REVERT JUMPDEST CALLVALUE PUSH2 0x281 JUMPI PUSH1 0x40 CALLDATASIZE PUSH1 0x3 NOT ADD SLT PUSH2 0x281 JUMPI PUSH1 0x1 PUSH1 0x1 PUSH1 0xA0 SHL SUB PUSH2 0x2A7 PUSH2 0x2414 JUMP JUMPDEST AND PUSH1 0x0 MSTORE PUSH1 0xA PUSH1 0x20 MSTORE PUSH1 0x40 PUSH1 0x0 KECCAK256 PUSH1 0x24 CALLDATALOAD PUSH1 0x0 MSTORE PUSH1 0x20 MSTORE PUSH1 0x20 PUSH1 0x40 PUSH1 0x0 KECCAK256 SLOAD PUSH1 0x40 MLOAD SWAP1 DUP2 MSTORE RETURN JUMPDEST CALLVALUE PUSH2 0x281 JUMPI PUSH1 0x20 CALLDATASIZE PUSH1 0x3 NOT ADD SLT PUSH2 0x281 JUMPI PUSH2 0x2E7 PUSH2 0x2414 JUMP JUMPDEST PUSH2 0x2EF PUSH2 0x2619 JUMP JUMPDEST PUSH1 0x1 PUSH1 0x1 PUSH1 0xA0 SHL SUB DUP2 DUP2 AND SWAP2 DUP3 ISZERO PUSH2 0x34E JUMPI PUSH1 0x1 DUP1 SLOAD PUSH2 0x100 PUSH1 0x1 PUSH1 0xA8 SHL SUB NOT DUP2 AND PUSH1 0x8 SWAP4 DUP5 SHL PUSH2 0x100 PUSH1 0x1 PUSH1 0xA8 SHL SUB AND OR SWAP1 SWAP2 SSTORE SWAP1 SHR AND PUSH32 0x8BE0079C531659141344CD1FD0A4F28419497F9722A3DAAFE3B4186F6B6457E0 PUSH1 0x0 DUP1 LOG3 STOP JUMPDEST PUSH1 0x40 MLOAD PUSH4 0x1E4FBDF7 PUSH1 0xE0 SHL DUP2 MSTORE PUSH1 0x0 PUSH1 0x4 DUP3 ADD MSTORE PUSH1 0x24 SWAP1 REVERT JUMPDEST CALLVALUE PUSH2 0x281 JUMPI PUSH1 0x40 CALLDATASIZE PUSH1 0x3 NOT ADD SLT PUSH2 0x281 JUMPI PUSH2 0x380 PUSH2 0x23FE JUMP JUMPDEST PUSH1 0x4 CALLDATALOAD PUSH1 0x0 MSTORE PUSH1 0xC PUSH1 0x20 MSTORE PUSH1 0x40 PUSH1 0x0 KECCAK256 SWAP1 PUSH1 0x1 DUP1 PUSH1 0xA0 SHL SUB AND PUSH1 0x0 MSTORE PUSH1 0x20 MSTORE PUSH1 0x20 PUSH1 0xFF PUSH1 0x40 PUSH1 0x0 KECCAK256 SLOAD AND PUSH1 0x40 MLOAD SWAP1 ISZERO ISZERO DUP2 MSTORE RETURN JUMPDEST CALLVALUE PUSH2 0x281 JUMPI PUSH1 0x0 CALLDATASIZE PUSH1 0x3 NOT ADD SLT PUSH2 0x281 JUMPI PUSH1 0x20 PUSH1 0x4 SLOAD PUSH1 0x40 MLOAD SWAP1 DUP2 MSTORE RETURN JUMPDEST CALLVALUE PUSH2 0x281 JUMPI PUSH1 0x0 CALLDATASIZE PUSH1 0x3 NOT ADD SLT PUSH2 0x281 JUMPI PUSH1 0x20 PUSH1 0x3 SLOAD PUSH1 0x40 MLOAD SWAP1 DUP2 MSTORE RETURN JUMPDEST CALLVALUE PUSH2 0x281 JUMPI PUSH1 0x20 CALLDATASIZE PUSH1 0x3 NOT ADD SLT PUSH2 0x281 JUMPI PUSH1 0x4 CALLDATALOAD PUSH1 0x0 MSTORE PUSH1 0x6 PUSH1 0x20 MSTORE PUSH1 0x40 PUSH1 0x0 KECCAK256 DUP1 SLOAD PUSH1 0x1 DUP1 PUSH1 0xA0 SHL SUB PUSH1 0x2 DUP4 ADD SLOAD AND SWAP2 PUSH2 0x4AA PUSH1 0xFF PUSH1 0x4 DUP4 ADD SLOAD AND PUSH1 0x5 DUP4 ADD SLOAD SWAP3 PUSH1 0x7 DUP2 ADD SLOAD SWAP4 PUSH2 0x490 PUSH2 0x447 PUSH1 0x1 DUP5 ADD PUSH2 0x2573 JUMP JUMPDEST SWAP8 PUSH2 0x460 PUSH1 0x6 PUSH2 0x459 PUSH1 0x3 DUP8 ADD PUSH2 0x296F JUMP JUMPDEST SWAP6 ADD PUSH2 0x2573 JUMP JUMPDEST SWAP4 PUSH2 0x47D PUSH1 0x40 MLOAD SWAP11 DUP12 SWAP11 DUP12 MSTORE PUSH2 0x100 DUP1 PUSH1 0x20 DUP14 ADD MSTORE DUP12 ADD SWAP1 PUSH2 0x2485 JUMP JUMPDEST SWAP2 PUSH1 0x40 DUP11 ADD MSTORE DUP9 DUP3 SUB PUSH1 0x60 DUP11 ADD MSTORE PUSH2 0x24C5 JUMP JUMPDEST SWAP3 ISZERO ISZERO PUSH1 0x80 DUP8 ADD MSTORE PUSH1 0xA0 DUP7 ADD MSTORE DUP5 DUP3 SUB PUSH1 0xC0 DUP7 ADD MSTORE PUSH2 0x2485 JUMP JUMPDEST SWAP1 PUSH1 0xE0 DUP4 ADD MSTORE SUB SWAP1 RETURN JUMPDEST CALLVALUE PUSH2 0x281 JUMPI PUSH1 0x80 CALLDATASIZE PUSH1 0x3 NOT ADD SLT PUSH2 0x281 JUMPI PUSH1 0x4 CALLDATALOAD PUSH1 0x1 PUSH1 0x1 PUSH1 0x40 SHL SUB DUP2 GT PUSH2 0x281 JUMPI PUSH2 0x4E4 SWAP1 CALLDATASIZE SWAP1 PUSH1 0x4 ADD PUSH2 0x242A JUMP JUMPDEST SWAP1 PUSH1 0x24 CALLDATALOAD PUSH1 0x1 PUSH1 0x1 PUSH1 0x40 SHL SUB DUP2 GT PUSH2 0x281 JUMPI PUSH2 0x504 SWAP1 CALLDATASIZE SWAP1 PUSH1 0x4 ADD PUSH2 0x242A JUMP JUMPDEST PUSH1 0x64 SWAP4 SWAP2 SWAP4 CALLDATALOAD PUSH1 0x1 PUSH1 0x1 PUSH1 0x40 SHL SUB DUP2 GT PUSH2 0x281 JUMPI PUSH2 0x526 SWAP1 CALLDATASIZE SWAP1 PUSH1 0x4 ADD PUSH2 0x242A JUMP JUMPDEST SWAP1 SWAP5 PUSH2 0x530 PUSH2 0x26FF JUMP JUMPDEST DUP4 ISZERO PUSH2 0x94C JUMPI PUSH2 0x541 PUSH1 0x3 SLOAD PUSH2 0x2648 JUMP JUMPDEST SWAP1 DUP2 PUSH1 0x3 SSTORE DUP2 PUSH1 0x0 MSTORE PUSH1 0x6 PUSH1 0x20 MSTORE PUSH1 0x40 PUSH1 0x0 KECCAK256 SWAP2 DUP3 SSTORE PUSH1 0x1 PUSH1 0x1 PUSH1 0x40 SHL SUB DUP6 GT PUSH2 0x7DD JUMPI PUSH2 0x572 PUSH1 0x1 DUP4 ADD SLOAD PUSH2 0x2518 JUMP JUMPDEST PUSH1 0x1F DUP2 GT PUSH2 0x917 JUMPI JUMPDEST POP DUP5 PUSH1 0x0 PUSH1 0x1F DUP3 GT PUSH1 0x1 EQ PUSH2 0x8A9 JUMPI PUSH1 0x0 SWAP2 PUSH2 0x89E JUMPI JUMPDEST POP DUP6 PUSH1 0x1 SHL SWAP1 PUSH1 0x0 NOT DUP8 PUSH1 0x3 SHL SHR NOT AND OR PUSH1 0x1 DUP4 ADD SSTORE JUMPDEST PUSH1 0x2 DUP3 ADD CALLER PUSH1 0x1 PUSH1 0x1 PUSH1 0x60 SHL SUB PUSH1 0xA0 SHL DUP3 SLOAD AND OR SWAP1 SSTORE PUSH2 0x5CC CALLER PUSH1 0x3 DUP5 ADD PUSH2 0x266E JUMP JUMPDEST PUSH1 0x4 DUP3 ADD SWAP4 PUSH1 0xFF NOT SWAP5 PUSH1 0x1 DUP7 DUP3 SLOAD AND OR SWAP1 SSTORE TIMESTAMP PUSH1 0x5 DUP5 ADD SSTORE PUSH1 0x1 PUSH1 0x1 PUSH1 0x40 SHL SUB DUP2 GT PUSH2 0x7DD JUMPI PUSH1 0x6 DUP4 ADD SWAP2 PUSH2 0x601 DUP4 SLOAD PUSH2 0x2518 JUMP JUMPDEST PUSH1 0x1F DUP2 GT PUSH2 0x86C JUMPI JUMPDEST POP PUSH1 0x0 SWAP1 PUSH1 0x1F DUP4 GT PUSH1 0x1 EQ PUSH2 0x7FE JUMPI PUSH1 0x8 SWAP5 SWAP4 SWAP3 SWAP2 PUSH1 0x0 SWAP2 DUP4 PUSH2 0x7F3 JUMPI JUMPDEST POP POP DUP2 PUSH1 0x1 SHL SWAP2 PUSH1 0x0 NOT SWAP1 PUSH1 0x3 SHL SHR NOT AND OR SWAP1 SSTORE JUMPDEST PUSH1 0x44 CALLDATALOAD PUSH1 0x7 DUP3 ADD SSTORE CALLER PUSH1 0x0 MSTORE ADD PUSH1 0x20 MSTORE PUSH1 0x40 PUSH1 0x0 KECCAK256 SWAP1 PUSH1 0x1 PUSH1 0x1 PUSH1 0x40 SHL SUB DUP2 GT PUSH2 0x7DD JUMPI DUP1 PUSH1 0x20 SWAP7 PUSH2 0x66F DUP5 SLOAD PUSH2 0x2518 JUMP JUMPDEST PUSH1 0x1F DUP2 GT PUSH2 0x7A2 JUMPI JUMPDEST POP PUSH1 0x0 SWAP1 PUSH1 0x1F DUP4 GT PUSH1 0x1 EQ PUSH2 0x739 JUMPI PUSH1 0x0 SWAP3 PUSH2 0x72E JUMPI JUMPDEST POP POP DUP2 PUSH1 0x1 SHL SWAP2 PUSH1 0x0 NOT SWAP1 PUSH1 0x3 SHL SHR NOT AND OR SWAP1 SSTORE JUMPDEST CALLER PUSH1 0x0 MSTORE PUSH1 0x9 DUP5 MSTORE PUSH2 0x6BD PUSH1 0x40 PUSH1 0x0 KECCAK256 PUSH1 0x3 SLOAD SWAP1 PUSH2 0x26A9 JUMP JUMPDEST PUSH1 0x3 SLOAD PUSH1 0x0 MSTORE PUSH1 0xC DUP5 MSTORE PUSH1 0x40 PUSH1 0x0 KECCAK256 CALLER PUSH1 0x0 MSTORE DUP5 MSTORE PUSH1 0x1 PUSH1 0x40 PUSH1 0x0 KECCAK256 SWAP2 DUP3 SLOAD AND OR SWAP1 SSTORE PUSH32 0x18C62FE73D1B8EC45D443CF56B0C4966349CBB70AB036BA3EBFB065932AD17B0 PUSH1 0x3 SLOAD SWAP3 DUP4 SWAP3 PUSH2 0x71E PUSH1 0x40 MLOAD SWAP3 DUP4 SWAP3 PUSH1 0x40 DUP5 MSTORE PUSH1 0x40 DUP5 ADD SWAP2 PUSH2 0x26DE JUMP JUMPDEST CALLER DUP8 DUP4 ADD MSTORE SUB SWAP1 LOG2 PUSH1 0x40 MLOAD SWAP1 DUP2 MSTORE RETURN JUMPDEST ADD CALLDATALOAD SWAP1 POP DUP8 DUP1 PUSH2 0x68F JUMP JUMPDEST SWAP1 SWAP2 POP PUSH1 0x1F NOT DUP4 AND SWAP2 DUP5 PUSH1 0x0 MSTORE DUP9 PUSH1 0x0 KECCAK256 SWAP3 PUSH1 0x0 JUMPDEST DUP2 DUP2 LT PUSH2 0x78B JUMPI POP SWAP1 DUP5 PUSH1 0x1 SWAP6 SWAP5 SWAP4 SWAP3 LT PUSH2 0x771 JUMPI JUMPDEST POP POP POP DUP2 SHL ADD SWAP1 SSTORE PUSH2 0x6A4 JUMP JUMPDEST ADD CALLDATALOAD PUSH1 0x0 NOT PUSH1 0x3 DUP5 SWAP1 SHL PUSH1 0xF8 AND SHR NOT AND SWAP1 SSTORE DUP8 DUP1 DUP1 PUSH2 0x764 JUMP JUMPDEST SWAP2 SWAP4 DUP11 PUSH1 0x1 DUP2 SWAP3 DUP8 DUP8 ADD CALLDATALOAD DUP2 SSTORE ADD SWAP6 ADD SWAP3 ADD PUSH2 0x74E JUMP JUMPDEST PUSH2 0x7CD SWAP1 DUP6 PUSH1 0x0 MSTORE DUP10 PUSH1 0x0 KECCAK256 PUSH1 0x1F DUP6 ADD PUSH1 0x5 SHR DUP2 ADD SWAP2 DUP12 DUP7 LT PUSH2 0x7D3 JUMPI JUMPDEST PUSH1 0x1F ADD PUSH1 0x5 SHR ADD SWAP1 PUSH2 0x2657 JUMP JUMPDEST DUP9 PUSH2 0x678 JUMP JUMPDEST SWAP1 SWAP2 POP DUP2 SWAP1 PUSH2 0x7C0 JUMP JUMPDEST PUSH4 0x4E487B71 PUSH1 0xE0 SHL PUSH1 0x0 MSTORE PUSH1 0x41 PUSH1 0x4 MSTORE PUSH1 0x24 PUSH1 0x0 REVERT JUMPDEST ADD CALLDATALOAD SWAP1 POP DUP11 DUP1 PUSH2 0x628 JUMP JUMPDEST DUP4 PUSH1 0x0 MSTORE PUSH1 0x20 PUSH1 0x0 KECCAK256 SWAP2 PUSH1 0x0 JUMPDEST PUSH1 0x1F NOT DUP6 AND DUP2 LT PUSH2 0x854 JUMPI POP SWAP2 DUP4 SWAP2 PUSH1 0x1 SWAP4 PUSH1 0x8 SWAP8 SWAP7 SWAP6 PUSH1 0x1F NOT DUP2 AND LT PUSH2 0x83A JUMPI JUMPDEST POP POP POP DUP2 SHL ADD SWAP1 SSTORE PUSH2 0x63D JUMP JUMPDEST ADD CALLDATALOAD PUSH1 0x0 NOT PUSH1 0x3 DUP5 SWAP1 SHL PUSH1 0xF8 AND SHR NOT AND SWAP1 SSTORE DUP11 DUP1 DUP1 PUSH2 0x82D JUMP JUMPDEST SWAP1 SWAP3 PUSH1 0x20 PUSH1 0x1 DUP2 SWAP3 DUP7 DUP7 ADD CALLDATALOAD DUP2 SSTORE ADD SWAP5 ADD SWAP2 ADD PUSH2 0x80B JUMP JUMPDEST PUSH2 0x898 SWAP1 DUP5 PUSH1 0x0 MSTORE PUSH1 0x20 PUSH1 0x0 KECCAK256 PUSH1 0x1F DUP6 ADD PUSH1 0x5 SHR DUP2 ADD SWAP2 PUSH1 0x20 DUP7 LT PUSH2 0x7D3 JUMPI PUSH1 0x1F ADD PUSH1 0x5 SHR ADD SWAP1 PUSH2 0x2657 JUMP JUMPDEST DUP10 PUSH2 0x60A JUMP JUMPDEST SWAP1 POP DUP7 ADD CALLDATALOAD DUP9 PUSH2 0x592 JUMP JUMPDEST SWAP1 POP PUSH1 0x1 DUP4 ADD PUSH1 0x0 MSTORE PUSH1 0x20 PUSH1 0x0 KECCAK256 SWAP1 PUSH1 0x0 JUMPDEST PUSH1 0x1F NOT DUP9 AND DUP2 LT PUSH2 0x8FF JUMPI POP DUP7 PUSH1 0x1F NOT DUP2 AND LT PUSH2 0x8E5 JUMPI JUMPDEST POP POP PUSH1 0x1 DUP6 DUP2 SHL ADD PUSH1 0x1 DUP4 ADD SSTORE PUSH2 0x5A9 JUMP JUMPDEST DUP8 ADD CALLDATALOAD PUSH1 0x0 NOT PUSH1 0x3 DUP9 SWAP1 SHL PUSH1 0xF8 AND SHR NOT AND SWAP1 SSTORE DUP8 DUP1 PUSH2 0x8D3 JUMP JUMPDEST SWAP1 SWAP2 PUSH1 0x20 PUSH1 0x1 DUP2 SWAP3 DUP6 DUP13 ADD CALLDATALOAD DUP2 SSTORE ADD SWAP4 ADD SWAP2 ADD PUSH2 0x8BB JUMP JUMPDEST PUSH2 0x946 SWAP1 PUSH1 0x1 DUP5 ADD PUSH1 0x0 MSTORE PUSH1 0x20 PUSH1 0x0 KECCAK256 PUSH1 0x1F DUP9 ADD PUSH1 0x5 SHR DUP2 ADD SWAP2 PUSH1 0x20 DUP10 LT PUSH2 0x7D3 JUMPI PUSH1 0x1F ADD PUSH1 0x5 SHR ADD SWAP1 PUSH2 0x2657 JUMP JUMPDEST DUP8 PUSH2 0x57B JUMP JUMPDEST PUSH1 0x40 MLOAD PUSH3 0x461BCD PUSH1 0xE5 SHL DUP2 MSTORE PUSH1 0x20 PUSH1 0x4 DUP3 ADD MSTORE PUSH1 0x1A PUSH1 0x24 DUP3 ADD MSTORE PUSH32 0x47726F7570206E616D652063616E6E6F7420626520656D707479000000000000 PUSH1 0x44 DUP3 ADD MSTORE PUSH1 0x64 SWAP1 REVERT JUMPDEST CALLVALUE PUSH2 0x281 JUMPI PUSH1 0x20 DUP1 PUSH1 0x3 NOT CALLDATASIZE ADD SLT PUSH2 0x281 JUMPI PUSH1 0x4 CALLDATALOAD SWAP1 DUP2 ISZERO ISZERO DUP1 PUSH2 0xB2A JUMPI JUMPDEST PUSH2 0x9B9 SWAP1 PUSH2 0x271D JUMP JUMPDEST DUP2 PUSH1 0x0 MSTORE PUSH1 0x6 DUP2 MSTORE PUSH2 0x9D5 PUSH1 0xFF PUSH1 0x4 PUSH1 0x40 PUSH1 0x0 KECCAK256 ADD SLOAD AND PUSH2 0x275C JUMP JUMPDEST DUP2 PUSH1 0x0 MSTORE PUSH1 0xC DUP2 MSTORE PUSH1 0x40 PUSH1 0x0 KECCAK256 CALLER PUSH1 0x0 MSTORE DUP2 MSTORE PUSH2 0x9F9 PUSH1 0xFF PUSH1 0x40 PUSH1 0x0 KECCAK256 SLOAD AND PUSH2 0x279E JUMP JUMPDEST PUSH2 0xA01 PUSH2 0x294C JUMP JUMPDEST PUSH2 0xA09 PUSH2 0x26FF JUMP JUMPDEST CALLER PUSH1 0x0 MSTORE PUSH1 0xA DUP2 MSTORE PUSH1 0x40 PUSH1 0x0 KECCAK256 DUP3 PUSH1 0x0 MSTORE DUP2 MSTORE PUSH1 0x40 PUSH1 0x0 KECCAK256 SLOAD PUSH1 0x0 DUP2 SLT ISZERO PUSH2 0xAF0 JUMPI PUSH1 0x1 PUSH1 0xFF SHL DUP2 EQ PUSH2 0xADA JUMPI DUP1 PUSH1 0x0 SUB SWAP1 ISZERO PUSH2 0xA9F JUMPI PUSH1 0x0 DUP1 MLOAD PUSH1 0x20 PUSH2 0x2B34 DUP4 CODECOPY DUP2 MLOAD SWAP2 MSTORE SWAP2 PUSH2 0xA8C DUP3 PUSH2 0xA6E PUSH1 0x40 SWAP5 PUSH1 0x1 DUP1 PUSH1 0xA0 SHL SUB PUSH1 0x2 SLOAD AND ADDRESS SWAP1 CALLER SWAP1 PUSH2 0x28A2 JUMP JUMPDEST CALLER PUSH1 0x0 MSTORE PUSH1 0xA DUP4 MSTORE DUP4 PUSH1 0x0 KECCAK256 DUP7 PUSH1 0x0 MSTORE DUP4 MSTORE PUSH1 0x0 DUP5 DUP2 KECCAK256 SSTORE DUP6 PUSH2 0x29F2 JUMP JUMPDEST PUSH1 0x0 DUP3 MLOAD SWAP2 CALLER DUP4 MSTORE DUP3 ADD MSTORE LOG2 PUSH1 0x1 PUSH1 0x0 SSTORE STOP JUMPDEST PUSH1 0x40 MLOAD PUSH3 0x461BCD PUSH1 0xE5 SHL DUP2 MSTORE PUSH1 0x4 DUP2 ADD DUP4 SWAP1 MSTORE PUSH1 0x13 PUSH1 0x24 DUP3 ADD MSTORE PUSH19 0x139BC81BDD5D1CDD185B991A5B99C81919589D PUSH1 0x6A SHL PUSH1 0x44 DUP3 ADD MSTORE PUSH1 0x64 SWAP1 REVERT JUMPDEST PUSH4 0x4E487B71 PUSH1 0xE0 SHL PUSH1 0x0 MSTORE PUSH1 0x11 PUSH1 0x4 MSTORE PUSH1 0x24 PUSH1 0x0 REVERT JUMPDEST PUSH1 0x40 MLOAD PUSH3 0x461BCD PUSH1 0xE5 SHL DUP2 MSTORE PUSH1 0x4 DUP2 ADD DUP4 SWAP1 MSTORE PUSH1 0x12 PUSH1 0x24 DUP3 ADD MSTORE PUSH18 0x4E6F20646562747320746F20736574746C65 PUSH1 0x70 SHL PUSH1 0x44 DUP3 ADD MSTORE PUSH1 0x64 SWAP1 REVERT JUMPDEST POP PUSH1 0x3 SLOAD DUP3 GT ISZERO PUSH2 0x9B0 JUMP JUMPDEST CALLVALUE PUSH2 0x281 JUMPI PUSH1 0x20 DUP1 PUSH1 0x3 NOT CALLDATASIZE ADD SLT PUSH2 0x281 JUMPI PUSH1 0x4 CALLDATALOAD DUP1 PUSH1 0x0 MSTORE PUSH1 0x6 DUP3 MSTORE PUSH1 0x3 DUP1 PUSH1 0x40 PUSH1 0x0 KECCAK256 ADD SWAP3 DUP4 SLOAD PUSH2 0xB68 DUP2 PUSH2 0x29C7 JUMP JUMPDEST SWAP4 PUSH2 0xB76 PUSH1 0x40 MLOAD SWAP6 DUP7 PUSH2 0x2552 JUMP JUMPDEST DUP2 DUP6 MSTORE PUSH1 0x1F NOT SWAP4 DUP5 PUSH2 0xB87 DUP5 PUSH2 0x29C7 JUMP JUMPDEST ADD CALLDATASIZE DUP6 DUP9 ADD CALLDATACOPY PUSH2 0xB96 DUP4 PUSH2 0x29C7 JUMP JUMPDEST SWAP7 PUSH2 0xBA4 PUSH1 0x40 MLOAD SWAP9 DUP10 PUSH2 0x2552 JUMP JUMPDEST DUP4 DUP9 MSTORE PUSH2 0xBB0 DUP5 PUSH2 0x29C7 JUMP JUMPDEST DUP9 DUP7 ADD SWAP7 ADD CALLDATASIZE DUP8 CALLDATACOPY PUSH1 0x0 JUMPDEST DUP5 DUP2 LT PUSH2 0xC17 JUMPI PUSH2 0xBDE DUP9 DUP9 DUP9 DUP13 DUP2 PUSH1 0x40 MLOAD SWAP6 DUP7 SWAP6 PUSH1 0x40 DUP8 MSTORE PUSH1 0x40 DUP8 ADD SWAP1 PUSH2 0x24C5 JUMP JUMPDEST SWAP2 DUP6 DUP4 SUB DUP3 DUP8 ADD MSTORE MLOAD SWAP2 DUP3 DUP2 MSTORE ADD SWAP3 SWAP2 PUSH1 0x0 JUMPDEST DUP3 DUP2 LT PUSH2 0xC00 JUMPI POP POP POP POP SUB SWAP1 RETURN JUMPDEST DUP4 MLOAD DUP6 MSTORE DUP7 SWAP6 POP SWAP4 DUP2 ADD SWAP4 SWAP3 DUP2 ADD SWAP3 PUSH1 0x1 ADD PUSH2 0xBF1 JUMP JUMPDEST DUP1 PUSH2 0xC29 PUSH2 0xC7D SWAP3 DUP5 SWAP12 SWAP10 SWAP11 SWAP12 PUSH2 0x2457 JUMP JUMPDEST SWAP1 SLOAD PUSH1 0x1 PUSH1 0x1 PUSH1 0xA0 SHL SUB SWAP2 DUP7 SHL SHR DUP2 AND PUSH2 0xC43 DUP4 DUP14 PUSH2 0x29DE JUMP JUMPDEST MSTORE PUSH2 0xC4E DUP3 DUP6 PUSH2 0x2457 JUMP JUMPDEST SWAP1 SLOAD SWAP1 DUP7 SHL SHR AND PUSH1 0x0 MSTORE PUSH1 0xA DUP8 MSTORE PUSH1 0x40 PUSH1 0x0 KECCAK256 DUP6 PUSH1 0x0 MSTORE DUP8 MSTORE PUSH1 0x40 PUSH1 0x0 KECCAK256 SLOAD PUSH2 0xC77 DUP3 DUP11 PUSH2 0x29DE JUMP JUMPDEST MSTORE PUSH2 0x2648 JUMP JUMPDEST SWAP8 SWAP7 SWAP6 SWAP8 PUSH2 0xBBB JUMP JUMPDEST CALLVALUE PUSH2 0x281 JUMPI PUSH1 0x20 CALLDATASIZE PUSH1 0x3 NOT ADD SLT PUSH2 0x281 JUMPI PUSH1 0x4 CALLDATALOAD PUSH1 0x0 MSTORE PUSH1 0x7 PUSH1 0x20 MSTORE PUSH1 0x40 PUSH1 0x0 KECCAK256 DUP1 SLOAD PUSH1 0x1 DUP3 ADD SLOAD SWAP2 PUSH2 0xCBB PUSH1 0x2 DUP3 ADD PUSH2 0x2573 JUMP JUMPDEST PUSH1 0x3 DUP3 ADD SLOAD SWAP2 PUSH1 0x1 DUP1 PUSH1 0xA0 SHL SUB PUSH1 0x4 DUP3 ADD SLOAD AND PUSH2 0xCFD PUSH1 0x8 PUSH1 0xFF PUSH1 0x7 DUP6 ADD SLOAD AND SWAP4 ADD SLOAD SWAP4 PUSH1 0x40 MLOAD SWAP8 DUP9 SWAP8 DUP9 MSTORE PUSH1 0x20 DUP9 ADD MSTORE PUSH1 0xE0 PUSH1 0x40 DUP9 ADD MSTORE PUSH1 0xE0 DUP8 ADD SWAP1 PUSH2 0x2485 JUMP JUMPDEST SWAP4 PUSH1 0x60 DUP7 ADD MSTORE PUSH1 0x80 DUP6 ADD MSTORE ISZERO ISZERO PUSH1 0xA0 DUP5 ADD MSTORE PUSH1 0xC0 DUP4 ADD MSTORE SUB SWAP1 RETURN JUMPDEST CALLVALUE PUSH2 0x281 JUMPI PUSH1 0x40 CALLDATASIZE PUSH1 0x3 NOT ADD SLT PUSH2 0x281 JUMPI PUSH1 0x4 CALLDATALOAD PUSH1 0x1 PUSH1 0x1 PUSH1 0x40 SHL SUB PUSH1 0x24 CALLDATALOAD DUP2 DUP2 GT PUSH2 0x281 JUMPI PUSH2 0xD4C SWAP1 CALLDATASIZE SWAP1 PUSH1 0x4 ADD PUSH2 0x242A JUMP JUMPDEST SWAP2 SWAP1 DUP4 ISZERO ISZERO DUP1 PUSH2 0xF56 JUMPI JUMPDEST PUSH2 0xD60 SWAP1 PUSH2 0x271D JUMP JUMPDEST DUP4 PUSH1 0x0 MSTORE PUSH1 0x20 SWAP2 PUSH1 0x6 DUP4 MSTORE PUSH2 0xD7F PUSH1 0xFF PUSH1 0x4 PUSH1 0x40 PUSH1 0x0 KECCAK256 ADD SLOAD AND PUSH2 0x275C JUMP JUMPDEST PUSH2 0xD87 PUSH2 0x26FF JUMP JUMPDEST PUSH1 0x0 DUP6 DUP2 MSTORE PUSH1 0x6 DUP5 MSTORE PUSH1 0x40 SWAP1 KECCAK256 PUSH1 0x2 ADD SLOAD PUSH1 0x1 PUSH1 0x1 PUSH1 0xA0 SHL SUB AND CALLER SUB PUSH2 0xF02 JUMPI DUP5 PUSH1 0x0 MSTORE PUSH1 0x6 DUP4 MSTORE PUSH1 0x6 PUSH1 0x40 PUSH1 0x0 KECCAK256 ADD SWAP1 DUP5 GT PUSH2 0x7DD JUMPI PUSH2 0xDC8 DUP2 SLOAD PUSH2 0x2518 JUMP JUMPDEST PUSH1 0x1F DUP2 GT PUSH2 0xED2 JUMPI JUMPDEST POP PUSH1 0x0 PUSH1 0x1F DUP6 GT PUSH1 0x1 EQ PUSH2 0xE46 JUMPI SWAP2 PUSH2 0xE36 SWAP2 DUP6 PUSH32 0xCF14D138B385737A7A7561D6246253F0E6AD83997354974F612D58EAE957FF1C SWAP7 SWAP6 SWAP5 PUSH1 0x0 SWAP2 PUSH2 0xE3B JUMPI JUMPDEST POP DUP6 PUSH1 0x1 SHL SWAP1 PUSH1 0x0 NOT DUP8 PUSH1 0x3 SHL SHR NOT AND OR SWAP1 SSTORE JUMPDEST PUSH1 0x40 MLOAD SWAP4 DUP4 DUP6 SWAP5 DUP6 MSTORE DUP5 ADD SWAP2 PUSH2 0x26DE JUMP JUMPDEST SUB SWAP1 LOG2 STOP JUMPDEST SWAP1 POP DUP3 ADD CALLDATALOAD DUP9 PUSH2 0xE11 JUMP JUMPDEST PUSH1 0x1F NOT DUP6 AND SWAP1 DUP3 PUSH1 0x0 MSTORE DUP5 PUSH1 0x0 KECCAK256 SWAP2 PUSH1 0x0 JUMPDEST DUP2 DUP2 LT PUSH2 0xEBB JUMPI POP SWAP2 PUSH2 0xE36 SWAP4 SWAP2 DUP8 PUSH32 0xCF14D138B385737A7A7561D6246253F0E6AD83997354974F612D58EAE957FF1C SWAP9 SWAP8 SWAP7 SWAP5 LT PUSH2 0xEA1 JUMPI JUMPDEST POP POP PUSH1 0x1 DUP6 DUP2 SHL ADD SWAP1 SSTORE PUSH2 0xE25 JUMP JUMPDEST DUP4 ADD CALLDATALOAD PUSH1 0x0 NOT PUSH1 0x3 DUP9 SWAP1 SHL PUSH1 0xF8 AND SHR NOT AND SWAP1 SSTORE DUP8 DUP1 PUSH2 0xE92 JUMP JUMPDEST SWAP2 SWAP3 DUP7 PUSH1 0x1 DUP2 SWAP3 DUP7 DUP10 ADD CALLDATALOAD DUP2 SSTORE ADD SWAP5 ADD SWAP3 ADD PUSH2 0xE58 JUMP JUMPDEST PUSH2 0xEFC SWAP1 DUP3 PUSH1 0x0 MSTORE DUP5 PUSH1 0x0 KECCAK256 PUSH1 0x1F DUP8 ADD PUSH1 0x5 SHR DUP2 ADD SWAP2 DUP7 DUP9 LT PUSH2 0x7D3 JUMPI PUSH1 0x1F ADD PUSH1 0x5 SHR ADD SWAP1 PUSH2 0x2657 JUMP JUMPDEST DUP6 PUSH2 0xDD1 JUMP JUMPDEST PUSH1 0x40 MLOAD PUSH3 0x461BCD PUSH1 0xE5 SHL DUP2 MSTORE PUSH1 0x4 DUP2 ADD DUP5 SWAP1 MSTORE PUSH1 0x26 PUSH1 0x24 DUP3 ADD MSTORE PUSH32 0x4F6E6C792067726F75702063726561746F722063616E20757064617465206361 PUSH1 0x44 DUP3 ADD MSTORE PUSH6 0x7465676F7279 PUSH1 0xD0 SHL PUSH1 0x64 DUP3 ADD MSTORE PUSH1 0x84 SWAP1 REVERT JUMPDEST POP PUSH1 0x3 SLOAD DUP5 GT ISZERO PUSH2 0xD57 JUMP JUMPDEST CALLVALUE PUSH2 0x281 JUMPI PUSH1 0x80 CALLDATASIZE PUSH1 0x3 NOT ADD SLT PUSH2 0x281 JUMPI PUSH1 0x1 PUSH1 0x1 PUSH1 0x40 SHL SUB PUSH1 0x24 CALLDATALOAD DUP2 DUP2 GT PUSH2 0x281 JUMPI PUSH2 0xF93 SWAP1 CALLDATASIZE SWAP1 PUSH1 0x4 ADD PUSH2 0x242A JUMP JUMPDEST PUSH1 0x64 SWAP3 DUP4 CALLDATALOAD SWAP1 DUP1 DUP3 GT PUSH2 0x281 JUMPI CALLDATASIZE PUSH1 0x23 DUP4 ADD SLT ISZERO PUSH2 0x281 JUMPI DUP1 DUP3 PUSH1 0x4 ADD CALLDATALOAD GT PUSH2 0x281 JUMPI CALLDATASIZE PUSH1 0x24 DUP4 PUSH1 0x4 ADD CALLDATALOAD PUSH1 0x5 SHL DUP5 ADD ADD GT PUSH2 0x281 JUMPI PUSH1 0x4 CALLDATALOAD ISZERO ISZERO DUP1 PUSH2 0x159F JUMPI JUMPDEST PUSH2 0xFDD SWAP1 PUSH2 0x271D JUMP JUMPDEST PUSH1 0x4 CALLDATALOAD PUSH1 0x0 MSTORE PUSH1 0x6 PUSH1 0x20 MSTORE PUSH1 0xFF SWAP5 PUSH2 0xFFE DUP7 PUSH1 0x4 PUSH1 0x40 PUSH1 0x0 KECCAK256 ADD SLOAD AND PUSH2 0x275C JUMP JUMPDEST PUSH1 0x4 CALLDATALOAD PUSH1 0x0 MSTORE PUSH1 0xC DUP1 PUSH1 0x20 MSTORE PUSH1 0x40 PUSH1 0x0 KECCAK256 CALLER PUSH1 0x0 MSTORE PUSH1 0x20 MSTORE PUSH2 0x1026 DUP8 PUSH1 0x40 PUSH1 0x0 KECCAK256 SLOAD AND PUSH2 0x279E JUMP JUMPDEST PUSH2 0x102E PUSH2 0x26FF JUMP JUMPDEST DUP5 ISZERO PUSH2 0x155C JUMPI PUSH1 0x44 SWAP7 PUSH2 0x1043 DUP9 CALLDATALOAD ISZERO ISZERO PUSH2 0x27DF JUMP JUMPDEST DUP5 PUSH1 0x4 ADD CALLDATALOAD ISZERO PUSH2 0x1520 JUMPI PUSH1 0x4 CALLDATALOAD PUSH1 0x0 MSTORE PUSH1 0x6 PUSH1 0x20 MSTORE PUSH1 0x3 PUSH1 0x40 PUSH1 0x0 KECCAK256 ADD SLOAD DUP6 PUSH1 0x4 ADD CALLDATALOAD GT PUSH2 0x14E5 JUMPI PUSH1 0x0 JUMPDEST DUP6 PUSH1 0x4 ADD CALLDATALOAD DUP2 LT PUSH2 0x1454 JUMPI POP POP POP POP PUSH2 0x1088 PUSH1 0x4 SLOAD PUSH2 0x2648 JUMP JUMPDEST SWAP1 DUP2 PUSH1 0x4 SSTORE DUP2 PUSH1 0x0 MSTORE PUSH1 0x7 PUSH1 0x20 MSTORE PUSH1 0x40 PUSH1 0x0 KECCAK256 SWAP2 DUP3 SSTORE PUSH1 0x4 CALLDATALOAD PUSH1 0x1 DUP4 ADD SSTORE DUP4 GT PUSH2 0x7DD JUMPI PUSH2 0x10B9 PUSH1 0x2 DUP3 ADD SLOAD PUSH2 0x2518 JUMP JUMPDEST PUSH1 0x1F DUP2 GT PUSH2 0x141F JUMPI JUMPDEST POP DUP3 PUSH1 0x0 PUSH1 0x1F DUP3 GT PUSH1 0x1 EQ PUSH2 0x13B1 JUMPI PUSH1 0x0 SWAP2 PUSH2 0x13A6 JUMPI JUMPDEST POP DUP4 PUSH1 0x1 SHL SWAP1 PUSH1 0x0 NOT DUP6 PUSH1 0x3 SHL SHR NOT AND OR PUSH1 0x2 DUP3 ADD SSTORE JUMPDEST DUP5 CALLDATALOAD PUSH1 0x3 DUP3 ADD SSTORE PUSH1 0x4 DUP2 ADD CALLER PUSH1 0x1 PUSH1 0x1 PUSH1 0x60 SHL SUB PUSH1 0xA0 SHL DUP3 SLOAD AND OR SWAP1 SSTORE PUSH1 0x5 DUP2 ADD PUSH1 0x1 PUSH1 0x40 SHL DUP4 PUSH1 0x4 ADD CALLDATALOAD GT PUSH2 0x7DD JUMPI DUP1 SLOAD PUSH1 0x4 DUP5 ADD CALLDATALOAD DUP1 DUP4 SSTORE DUP2 GT PUSH2 0x1384 JUMPI JUMPDEST POP PUSH1 0x24 DUP4 ADD SWAP1 PUSH1 0x0 MSTORE PUSH1 0x20 PUSH1 0x0 KECCAK256 SWAP1 PUSH1 0x0 JUMPDEST DUP5 PUSH1 0x4 ADD CALLDATALOAD DUP2 LT PUSH2 0x1369 JUMPI POP POP POP PUSH1 0x7 DUP2 ADD PUSH1 0x1 PUSH1 0xFF NOT DUP3 SLOAD AND OR SWAP1 SSTORE PUSH1 0x8 TIMESTAMP SWAP2 ADD SSTORE PUSH2 0x1175 DUP2 PUSH1 0x4 ADD CALLDATALOAD DUP6 CALLDATALOAD PUSH2 0x284F JUMP JUMPDEST PUSH2 0x1184 DUP3 PUSH1 0x4 ADD CALLDATALOAD DUP7 CALLDATALOAD PUSH2 0x286F JUMP JUMPDEST SWAP2 CALLER PUSH1 0x0 MSTORE PUSH1 0xA PUSH1 0x20 MSTORE PUSH1 0x40 PUSH1 0x0 KECCAK256 PUSH1 0x4 CALLDATALOAD PUSH1 0x0 MSTORE PUSH1 0x20 MSTORE PUSH1 0x40 PUSH1 0x0 KECCAK256 PUSH2 0x11AD DUP8 CALLDATALOAD DUP3 SLOAD PUSH2 0x2879 JUMP JUMPDEST SWAP1 SSTORE PUSH1 0x0 JUMPDEST DUP2 PUSH1 0x4 ADD CALLDATALOAD DUP2 LT PUSH2 0x1255 JUMPI PUSH1 0x20 PUSH2 0x11FE DUP9 DUP9 PUSH32 0x7B0CA01B30804959458F2B66D8C41C1F282377133D5816D4958E9D381CA48CB8 DUP10 PUSH1 0x4 SLOAD SWAP5 DUP6 SWAP4 PUSH1 0x40 MLOAD SWAP3 PUSH1 0x60 DUP5 MSTORE PUSH1 0x60 DUP5 ADD SWAP2 PUSH2 0x26DE JUMP JUMPDEST SWAP4 CALLDATALOAD DUP7 DUP3 ADD MSTORE CALLER PUSH1 0x40 DUP3 ADD MSTORE DUP1 PUSH1 0x4 CALLDATALOAD SWAP5 SUB SWAP1 LOG3 CALLER PUSH1 0x0 DUP2 DUP2 MSTORE PUSH1 0xA DUP5 MSTORE PUSH1 0x40 DUP1 DUP3 KECCAK256 PUSH1 0x4 CALLDATALOAD DUP1 DUP5 MSTORE SWAP1 DUP7 MSTORE SWAP2 DUP2 SWAP1 KECCAK256 SLOAD DUP2 MLOAD SWAP4 DUP5 MSTORE PUSH1 0x20 DUP5 ADD MSTORE SWAP1 SWAP2 PUSH1 0x0 DUP1 MLOAD PUSH1 0x20 PUSH2 0x2B34 DUP4 CODECOPY DUP2 MLOAD SWAP2 MSTORE SWAP2 SWAP1 LOG2 PUSH1 0x40 MLOAD SWAP1 DUP2 MSTORE RETURN JUMPDEST DUP3 SWAP1 DUP5 DUP2 LT PUSH2 0x1353 JUMPI JUMPDEST PUSH1 0x1 PUSH1 0x1 PUSH1 0xA0 SHL SUB PUSH2 0x1281 PUSH2 0x127C DUP4 PUSH1 0x4 DUP8 ADD CALLDATALOAD PUSH1 0x24 DUP9 ADD PUSH2 0x282B JUMP JUMPDEST PUSH2 0x283B JUMP JUMPDEST AND PUSH1 0x0 MSTORE PUSH1 0xA PUSH1 0x20 MSTORE PUSH1 0x40 PUSH1 0x0 KECCAK256 PUSH1 0x4 CALLDATALOAD PUSH1 0x0 MSTORE PUSH1 0x20 MSTORE PUSH1 0x40 PUSH1 0x0 KECCAK256 DUP1 SLOAD SWAP3 PUSH1 0x0 DUP2 SLT DUP5 DUP3 DUP2 SUB SLT DUP2 AND SWAP1 DUP6 DUP4 DUP2 SUB SGT SWAP1 ISZERO AND OR PUSH2 0xADA JUMPI PUSH2 0x134E SWAP4 SUB SWAP1 SSTORE PUSH2 0x12D5 PUSH2 0x127C DUP3 DUP6 PUSH1 0x4 ADD CALLDATALOAD PUSH1 0x24 DUP8 ADD PUSH2 0x282B JUMP JUMPDEST PUSH1 0x1 PUSH1 0x1 PUSH1 0xA0 SHL SUB PUSH2 0x12F2 PUSH2 0x127C DUP5 PUSH1 0x4 DUP9 ADD CALLDATALOAD PUSH1 0x24 DUP10 ADD PUSH2 0x282B JUMP JUMPDEST AND PUSH1 0x0 MSTORE PUSH1 0xA PUSH1 0x20 MSTORE PUSH1 0x40 PUSH1 0x0 KECCAK256 PUSH1 0x4 CALLDATALOAD PUSH1 0x0 MSTORE PUSH1 0x20 MSTORE PUSH1 0x0 DUP1 MLOAD PUSH1 0x20 PUSH2 0x2B34 DUP4 CODECOPY DUP2 MLOAD SWAP2 MSTORE PUSH2 0x1346 PUSH1 0x40 PUSH1 0x0 KECCAK256 SLOAD PUSH1 0x40 MLOAD SWAP2 DUP3 SWAP2 PUSH1 0x4 CALLDATALOAD SWAP6 DUP4 PUSH1 0x20 SWAP1 SWAP4 SWAP3 SWAP2 SWAP4 PUSH1 0x40 DUP2 ADD SWAP5 PUSH1 0x1 DUP1 PUSH1 0xA0 SHL SUB AND DUP2 MSTORE ADD MSTORE JUMP JUMPDEST SUB SWAP1 LOG2 PUSH2 0x2648 JUMP JUMPDEST PUSH2 0x11B2 JUMP JUMPDEST SWAP1 POP PUSH1 0x1 DUP4 ADD DUP4 GT PUSH2 0xADA JUMPI PUSH1 0x1 DUP4 ADD SWAP1 PUSH2 0x125F JUMP JUMPDEST PUSH1 0x1 SWAP1 PUSH1 0x20 PUSH2 0x1377 DUP5 PUSH2 0x283B JUMP JUMPDEST SWAP4 ADD SWAP3 DUP2 DUP6 ADD SSTORE ADD PUSH2 0x1143 JUMP JUMPDEST PUSH2 0x13A0 SWAP1 DUP3 PUSH1 0x0 MSTORE PUSH1 0x20 PUSH1 0x0 KECCAK256 SWAP1 DUP2 ADD SWAP1 DUP6 PUSH1 0x4 ADD CALLDATALOAD ADD PUSH2 0x2657 JUMP JUMPDEST DUP7 PUSH2 0x1131 JUMP JUMPDEST SWAP1 POP DUP5 ADD CALLDATALOAD DUP7 PUSH2 0x10D9 JUMP JUMPDEST SWAP1 POP PUSH1 0x2 DUP3 ADD PUSH1 0x0 MSTORE PUSH1 0x20 PUSH1 0x0 KECCAK256 SWAP1 PUSH1 0x0 JUMPDEST PUSH1 0x1F NOT DUP7 AND DUP2 LT PUSH2 0x1407 JUMPI POP DUP5 PUSH1 0x1F NOT DUP2 AND LT PUSH2 0x13ED JUMPI JUMPDEST POP POP PUSH1 0x1 DUP4 DUP2 SHL ADD PUSH1 0x2 DUP3 ADD SSTORE PUSH2 0x10F0 JUMP JUMPDEST DUP6 ADD CALLDATALOAD PUSH1 0x0 NOT PUSH1 0x3 DUP7 SWAP1 SHL PUSH1 0xF8 AND SHR NOT AND SWAP1 SSTORE DUP6 DUP1 PUSH2 0x13DB JUMP JUMPDEST SWAP1 SWAP2 PUSH1 0x20 PUSH1 0x1 DUP2 SWAP3 DUP6 DUP11 ADD CALLDATALOAD DUP2 SSTORE ADD SWAP4 ADD SWAP2 ADD PUSH2 0x13C3 JUMP JUMPDEST PUSH2 0x144E SWAP1 PUSH1 0x2 DUP4 ADD PUSH1 0x0 MSTORE PUSH1 0x20 PUSH1 0x0 KECCAK256 PUSH1 0x1F DUP7 ADD PUSH1 0x5 SHR DUP2 ADD SWAP2 PUSH1 0x20 DUP8 LT PUSH2 0x7D3 JUMPI PUSH1 0x1F ADD PUSH1 0x5 SHR ADD SWAP1 PUSH2 0x2657 JUMP JUMPDEST DUP6 PUSH2 0x10C2 JUMP JUMPDEST PUSH2 0x1469 PUSH2 0x127C DUP3 DUP9 PUSH1 0x4 ADD CALLDATALOAD PUSH1 0x24 DUP11 ADD PUSH2 0x282B JUMP JUMPDEST PUSH1 0x4 CALLDATALOAD PUSH1 0x0 MSTORE DUP4 PUSH1 0x20 MSTORE PUSH1 0x40 PUSH1 0x0 KECCAK256 SWAP1 PUSH1 0x1 DUP1 PUSH1 0xA0 SHL SUB AND PUSH1 0x0 MSTORE PUSH1 0x20 MSTORE DUP2 PUSH1 0x40 PUSH1 0x0 KECCAK256 SLOAD AND ISZERO PUSH2 0x14A2 JUMPI PUSH2 0x149D SWAP1 PUSH2 0x2648 JUMP JUMPDEST PUSH2 0x106E JUMP JUMPDEST PUSH1 0x40 MLOAD PUSH3 0x461BCD PUSH1 0xE5 SHL DUP2 MSTORE PUSH1 0x20 PUSH1 0x4 DUP3 ADD MSTORE PUSH1 0x18 PUSH1 0x24 DUP3 ADD MSTORE PUSH32 0x5061727469636970616E74206E6F7420696E2067726F75700000000000000000 DUP2 DUP12 ADD MSTORE DUP5 SWAP1 REVERT JUMPDEST PUSH1 0x40 MLOAD PUSH3 0x461BCD PUSH1 0xE5 SHL DUP2 MSTORE PUSH1 0x20 PUSH1 0x4 DUP3 ADD MSTORE PUSH1 0x15 PUSH1 0x24 DUP3 ADD MSTORE PUSH21 0x546F6F206D616E79207061727469636970616E7473 PUSH1 0x58 SHL DUP2 DUP11 ADD MSTORE DUP4 SWAP1 REVERT JUMPDEST PUSH1 0x40 MLOAD PUSH3 0x461BCD PUSH1 0xE5 SHL DUP2 MSTORE PUSH1 0x20 PUSH1 0x4 DUP3 ADD MSTORE PUSH1 0x16 PUSH1 0x24 DUP3 ADD MSTORE PUSH22 0x4D7573742068617665207061727469636970616E7473 PUSH1 0x50 SHL DUP2 DUP11 ADD MSTORE DUP4 SWAP1 REVERT JUMPDEST POP PUSH1 0x40 MLOAD PUSH3 0x461BCD PUSH1 0xE5 SHL DUP2 MSTORE PUSH1 0x20 PUSH1 0x4 DUP3 ADD MSTORE PUSH1 0x1B PUSH1 0x24 DUP3 ADD MSTORE PUSH32 0x4465736372697074696F6E2063616E6E6F7420626520656D7074790000000000 PUSH1 0x44 DUP3 ADD MSTORE REVERT JUMPDEST POP PUSH1 0x3 SLOAD PUSH1 0x4 CALLDATALOAD GT ISZERO PUSH2 0xFD4 JUMP JUMPDEST CALLVALUE PUSH2 0x281 JUMPI PUSH1 0x20 CALLDATASIZE PUSH1 0x3 NOT ADD SLT PUSH2 0x281 JUMPI PUSH1 0x4 CALLDATALOAD PUSH1 0x0 MSTORE PUSH1 0x6 PUSH1 0x20 MSTORE PUSH1 0x40 PUSH1 0x0 KECCAK256 DUP1 SLOAD PUSH2 0x15DC PUSH1 0x1 DUP4 ADD PUSH2 0x2573 JUMP JUMPDEST SWAP2 PUSH2 0x1648 PUSH1 0x1 DUP1 PUSH1 0xA0 SHL SUB PUSH1 0x2 DUP4 ADD SLOAD AND PUSH1 0xFF PUSH1 0x4 DUP5 ADD SLOAD AND SWAP3 PUSH1 0x5 DUP2 ADD SLOAD PUSH1 0x7 PUSH2 0x1609 PUSH1 0x6 DUP5 ADD PUSH2 0x2573 JUMP JUMPDEST SWAP3 ADD SLOAD SWAP5 PUSH2 0x1629 PUSH1 0x40 MLOAD SWAP9 DUP10 SWAP9 DUP10 MSTORE PUSH1 0xE0 PUSH1 0x20 DUP11 ADD MSTORE PUSH1 0xE0 DUP10 ADD SWAP1 PUSH2 0x2485 JUMP JUMPDEST SWAP4 PUSH1 0x40 DUP9 ADD MSTORE ISZERO ISZERO PUSH1 0x60 DUP8 ADD MSTORE PUSH1 0x80 DUP7 ADD MSTORE DUP5 DUP3 SUB PUSH1 0xA0 DUP7 ADD MSTORE PUSH2 0x2485 JUMP JUMPDEST SWAP1 PUSH1 0xC0 DUP4 ADD MSTORE SUB SWAP1 RETURN JUMPDEST CALLVALUE PUSH2 0x281 JUMPI PUSH1 0x0 CALLDATASIZE PUSH1 0x3 NOT ADD SLT PUSH2 0x281 JUMPI PUSH1 0x1 SLOAD PUSH1 0x40 MLOAD PUSH1 0x8 SWAP2 SWAP1 SWAP2 SHR PUSH1 0x1 PUSH1 0x1 PUSH1 0xA0 SHL SUB AND DUP2 MSTORE PUSH1 0x20 SWAP1 RETURN JUMPDEST CALLVALUE PUSH2 0x281 JUMPI PUSH1 0x0 CALLDATASIZE PUSH1 0x3 NOT ADD SLT PUSH2 0x281 JUMPI PUSH1 0x20 PUSH1 0x5 SLOAD PUSH1 0x40 MLOAD SWAP1 DUP2 MSTORE RETURN JUMPDEST CALLVALUE PUSH2 0x281 JUMPI PUSH1 0x0 CALLDATASIZE PUSH1 0x3 NOT ADD SLT PUSH2 0x281 JUMPI PUSH2 0x16B6 PUSH2 0x2619 JUMP JUMPDEST PUSH2 0x16BE PUSH2 0x26FF JUMP JUMPDEST PUSH1 0x1 PUSH1 0xFF NOT DUP2 SLOAD AND OR PUSH1 0x1 SSTORE PUSH32 0x62E78CEA01BEE320CD4E420270B5EA74000D11B0C9F74754EBDBFC544B05A258 PUSH1 0x20 PUSH1 0x40 MLOAD CALLER DUP2 MSTORE LOG1 STOP JUMPDEST CALLVALUE PUSH2 0x281 JUMPI PUSH1 0x20 CALLDATASIZE PUSH1 0x3 NOT ADD SLT PUSH2 0x281 JUMPI PUSH2 0x170F PUSH2 0x2414 JUMP JUMPDEST PUSH2 0x1717 PUSH2 0x2619 JUMP JUMPDEST PUSH1 0x1 PUSH1 0x1 PUSH1 0xA0 SHL SUB AND DUP1 ISZERO PUSH2 0x173E JUMPI PUSH1 0x1 PUSH1 0x1 PUSH1 0x60 SHL SUB PUSH1 0xA0 SHL PUSH1 0x2 SLOAD AND OR PUSH1 0x2 SSTORE PUSH1 0x0 DUP1 RETURN JUMPDEST PUSH1 0x40 MLOAD PUSH3 0x461BCD PUSH1 0xE5 SHL DUP2 MSTORE PUSH1 0x20 PUSH1 0x4 DUP3 ADD MSTORE PUSH1 0x15 PUSH1 0x24 DUP3 ADD MSTORE PUSH21 0x496E76616C696420746F6B656E2061646472657373 PUSH1 0x58 SHL PUSH1 0x44 DUP3 ADD MSTORE PUSH1 0x64 SWAP1 REVERT JUMPDEST CALLVALUE PUSH2 0x281 JUMPI PUSH2 0x1789 CALLDATASIZE PUSH2 0x2502 JUMP JUMPDEST SWAP1 PUSH2 0x1792 PUSH2 0x294C JUMP JUMPDEST PUSH2 0x179A PUSH2 0x26FF JUMP JUMPDEST DUP1 ISZERO ISZERO DUP1 PUSH2 0x1BDA JUMPI JUMPDEST ISZERO PUSH2 0x1BA0 JUMPI PUSH2 0x17B3 DUP3 ISZERO ISZERO PUSH2 0x27DF JUMP JUMPDEST DUP1 PUSH1 0x0 MSTORE PUSH1 0x7 PUSH1 0x20 MSTORE PUSH1 0x40 PUSH1 0x0 KECCAK256 PUSH1 0xFF PUSH1 0x7 DUP3 ADD SLOAD AND ISZERO PUSH2 0x1B66 JUMPI PUSH1 0x6 DUP2 ADD SWAP2 CALLER PUSH1 0x0 MSTORE DUP3 PUSH1 0x20 MSTORE PUSH1 0xFF PUSH1 0x40 PUSH1 0x0 KECCAK256 SLOAD AND PUSH2 0x1B2F JUMPI PUSH1 0x1 DUP3 ADD SLOAD SWAP4 DUP5 PUSH1 0x0 MSTORE PUSH1 0xC PUSH1 0x20 MSTORE PUSH1 0x40 PUSH1 0x0 KECCAK256 CALLER PUSH1 0x0 MSTORE PUSH1 0x20 MSTORE PUSH2 0x1814 PUSH1 0xFF PUSH1 0x40 PUSH1 0x0 KECCAK256 SLOAD AND PUSH2 0x279E JUMP JUMPDEST PUSH1 0x3 DUP4 ADD SLOAD SWAP4 PUSH1 0x5 DUP5 ADD SWAP5 DUP6 SLOAD SWAP6 PUSH2 0x1836 DUP8 PUSH2 0x1830 DUP2 DUP6 PUSH2 0x284F JUMP JUMPDEST SWAP4 PUSH2 0x286F JUMP JUMPDEST PUSH1 0x0 JUMPDEST DUP9 DUP2 LT DUP1 PUSH2 0x1B26 JUMPI JUMPDEST ISZERO PUSH2 0x1B18 JUMPI PUSH2 0x1851 DUP2 DUP5 PUSH2 0x2457 JUMP JUMPDEST SWAP1 SLOAD PUSH1 0x3 SWAP2 SWAP1 SWAP2 SHL SHR PUSH1 0x1 PUSH1 0x1 PUSH1 0xA0 SHL SUB AND CALLER EQ PUSH2 0x1877 JUMPI PUSH2 0x1872 SWAP1 PUSH2 0x2648 JUMP JUMPDEST PUSH2 0x1839 JUMP JUMPDEST POP POP POP SWAP1 SWAP2 SWAP3 SWAP4 SWAP5 POP PUSH1 0x1 DUP2 ADD DUP1 SWAP2 GT PUSH2 0xADA JUMPI JUMPDEST DUP3 LT PUSH2 0x1AD3 JUMPI PUSH1 0x2 SLOAD PUSH2 0x18AD SWAP1 DUP4 SWAP1 ADDRESS SWAP1 CALLER SWAP1 PUSH1 0x1 PUSH1 0x1 PUSH1 0xA0 SHL SUB AND PUSH2 0x28A2 JUMP JUMPDEST CALLER PUSH1 0x0 MSTORE PUSH1 0x20 MSTORE PUSH1 0x40 PUSH1 0x0 KECCAK256 PUSH1 0x1 PUSH1 0xFF NOT DUP3 SLOAD AND OR SWAP1 SSTORE PUSH1 0xA PUSH1 0x20 MSTORE PUSH1 0x40 PUSH1 0x0 KECCAK256 DUP5 PUSH1 0x0 MSTORE PUSH1 0x20 MSTORE PUSH1 0x40 PUSH1 0x0 KECCAK256 PUSH2 0x18E5 DUP3 DUP3 SLOAD PUSH2 0x2879 JUMP JUMPDEST SWAP1 SSTORE PUSH1 0x1 DUP1 PUSH1 0xA0 SHL SUB PUSH1 0x4 DUP5 ADD SLOAD AND PUSH1 0x0 MSTORE PUSH1 0xB PUSH1 0x20 MSTORE PUSH1 0x40 PUSH1 0x0 KECCAK256 PUSH2 0x190C DUP3 DUP3 SLOAD PUSH2 0x2895 JUMP JUMPDEST SWAP1 SSTORE PUSH2 0x1919 PUSH1 0x5 SLOAD PUSH2 0x2648 JUMP JUMPDEST SWAP2 DUP3 PUSH1 0x5 SSTORE PUSH1 0x1 DUP1 PUSH1 0xA0 SHL SUB PUSH1 0x4 DUP6 ADD SLOAD AND PUSH1 0x40 MLOAD SWAP1 PUSH1 0x20 DUP3 ADD DUP4 DUP2 MSTORE PUSH1 0x20 DUP4 MSTORE PUSH1 0x1 PUSH1 0x1 PUSH1 0x40 SHL SUB SWAP1 DUP4 PUSH1 0x40 DUP2 ADD LT DUP3 PUSH1 0x40 DUP7 ADD GT OR PUSH2 0x7DD JUMPI PUSH1 0x40 DUP5 ADD PUSH1 0x40 MSTORE DUP4 MLOAD SWAP1 KECCAK256 SWAP1 PUSH1 0x40 DUP5 ADD PUSH2 0x120 DUP6 ADD LT SWAP1 PUSH2 0x120 DUP6 ADD GT OR PUSH2 0x7DD JUMPI PUSH2 0x120 DUP4 ADD PUSH1 0x40 SWAP1 DUP2 MSTORE DUP1 DUP5 ADD DUP8 DUP2 MSTORE PUSH1 0x60 DUP6 ADD DUP11 DUP2 MSTORE CALLER PUSH1 0x80 DUP8 ADD DUP2 DUP2 MSTORE PUSH1 0xA0 DUP9 ADD SWAP7 DUP8 MSTORE PUSH1 0xC0 DUP9 ADD DUP11 DUP2 MSTORE TIMESTAMP PUSH1 0xE0 DUP11 ADD SWAP1 DUP2 MSTORE PUSH2 0x100 SWAP1 SWAP10 ADD SWAP7 DUP8 MSTORE PUSH1 0x0 SWAP12 DUP13 MSTORE PUSH1 0x8 PUSH1 0x20 SWAP1 DUP2 MSTORE SWAP12 DUP7 SWAP1 KECCAK256 SWAP5 MLOAD DUP6 SSTORE SWAP3 MLOAD PUSH1 0x1 DUP6 ADD SSTORE MLOAD PUSH1 0x2 DUP5 ADD DUP1 SLOAD PUSH1 0x1 PUSH1 0x1 PUSH1 0xA0 SHL SUB NOT SWAP1 DUP2 AND PUSH1 0x1 PUSH1 0x1 PUSH1 0xA0 SHL SUB SWAP4 DUP5 AND OR SWAP1 SWAP2 SSTORE SWAP7 MLOAD PUSH1 0x3 DUP6 ADD DUP1 SLOAD SWAP1 SWAP9 AND SWAP2 AND OR SWAP1 SWAP6 SSTORE MLOAD PUSH1 0x4 DUP3 ADD SSTORE SWAP4 MLOAD PUSH1 0x5 DUP6 ADD SSTORE SWAP1 MLOAD PUSH1 0x6 SWAP1 SWAP4 ADD SWAP3 SWAP1 SWAP3 SSTORE DUP2 MLOAD SWAP1 DUP2 MSTORE SWAP4 DUP5 ADD DUP4 SWAP1 MSTORE PUSH32 0xAF85B528F86F95883C3D86EEF185680424986ED79E7BB3B7362E5D88A247A271 SWAP4 PUSH32 0xBC779EACFE67DDE2CE8CCA0C2DCC5FA918C50CDE558C1325A0324C4238B4DD55 SWAP2 SWAP1 LOG2 PUSH1 0x5 SLOAD PUSH1 0x4 SWAP4 SWAP1 SWAP4 ADD SLOAD PUSH1 0x40 DUP1 MLOAD CALLER DUP2 MSTORE PUSH1 0x1 PUSH1 0x1 PUSH1 0xA0 SHL SUB SWAP1 SWAP3 AND PUSH1 0x20 DUP4 ADD MSTORE DUP2 ADD SWAP2 SWAP1 SWAP2 MSTORE PUSH1 0x60 SWAP1 LOG2 CALLER PUSH1 0x0 DUP2 DUP2 MSTORE PUSH1 0xA PUSH1 0x20 SWAP1 DUP2 MSTORE PUSH1 0x40 DUP1 DUP4 KECCAK256 DUP6 DUP5 MSTORE DUP3 MSTORE SWAP2 DUP3 SWAP1 KECCAK256 SLOAD DUP3 MLOAD SWAP4 DUP5 MSTORE SWAP1 DUP4 ADD MSTORE PUSH1 0x0 DUP1 MLOAD PUSH1 0x20 PUSH2 0x2B34 DUP4 CODECOPY DUP2 MLOAD SWAP2 MSTORE SWAP2 LOG2 PUSH1 0x1 PUSH1 0x0 SSTORE STOP JUMPDEST PUSH1 0x40 MLOAD PUSH3 0x461BCD PUSH1 0xE5 SHL DUP2 MSTORE PUSH1 0x20 PUSH1 0x4 DUP3 ADD MSTORE PUSH1 0x1E PUSH1 0x24 DUP3 ADD MSTORE PUSH32 0x496E73756666696369656E7420736574746C656D656E7420616D6F756E740000 PUSH1 0x44 DUP3 ADD MSTORE PUSH1 0x64 SWAP1 REVERT JUMPDEST POP POP POP SWAP1 SWAP2 SWAP3 SWAP4 SWAP5 POP PUSH2 0x188C JUMP JUMPDEST POP DUP2 DUP2 LT PUSH2 0x1842 JUMP JUMPDEST PUSH1 0x40 MLOAD PUSH3 0x461BCD PUSH1 0xE5 SHL DUP2 MSTORE PUSH1 0x20 PUSH1 0x4 DUP3 ADD MSTORE PUSH1 0xF PUSH1 0x24 DUP3 ADD MSTORE PUSH15 0x105B1C9958591E481CD95D1D1B1959 PUSH1 0x8A SHL PUSH1 0x44 DUP3 ADD MSTORE PUSH1 0x64 SWAP1 REVERT JUMPDEST PUSH1 0x40 MLOAD PUSH3 0x461BCD PUSH1 0xE5 SHL DUP2 MSTORE PUSH1 0x20 PUSH1 0x4 DUP3 ADD MSTORE PUSH1 0x12 PUSH1 0x24 DUP3 ADD MSTORE PUSH18 0x457870656E7365206E6F7420616374697665 PUSH1 0x70 SHL PUSH1 0x44 DUP3 ADD MSTORE PUSH1 0x64 SWAP1 REVERT JUMPDEST PUSH1 0x40 MLOAD PUSH3 0x461BCD PUSH1 0xE5 SHL DUP2 MSTORE PUSH1 0x20 PUSH1 0x4 DUP3 ADD MSTORE PUSH1 0x12 PUSH1 0x24 DUP3 ADD MSTORE PUSH18 0x125B9D985B1A5908195E1C195B9CD9481251 PUSH1 0x72 SHL PUSH1 0x44 DUP3 ADD MSTORE PUSH1 0x64 SWAP1 REVERT JUMPDEST POP PUSH1 0x4 SLOAD DUP2 GT ISZERO PUSH2 0x17A3 JUMP JUMPDEST CALLVALUE PUSH2 0x281 JUMPI PUSH1 0x20 CALLDATASIZE PUSH1 0x3 NOT ADD SLT PUSH2 0x281 JUMPI PUSH1 0x4 CALLDATALOAD PUSH1 0x0 MSTORE PUSH1 0x7 PUSH1 0x20 MSTORE PUSH1 0x40 PUSH1 0x0 KECCAK256 DUP1 SLOAD PUSH1 0x1 DUP3 ADD SLOAD SWAP2 PUSH1 0x3 DUP2 ADD SLOAD PUSH2 0x1C86 PUSH1 0x1 DUP1 PUSH1 0xA0 SHL SUB PUSH1 0x4 DUP5 ADD SLOAD AND SWAP2 PUSH1 0xFF PUSH1 0x7 DUP6 ADD SLOAD AND SWAP4 PUSH1 0x8 DUP2 ADD SLOAD SWAP4 PUSH2 0x1C6E PUSH2 0x1C4F PUSH1 0x5 PUSH2 0x1C48 PUSH1 0x2 DUP7 ADD PUSH2 0x2573 JUMP JUMPDEST SWAP5 ADD PUSH2 0x296F JUMP JUMPDEST SWAP3 PUSH1 0x40 MLOAD SWAP10 DUP11 SWAP10 DUP11 MSTORE PUSH1 0x20 DUP11 ADD MSTORE PUSH2 0x100 DUP1 PUSH1 0x40 DUP12 ADD MSTORE DUP10 ADD SWAP1 PUSH2 0x2485 JUMP JUMPDEST SWAP3 PUSH1 0x60 DUP9 ADD MSTORE PUSH1 0x80 DUP8 ADD MSTORE DUP6 DUP3 SUB PUSH1 0xA0 DUP8 ADD MSTORE PUSH2 0x24C5 JUMP JUMPDEST SWAP2 ISZERO ISZERO PUSH1 0xC0 DUP5 ADD MSTORE PUSH1 0xE0 DUP4 ADD MSTORE SUB SWAP1 RETURN JUMPDEST CALLVALUE PUSH2 0x281 JUMPI PUSH1 0x40 CALLDATASIZE PUSH1 0x3 NOT ADD SLT PUSH2 0x281 JUMPI PUSH1 0x4 CALLDATALOAD PUSH2 0x1CB3 PUSH2 0x23FE JUMP JUMPDEST DUP2 PUSH1 0x0 MSTORE PUSH1 0x20 SWAP2 PUSH1 0xC DUP4 MSTORE PUSH1 0x40 PUSH1 0x0 KECCAK256 SWAP2 PUSH1 0x1 DUP1 PUSH1 0xA0 SHL SUB AND SWAP2 DUP3 PUSH1 0x0 MSTORE DUP4 MSTORE PUSH2 0x1CE4 PUSH1 0xFF PUSH1 0x40 PUSH1 0x0 KECCAK256 SLOAD AND PUSH2 0x279E JUMP JUMPDEST PUSH1 0x0 MSTORE PUSH1 0x6 DUP3 MSTORE PUSH1 0x8 PUSH1 0x40 PUSH1 0x0 KECCAK256 ADD SWAP1 PUSH1 0x0 MSTORE DUP2 MSTORE PUSH2 0x1D06 PUSH1 0x40 PUSH1 0x0 KECCAK256 PUSH2 0x2573 JUMP JUMPDEST SWAP1 PUSH2 0x1D1B PUSH1 0x40 MLOAD SWAP3 DUP3 DUP5 SWAP4 DUP5 MSTORE DUP4 ADD SWAP1 PUSH2 0x2485 JUMP JUMPDEST SUB SWAP1 RETURN JUMPDEST CALLVALUE PUSH2 0x281 JUMPI PUSH1 0x0 CALLDATASIZE PUSH1 0x3 NOT ADD SLT PUSH2 0x281 JUMPI PUSH2 0x1D38 PUSH2 0x2619 JUMP JUMPDEST PUSH1 0x1 DUP1 SLOAD PUSH2 0x100 PUSH1 0x1 PUSH1 0xA8 SHL SUB NOT DUP2 AND SWAP1 SWAP2 SSTORE PUSH1 0x0 SWAP1 PUSH1 0x8 SHR PUSH1 0x1 PUSH1 0x1 PUSH1 0xA0 SHL SUB AND PUSH32 0x8BE0079C531659141344CD1FD0A4F28419497F9722A3DAAFE3B4186F6B6457E0 DUP3 DUP1 LOG3 STOP JUMPDEST CALLVALUE PUSH2 0x281 JUMPI PUSH1 0x40 CALLDATASIZE PUSH1 0x3 NOT ADD SLT PUSH2 0x281 JUMPI PUSH2 0x1D99 PUSH2 0x2414 JUMP JUMPDEST PUSH1 0x1 PUSH1 0x1 PUSH1 0xA0 SHL SUB AND PUSH1 0x0 SWAP1 DUP2 MSTORE PUSH1 0x9 PUSH1 0x20 MSTORE PUSH1 0x40 SWAP1 KECCAK256 DUP1 SLOAD PUSH1 0x24 CALLDATALOAD SWAP2 SWAP1 DUP3 LT ISZERO PUSH2 0x281 JUMPI PUSH1 0x20 SWAP2 PUSH2 0x1DCA SWAP2 PUSH2 0x2457 JUMP JUMPDEST SWAP1 SLOAD PUSH1 0x40 MLOAD SWAP2 PUSH1 0x3 SHL SHR DUP2 MSTORE RETURN JUMPDEST CALLVALUE PUSH2 0x281 JUMPI PUSH1 0x0 CALLDATASIZE PUSH1 0x3 NOT ADD SLT PUSH2 0x281 JUMPI PUSH1 0x20 PUSH1 0xFF PUSH1 0x1 SLOAD AND PUSH1 0x40 MLOAD SWAP1 ISZERO ISZERO DUP2 MSTORE RETURN JUMPDEST CALLVALUE PUSH2 0x281 JUMPI PUSH1 0x0 CALLDATASIZE PUSH1 0x3 NOT ADD SLT PUSH2 0x281 JUMPI PUSH2 0x1E14 PUSH2 0x2619 JUMP JUMPDEST PUSH1 0x1 SLOAD PUSH1 0xFF DUP2 AND ISZERO PUSH2 0x1E53 JUMPI PUSH1 0xFF NOT AND PUSH1 0x1 SSTORE PUSH32 0x5DB9EE0A495BF2E6FF9C91A7834C1BA4FDD244A5E8AA4E537BD38AEAE4B073AA PUSH1 0x20 PUSH1 0x40 MLOAD CALLER DUP2 MSTORE LOG1 STOP JUMPDEST PUSH1 0x40 MLOAD PUSH4 0x8DFC202B PUSH1 0xE0 SHL DUP2 MSTORE PUSH1 0x4 SWAP1 REVERT JUMPDEST CALLVALUE PUSH2 0x281 JUMPI PUSH1 0x20 DUP1 PUSH1 0x3 NOT CALLDATASIZE ADD SLT PUSH2 0x281 JUMPI PUSH1 0x1 PUSH1 0x1 PUSH1 0xA0 SHL SUB PUSH2 0x1E87 PUSH2 0x2414 JUMP JUMPDEST AND PUSH1 0x0 MSTORE PUSH1 0x9 DUP2 MSTORE PUSH1 0x40 PUSH1 0x0 KECCAK256 PUSH1 0x40 MLOAD SWAP1 DUP2 DUP4 DUP3 SLOAD SWAP2 DUP3 DUP2 MSTORE ADD SWAP1 DUP2 SWAP3 PUSH1 0x0 MSTORE DUP5 PUSH1 0x0 KECCAK256 SWAP1 PUSH1 0x0 JUMPDEST DUP7 DUP3 DUP3 LT PUSH2 0x1F05 JUMPI DUP7 DUP7 PUSH2 0x1EC5 DUP3 DUP9 SUB DUP4 PUSH2 0x2552 JUMP JUMPDEST PUSH1 0x40 MLOAD SWAP3 DUP4 SWAP3 DUP2 DUP5 ADD SWAP1 DUP3 DUP6 MSTORE MLOAD DUP1 SWAP2 MSTORE PUSH1 0x40 DUP5 ADD SWAP3 SWAP2 PUSH1 0x0 JUMPDEST DUP3 DUP2 LT PUSH2 0x1EEE JUMPI POP POP POP POP SUB SWAP1 RETURN JUMPDEST DUP4 MLOAD DUP6 MSTORE DUP7 SWAP6 POP SWAP4 DUP2 ADD SWAP4 SWAP3 DUP2 ADD SWAP3 PUSH1 0x1 ADD PUSH2 0x1EDF JUMP JUMPDEST DUP4 SLOAD DUP6 MSTORE SWAP1 SWAP4 ADD SWAP3 PUSH1 0x1 SWAP3 DUP4 ADD SWAP3 ADD PUSH2 0x1EAF JUMP JUMPDEST CALLVALUE PUSH2 0x281 JUMPI PUSH1 0x0 CALLDATASIZE PUSH1 0x3 NOT ADD SLT PUSH2 0x281 JUMPI PUSH2 0x1F32 PUSH2 0x294C JUMP JUMPDEST CALLER PUSH1 0x0 MSTORE PUSH1 0xB PUSH1 0x20 MSTORE PUSH1 0x40 PUSH1 0x0 KECCAK256 SLOAD DUP1 ISZERO PUSH2 0x1FB1 JUMPI CALLER PUSH1 0x0 DUP2 DUP2 MSTORE PUSH1 0xB PUSH1 0x20 SWAP1 DUP2 MSTORE PUSH1 0x40 DUP1 DUP4 KECCAK256 SWAP3 SWAP1 SWAP3 SSTORE PUSH1 0x2 SLOAD SWAP2 MLOAD PUSH4 0xA9059CBB PUSH1 0xE0 SHL SWAP2 DUP2 ADD SWAP2 SWAP1 SWAP2 MSTORE PUSH1 0x24 DUP2 ADD SWAP3 SWAP1 SWAP3 MSTORE PUSH1 0x44 DUP3 ADD SWAP3 SWAP1 SWAP3 MSTORE PUSH2 0x1FAA SWAP2 PUSH1 0x1 PUSH1 0x1 PUSH1 0xA0 SHL SUB AND PUSH2 0x1FA5 DUP3 PUSH1 0x64 DUP2 ADD JUMPDEST SUB PUSH1 0x1F NOT DUP2 ADD DUP5 MSTORE DUP4 PUSH2 0x2552 JUMP JUMPDEST PUSH2 0x28E4 JUMP JUMPDEST PUSH1 0x1 PUSH1 0x0 SSTORE STOP JUMPDEST PUSH1 0x40 MLOAD PUSH3 0x461BCD PUSH1 0xE5 SHL DUP2 MSTORE PUSH1 0x20 PUSH1 0x4 DUP3 ADD MSTORE PUSH1 0x14 PUSH1 0x24 DUP3 ADD MSTORE PUSH20 0x4E6F2066756E647320746F207769746864726177 PUSH1 0x60 SHL PUSH1 0x44 DUP3 ADD MSTORE PUSH1 0x64 SWAP1 REVERT JUMPDEST CALLVALUE PUSH2 0x281 JUMPI PUSH1 0x20 CALLDATASIZE PUSH1 0x3 NOT ADD SLT PUSH2 0x281 JUMPI PUSH1 0x1 PUSH1 0x1 PUSH1 0xA0 SHL SUB PUSH2 0x200E PUSH2 0x2414 JUMP JUMPDEST AND PUSH1 0x0 MSTORE PUSH1 0xB PUSH1 0x20 MSTORE PUSH1 0x20 PUSH1 0x40 PUSH1 0x0 KECCAK256 SLOAD PUSH1 0x40 MLOAD SWAP1 DUP2 MSTORE RETURN JUMPDEST CALLVALUE PUSH2 0x281 JUMPI PUSH1 0x60 CALLDATASIZE PUSH1 0x3 NOT ADD SLT PUSH2 0x281 JUMPI PUSH1 0x4 CALLDATALOAD PUSH2 0x2043 PUSH2 0x23FE JUMP JUMPDEST SWAP1 PUSH1 0x1 PUSH1 0x1 PUSH1 0x40 SHL SUB PUSH1 0x44 CALLDATALOAD DUP2 DUP2 GT PUSH2 0x281 JUMPI PUSH2 0x2064 SWAP1 CALLDATASIZE SWAP1 PUSH1 0x4 ADD PUSH2 0x242A JUMP JUMPDEST SWAP4 SWAP1 SWAP2 DUP4 ISZERO ISZERO DUP1 PUSH2 0x2354 JUMPI JUMPDEST PUSH2 0x2079 SWAP1 PUSH2 0x271D JUMP JUMPDEST DUP4 PUSH1 0x0 MSTORE PUSH1 0x20 SWAP3 PUSH1 0x6 DUP5 MSTORE PUSH2 0x2098 PUSH1 0xFF PUSH1 0x4 PUSH1 0x40 PUSH1 0x0 KECCAK256 ADD SLOAD AND PUSH2 0x275C JUMP JUMPDEST PUSH2 0x20A0 PUSH2 0x26FF JUMP JUMPDEST PUSH1 0x0 DUP6 DUP2 MSTORE PUSH1 0x6 DUP6 MSTORE PUSH1 0x40 SWAP1 KECCAK256 PUSH1 0x2 ADD SLOAD PUSH1 0x1 PUSH1 0x1 PUSH1 0xA0 SHL SUB SWAP1 DUP2 AND CALLER SUB PUSH2 0x2304 JUMPI DUP4 AND SWAP3 DUP4 ISZERO PUSH2 0x22C6 JUMPI DUP6 PUSH1 0x0 MSTORE PUSH1 0xC DUP6 MSTORE PUSH1 0x40 PUSH1 0x0 KECCAK256 DUP5 PUSH1 0x0 MSTORE DUP6 MSTORE PUSH1 0xFF PUSH1 0x40 PUSH1 0x0 KECCAK256 SLOAD AND PUSH2 0x228E JUMPI PUSH2 0x2104 SWAP1 DUP7 PUSH1 0x0 MSTORE PUSH1 0x6 DUP7 MSTORE PUSH1 0x3 PUSH1 0x40 PUSH1 0x0 KECCAK256 ADD PUSH2 0x266E JUMP JUMPDEST DUP3 PUSH1 0x0 MSTORE PUSH1 0x9 DUP5 MSTORE PUSH2 0x211A DUP6 PUSH1 0x40 PUSH1 0x0 KECCAK256 PUSH2 0x26A9 JUMP JUMPDEST DUP5 PUSH1 0x0 MSTORE PUSH1 0xC DUP5 MSTORE PUSH1 0x40 PUSH1 0x0 KECCAK256 DUP4 PUSH1 0x0 MSTORE DUP5 MSTORE PUSH1 0x40 PUSH1 0x0 KECCAK256 SWAP1 PUSH1 0x1 SWAP2 DUP3 PUSH1 0xFF NOT DUP3 SLOAD AND OR SWAP1 SSTORE DUP6 PUSH1 0x0 MSTORE PUSH1 0x6 DUP6 MSTORE PUSH1 0x8 PUSH1 0x40 PUSH1 0x0 KECCAK256 ADD DUP5 PUSH1 0x0 MSTORE DUP6 MSTORE PUSH1 0x40 PUSH1 0x0 KECCAK256 SWAP3 DUP8 GT PUSH2 0x7DD JUMPI PUSH2 0x216C DUP4 SLOAD PUSH2 0x2518 JUMP JUMPDEST PUSH1 0x1F DUP2 GT PUSH2 0x225E JUMPI JUMPDEST POP PUSH1 0x0 SWAP1 PUSH1 0x1F DUP9 GT PUSH1 0x1 EQ PUSH2 0x21DA JUMPI SWAP7 DUP1 SWAP3 DUP2 SWAP3 PUSH32 0xF328AC0F8BCAE00933FE87BA0AA2D0D505C1DF94BC9C1AA05B8441C28B74032C SWAP9 SWAP10 PUSH1 0x0 SWAP5 PUSH2 0x21CF JUMPI JUMPDEST POP POP SHL SWAP2 PUSH1 0x0 NOT SWAP1 PUSH1 0x3 SHL SHR NOT AND OR SWAP1 SSTORE JUMPDEST PUSH1 0x40 MLOAD SWAP1 DUP2 MSTORE LOG2 STOP JUMPDEST ADD CALLDATALOAD SWAP3 POP DUP10 DUP1 PUSH2 0x21B4 JUMP JUMPDEST SWAP7 SWAP1 PUSH1 0x1F NOT DUP3 AND SWAP1 DUP5 PUSH1 0x0 MSTORE DUP7 PUSH1 0x0 KECCAK256 SWAP2 PUSH1 0x0 JUMPDEST DUP2 DUP2 LT PUSH2 0x2249 JUMPI POP SWAP1 DUP4 PUSH32 0xF328AC0F8BCAE00933FE87BA0AA2D0D505C1DF94BC9C1AA05B8441C28B74032C SWAP10 SWAP11 SWAP3 LT PUSH2 0x222F JUMPI JUMPDEST POP POP POP DUP2 SHL ADD SWAP1 SSTORE PUSH2 0x21C6 JUMP JUMPDEST ADD CALLDATALOAD PUSH1 0x0 NOT PUSH1 0x3 DUP5 SWAP1 SHL PUSH1 0xF8 AND SHR NOT AND SWAP1 SSTORE DUP8 DUP1 DUP1 PUSH2 0x2222 JUMP JUMPDEST DUP11 DUP4 ADD CALLDATALOAD DUP5 SSTORE SWAP3 DUP6 ADD SWAP3 SWAP2 DUP9 ADD SWAP2 DUP9 ADD PUSH2 0x21EE JUMP JUMPDEST PUSH2 0x2288 SWAP1 DUP5 PUSH1 0x0 MSTORE DUP7 PUSH1 0x0 KECCAK256 PUSH1 0x1F DUP11 ADD PUSH1 0x5 SHR DUP2 ADD SWAP2 DUP9 DUP12 LT PUSH2 0x7D3 JUMPI PUSH1 0x1F ADD PUSH1 0x5 SHR ADD SWAP1 PUSH2 0x2657 JUMP JUMPDEST DUP8 PUSH2 0x2175 JUMP JUMPDEST PUSH1 0x40 MLOAD PUSH3 0x461BCD PUSH1 0xE5 SHL DUP2 MSTORE PUSH1 0x4 DUP2 ADD DUP7 SWAP1 MSTORE PUSH1 0x10 PUSH1 0x24 DUP3 ADD MSTORE PUSH16 0x20B63932B0B23C90309036B2B6B132B9 PUSH1 0x81 SHL PUSH1 0x44 DUP3 ADD MSTORE PUSH1 0x64 SWAP1 REVERT JUMPDEST PUSH1 0x40 MLOAD PUSH3 0x461BCD PUSH1 0xE5 SHL DUP2 MSTORE PUSH1 0x4 DUP2 ADD DUP7 SWAP1 MSTORE PUSH1 0x16 PUSH1 0x24 DUP3 ADD MSTORE PUSH22 0x496E76616C6964206D656D6265722061646472657373 PUSH1 0x50 SHL PUSH1 0x44 DUP3 ADD MSTORE PUSH1 0x64 SWAP1 REVERT JUMPDEST PUSH1 0x40 MLOAD PUSH3 0x461BCD PUSH1 0xE5 SHL DUP2 MSTORE PUSH1 0x4 DUP2 ADD DUP7 SWAP1 MSTORE PUSH1 0x22 PUSH1 0x24 DUP3 ADD MSTORE PUSH32 0x4F6E6C792067726F75702063726561746F722063616E20616464206D656D6265 PUSH1 0x44 DUP3 ADD MSTORE PUSH2 0x7273 PUSH1 0xF0 SHL PUSH1 0x64 DUP3 ADD MSTORE PUSH1 0x84 SWAP1 REVERT JUMPDEST POP PUSH1 0x3 SLOAD DUP5 GT ISZERO PUSH2 0x2070 JUMP JUMPDEST CALLVALUE PUSH2 0x281 JUMPI PUSH1 0x0 CALLDATASIZE PUSH1 0x3 NOT ADD SLT PUSH2 0x281 JUMPI PUSH1 0x2 SLOAD PUSH1 0x40 MLOAD PUSH1 0x1 PUSH1 0x1 PUSH1 0xA0 SHL SUB SWAP1 SWAP2 AND DUP2 MSTORE PUSH1 0x20 SWAP1 RETURN JUMPDEST CALLVALUE PUSH2 0x281 JUMPI PUSH1 0x20 CALLDATASIZE PUSH1 0x3 NOT ADD SLT PUSH2 0x281 JUMPI PUSH1 0xE0 SWAP1 PUSH1 0x4 CALLDATALOAD PUSH1 0x0 MSTORE PUSH1 0x8 PUSH1 0x20 MSTORE PUSH1 0x40 PUSH1 0x0 KECCAK256 DUP1 SLOAD SWAP1 PUSH1 0x1 DUP2 ADD SLOAD PUSH1 0x1 DUP1 PUSH1 0xA0 SHL SUB DUP1 PUSH1 0x2 DUP5 ADD SLOAD AND SWAP1 PUSH1 0x3 DUP5 ADD SLOAD AND SWAP1 PUSH1 0x4 DUP5 ADD SLOAD SWAP3 PUSH1 0x6 PUSH1 0x5 DUP7 ADD SLOAD SWAP6 ADD SLOAD SWAP6 DUP8 MSTORE PUSH1 0x20 DUP8 ADD MSTORE PUSH1 0x40 DUP7 ADD MSTORE PUSH1 0x60 DUP6 ADD MSTORE PUSH1 0x80 DUP5 ADD MSTORE PUSH1 0xA0 DUP4 ADD MSTORE PUSH1 0xC0 DUP3 ADD MSTORE RETURN JUMPDEST PUSH1 0x24 CALLDATALOAD SWAP1 PUSH1 0x1 PUSH1 0x1 PUSH1 0xA0 SHL SUB DUP3 AND DUP3 SUB PUSH2 0x281 JUMPI JUMP JUMPDEST PUSH1 0x4 CALLDATALOAD SWAP1 PUSH1 0x1 PUSH1 0x1 PUSH1 0xA0 SHL SUB DUP3 AND DUP3 SUB PUSH2 0x281 JUMPI JUMP JUMPDEST SWAP2 DUP2 PUSH1 0x1F DUP5 ADD SLT ISZERO PUSH2 0x281 JUMPI DUP3 CALLDATALOAD SWAP2 PUSH1 0x1 PUSH1 0x1 PUSH1 0x40 SHL SUB DUP4 GT PUSH2 0x281 JUMPI PUSH1 0x20 DUP4 DUP2 DUP7 ADD SWAP6 ADD ADD GT PUSH2 0x281 JUMPI JUMP JUMPDEST DUP1 SLOAD DUP3 LT ISZERO PUSH2 0x246F JUMPI PUSH1 0x0 MSTORE PUSH1 0x20 PUSH1 0x0 KECCAK256 ADD SWAP1 PUSH1 0x0 SWAP1 JUMP JUMPDEST PUSH4 0x4E487B71 PUSH1 0xE0 SHL PUSH1 0x0 MSTORE PUSH1 0x32 PUSH1 0x4 MSTORE PUSH1 0x24 PUSH1 0x0 REVERT JUMPDEST SWAP2 SWAP1 DUP3 MLOAD SWAP3 DUP4 DUP3 MSTORE PUSH1 0x0 JUMPDEST DUP5 DUP2 LT PUSH2 0x24B1 JUMPI POP POP DUP3 PUSH1 0x0 PUSH1 0x20 DUP1 SWAP5 SWAP6 DUP5 ADD ADD MSTORE PUSH1 0x1F DUP1 NOT SWAP2 ADD AND ADD ADD SWAP1 JUMP JUMPDEST PUSH1 0x20 DUP2 DUP4 ADD DUP2 ADD MLOAD DUP5 DUP4 ADD DUP3 ADD MSTORE ADD PUSH2 0x2490 JUMP JUMPDEST SWAP1 DUP2 MLOAD DUP1 DUP3 MSTORE PUSH1 0x20 DUP1 DUP1 SWAP4 ADD SWAP4 ADD SWAP2 PUSH1 0x0 JUMPDEST DUP3 DUP2 LT PUSH2 0x24E5 JUMPI POP POP POP POP SWAP1 JUMP JUMPDEST DUP4 MLOAD PUSH1 0x1 PUSH1 0x1 PUSH1 0xA0 SHL SUB AND DUP6 MSTORE SWAP4 DUP2 ADD SWAP4 SWAP3 DUP2 ADD SWAP3 PUSH1 0x1 ADD PUSH2 0x24D7 JUMP JUMPDEST PUSH1 0x40 SWAP1 PUSH1 0x3 NOT ADD SLT PUSH2 0x281 JUMPI PUSH1 0x4 CALLDATALOAD SWAP1 PUSH1 0x24 CALLDATALOAD SWAP1 JUMP JUMPDEST SWAP1 PUSH1 0x1 DUP3 DUP2 SHR SWAP3 AND DUP1 ISZERO PUSH2 0x2548 JUMPI JUMPDEST PUSH1 0x20 DUP4 LT EQ PUSH2 0x2532 JUMPI JUMP JUMPDEST PUSH4 0x4E487B71 PUSH1 0xE0 SHL PUSH1 0x0 MSTORE PUSH1 0x22 PUSH1 0x4 MSTORE PUSH1 0x24 PUSH1 0x0 REVERT JUMPDEST SWAP2 PUSH1 0x7F AND SWAP2 PUSH2 0x2527 JUMP JUMPDEST SWAP1 PUSH1 0x1F DUP1 NOT SWAP2 ADD AND DUP2 ADD SWAP1 DUP2 LT PUSH1 0x1 PUSH1 0x1 PUSH1 0x40 SHL SUB DUP3 GT OR PUSH2 0x7DD JUMPI PUSH1 0x40 MSTORE JUMP JUMPDEST SWAP1 PUSH1 0x40 MLOAD SWAP2 DUP3 PUSH1 0x0 DUP3 SLOAD SWAP3 PUSH2 0x2587 DUP5 PUSH2 0x2518 JUMP JUMPDEST SWAP1 DUP2 DUP5 MSTORE PUSH1 0x1 SWAP5 DUP6 DUP2 AND SWAP1 DUP2 PUSH1 0x0 EQ PUSH2 0x25F6 JUMPI POP PUSH1 0x1 EQ PUSH2 0x25B3 JUMPI JUMPDEST POP POP PUSH2 0x25B1 SWAP3 POP SUB DUP4 PUSH2 0x2552 JUMP JUMPDEST JUMP JUMPDEST SWAP1 SWAP4 SWAP2 POP PUSH1 0x0 MSTORE PUSH1 0x20 SWAP1 DUP2 PUSH1 0x0 KECCAK256 SWAP4 PUSH1 0x0 SWAP2 JUMPDEST DUP2 DUP4 LT PUSH2 0x25DE JUMPI POP POP PUSH2 0x25B1 SWAP4 POP DUP3 ADD ADD CODESIZE DUP1 PUSH2 0x25A3 JUMP JUMPDEST DUP6 SLOAD DUP9 DUP5 ADD DUP6 ADD MSTORE SWAP5 DUP6 ADD SWAP5 DUP8 SWAP5 POP SWAP2 DUP4 ADD SWAP2 PUSH2 0x25C6 JUMP JUMPDEST SWAP2 POP POP PUSH2 0x25B1 SWAP5 POP PUSH1 0x20 SWAP3 POP PUSH1 0xFF NOT AND DUP3 DUP5 ADD MSTORE ISZERO ISZERO PUSH1 0x5 SHL DUP3 ADD ADD CODESIZE DUP1 PUSH2 0x25A3 JUMP JUMPDEST PUSH1 0x1 SLOAD PUSH1 0x8 SHR PUSH1 0x1 PUSH1 0x1 PUSH1 0xA0 SHL SUB AND CALLER SUB PUSH2 0x2630 JUMPI JUMP JUMPDEST PUSH1 0x40 MLOAD PUSH4 0x118CDAA7 PUSH1 0xE0 SHL DUP2 MSTORE CALLER PUSH1 0x4 DUP3 ADD MSTORE PUSH1 0x24 SWAP1 REVERT JUMPDEST PUSH1 0x0 NOT DUP2 EQ PUSH2 0xADA JUMPI PUSH1 0x1 ADD SWAP1 JUMP JUMPDEST DUP2 DUP2 LT PUSH2 0x2662 JUMPI POP POP JUMP JUMPDEST PUSH1 0x0 DUP2 SSTORE PUSH1 0x1 ADD PUSH2 0x2657 JUMP JUMPDEST DUP1 SLOAD PUSH1 0x1 PUSH1 0x40 SHL DUP2 LT ISZERO PUSH2 0x7DD JUMPI PUSH2 0x268B SWAP2 PUSH1 0x1 DUP3 ADD DUP2 SSTORE PUSH2 0x2457 JUMP JUMPDEST DUP2 SWAP3 SWAP2 SLOAD SWAP1 PUSH1 0x3 SHL SWAP2 PUSH1 0x1 DUP1 PUSH1 0xA0 SHL SUB DUP1 SWAP2 AND DUP4 SHL SWAP3 SHL NOT AND OR SWAP1 SSTORE JUMP JUMPDEST DUP1 SLOAD PUSH1 0x1 PUSH1 0x40 SHL DUP2 LT ISZERO PUSH2 0x7DD JUMPI PUSH2 0x26C6 SWAP2 PUSH1 0x1 DUP3 ADD DUP2 SSTORE PUSH2 0x2457 JUMP JUMPDEST DUP2 SWAP3 SWAP2 SLOAD SWAP1 PUSH1 0x3 SHL SWAP2 DUP3 SHL SWAP2 PUSH1 0x0 NOT SWAP1 SHL NOT AND OR SWAP1 SSTORE JUMP JUMPDEST SWAP1 DUP1 PUSH1 0x20 SWAP4 SWAP3 DUP2 DUP5 MSTORE DUP5 DUP5 ADD CALLDATACOPY PUSH1 0x0 DUP3 DUP3 ADD DUP5 ADD MSTORE PUSH1 0x1F ADD PUSH1 0x1F NOT AND ADD ADD SWAP1 JUMP JUMPDEST PUSH1 0xFF PUSH1 0x1 SLOAD AND PUSH2 0x270B JUMPI JUMP JUMPDEST PUSH1 0x40 MLOAD PUSH4 0xD93C0665 PUSH1 0xE0 SHL DUP2 MSTORE PUSH1 0x4 SWAP1 REVERT JUMPDEST ISZERO PUSH2 0x2724 JUMPI JUMP JUMPDEST PUSH1 0x40 MLOAD PUSH3 0x461BCD PUSH1 0xE5 SHL DUP2 MSTORE PUSH1 0x20 PUSH1 0x4 DUP3 ADD MSTORE PUSH1 0x10 PUSH1 0x24 DUP3 ADD MSTORE PUSH16 0x125B9D985B1A590819DC9BDD5C081251 PUSH1 0x82 SHL PUSH1 0x44 DUP3 ADD MSTORE PUSH1 0x64 SWAP1 REVERT JUMPDEST ISZERO PUSH2 0x2763 JUMPI JUMP JUMPDEST PUSH1 0x40 MLOAD PUSH3 0x461BCD PUSH1 0xE5 SHL DUP2 MSTORE PUSH1 0x20 PUSH1 0x4 DUP3 ADD MSTORE PUSH1 0x13 PUSH1 0x24 DUP3 ADD MSTORE PUSH19 0x47726F7570206973206E6F7420616374697665 PUSH1 0x68 SHL PUSH1 0x44 DUP3 ADD MSTORE PUSH1 0x64 SWAP1 REVERT JUMPDEST ISZERO PUSH2 0x27A5 JUMPI JUMP JUMPDEST PUSH1 0x40 MLOAD PUSH3 0x461BCD PUSH1 0xE5 SHL DUP2 MSTORE PUSH1 0x20 PUSH1 0x4 DUP3 ADD MSTORE PUSH1 0x12 PUSH1 0x24 DUP3 ADD MSTORE PUSH18 0x2737BA10309033B937BAB81036B2B6B132B9 PUSH1 0x71 SHL PUSH1 0x44 DUP3 ADD MSTORE PUSH1 0x64 SWAP1 REVERT JUMPDEST ISZERO PUSH2 0x27E6 JUMPI JUMP JUMPDEST PUSH1 0x40 MLOAD PUSH3 0x461BCD PUSH1 0xE5 SHL DUP2 MSTORE PUSH1 0x20 PUSH1 0x4 DUP3 ADD MSTORE PUSH1 0x17 PUSH1 0x24 DUP3 ADD MSTORE PUSH32 0x416D6F756E74206D75737420626520706F736974697665000000000000000000 PUSH1 0x44 DUP3 ADD MSTORE PUSH1 0x64 SWAP1 REVERT JUMPDEST SWAP2 SWAP1 DUP2 LT ISZERO PUSH2 0x246F JUMPI PUSH1 0x5 SHL ADD SWAP1 JUMP JUMPDEST CALLDATALOAD PUSH1 0x1 PUSH1 0x1 PUSH1 0xA0 SHL SUB DUP2 AND DUP2 SUB PUSH2 0x281 JUMPI SWAP1 JUMP JUMPDEST DUP2 ISZERO PUSH2 0x2859 JUMPI DIV SWAP1 JUMP JUMPDEST PUSH4 0x4E487B71 PUSH1 0xE0 SHL PUSH1 0x0 MSTORE PUSH1 0x12 PUSH1 0x4 MSTORE PUSH1 0x24 PUSH1 0x0 REVERT JUMPDEST DUP2 ISZERO PUSH2 0x2859 JUMPI MOD SWAP1 JUMP JUMPDEST SWAP2 SWAP1 SWAP2 PUSH1 0x0 DUP4 DUP3 ADD SWAP4 DUP5 SLT SWAP2 SLT SWAP1 DUP1 ISZERO DUP3 AND SWAP2 ISZERO AND OR PUSH2 0xADA JUMPI JUMP JUMPDEST SWAP2 SWAP1 DUP3 ADD DUP1 SWAP3 GT PUSH2 0xADA JUMPI JUMP JUMPDEST PUSH1 0x40 MLOAD PUSH4 0x23B872DD PUSH1 0xE0 SHL PUSH1 0x20 DUP3 ADD MSTORE PUSH1 0x1 PUSH1 0x1 PUSH1 0xA0 SHL SUB SWAP3 DUP4 AND PUSH1 0x24 DUP3 ADD MSTORE SWAP3 SWAP1 SWAP2 AND PUSH1 0x44 DUP4 ADD MSTORE PUSH1 0x64 DUP3 ADD SWAP3 SWAP1 SWAP3 MSTORE PUSH2 0x25B1 SWAP2 PUSH2 0x1FA5 DUP3 PUSH1 0x84 DUP2 ADD PUSH2 0x1F97 JUMP JUMPDEST SWAP1 PUSH1 0x0 PUSH1 0x20 SWAP2 DUP3 DUP2 MLOAD SWAP2 ADD DUP3 DUP6 GAS CALL ISZERO PUSH2 0x2940 JUMPI PUSH1 0x0 MLOAD RETURNDATASIZE PUSH2 0x2937 JUMPI POP PUSH1 0x1 PUSH1 0x1 PUSH1 0xA0 SHL SUB DUP2 AND EXTCODESIZE ISZERO JUMPDEST PUSH2 0x2915 JUMPI POP JUMP JUMPDEST PUSH1 0x40 MLOAD PUSH4 0x5274AFE7 PUSH1 0xE0 SHL DUP2 MSTORE PUSH1 0x1 PUSH1 0x1 PUSH1 0xA0 SHL SUB SWAP1 SWAP2 AND PUSH1 0x4 DUP3 ADD MSTORE PUSH1 0x24 SWAP1 REVERT JUMPDEST PUSH1 0x1 EQ ISZERO PUSH2 0x290E JUMP JUMPDEST PUSH1 0x40 MLOAD RETURNDATASIZE PUSH1 0x0 DUP3 RETURNDATACOPY RETURNDATASIZE SWAP1 REVERT JUMPDEST PUSH1 0x2 PUSH1 0x0 SLOAD EQ PUSH2 0x295D JUMPI PUSH1 0x2 PUSH1 0x0 SSTORE JUMP JUMPDEST PUSH1 0x40 MLOAD PUSH4 0x3EE5AEB5 PUSH1 0xE0 SHL DUP2 MSTORE PUSH1 0x4 SWAP1 REVERT JUMPDEST SWAP1 PUSH1 0x40 MLOAD SWAP2 DUP3 DUP2 SLOAD SWAP2 DUP3 DUP3 MSTORE PUSH1 0x20 SWAP3 DUP4 DUP4 ADD SWAP2 PUSH1 0x0 MSTORE DUP4 PUSH1 0x0 KECCAK256 SWAP4 PUSH1 0x0 SWAP1 JUMPDEST DUP3 DUP3 LT PUSH2 0x29A4 JUMPI POP POP POP PUSH2 0x25B1 SWAP3 POP SUB DUP4 PUSH2 0x2552 JUMP JUMPDEST DUP6 SLOAD PUSH1 0x1 PUSH1 0x1 PUSH1 0xA0 SHL SUB AND DUP5 MSTORE PUSH1 0x1 SWAP6 DUP7 ADD SWAP6 DUP9 SWAP6 POP SWAP4 DUP2 ADD SWAP4 SWAP1 SWAP2 ADD SWAP1 PUSH2 0x298E JUMP JUMPDEST PUSH1 0x1 PUSH1 0x1 PUSH1 0x40 SHL SUB DUP2 GT PUSH2 0x7DD JUMPI PUSH1 0x5 SHL PUSH1 0x20 ADD SWAP1 JUMP JUMPDEST DUP1 MLOAD DUP3 LT ISZERO PUSH2 0x246F JUMPI PUSH1 0x20 SWAP2 PUSH1 0x5 SHL ADD ADD SWAP1 JUMP JUMPDEST SWAP2 SWAP1 SWAP2 PUSH1 0x0 SWAP3 DUP2 DUP5 MSTORE PUSH1 0x20 PUSH1 0x6 DUP2 MSTORE PUSH1 0x40 SWAP2 DUP3 DUP7 KECCAK256 SWAP1 DUP7 SWAP2 DUP8 PUSH1 0x3 DUP1 SWAP3 ADD SWAP1 DUP2 SLOAD SWAP1 JUMPDEST DUP2 DUP2 LT PUSH2 0x2ADC JUMPI POP POP DUP4 ISZERO PUSH2 0x2AD1 JUMPI DUP9 JUMPDEST DUP2 SLOAD DUP2 LT ISZERO PUSH2 0x2AC5 JUMPI PUSH2 0x2A39 DUP2 DUP4 PUSH2 0x2457 JUMP JUMPDEST SWAP1 SLOAD SWAP1 DUP5 SHL SHR PUSH1 0x1 PUSH1 0x1 PUSH1 0xA0 SHL SUB AND DUP1 DUP12 MSTORE PUSH1 0xA DUP8 MSTORE DUP8 DUP12 KECCAK256 DUP10 DUP13 MSTORE DUP8 MSTORE DUP8 DUP12 KECCAK256 SLOAD DUP12 DUP2 SGT PUSH2 0x2A73 JUMPI JUMPDEST POP POP PUSH2 0x2A6E SWAP1 PUSH2 0x2648 JUMP JUMPDEST PUSH2 0x2A26 JUMP JUMPDEST DUP6 DUP2 MUL SWAP1 DUP1 DUP3 DIV DUP8 EQ SWAP1 ISZERO OR ISZERO PUSH2 0x2AB1 JUMPI SWAP1 PUSH2 0x2A93 DUP8 PUSH2 0x2A6E SWAP5 SWAP4 PUSH2 0x284F JUMP JUMPDEST SWAP1 DUP13 MSTORE PUSH1 0xB DUP9 MSTORE PUSH2 0x2AA8 DUP10 DUP14 KECCAK256 SWAP2 DUP3 SLOAD PUSH2 0x2895 JUMP JUMPDEST SWAP1 SSTORE SWAP1 CODESIZE PUSH2 0x2A63 JUMP JUMPDEST PUSH4 0x4E487B71 PUSH1 0xE0 SHL DUP13 MSTORE PUSH1 0x11 PUSH1 0x4 MSTORE PUSH1 0x24 DUP13 REVERT JUMPDEST POP POP POP POP POP POP POP POP SWAP1 POP JUMP JUMPDEST POP POP POP POP POP POP POP SWAP1 POP JUMP JUMPDEST PUSH2 0x2AE6 DUP2 DUP5 PUSH2 0x2457 JUMP JUMPDEST SWAP1 SLOAD SWAP1 DUP6 SHL SHR PUSH1 0x1 PUSH1 0x1 PUSH1 0xA0 SHL SUB AND DUP12 MSTORE PUSH1 0xA DUP8 MSTORE DUP8 DUP12 KECCAK256 DUP10 DUP13 MSTORE DUP8 MSTORE DUP8 DUP12 KECCAK256 SLOAD DUP12 DUP2 SGT PUSH2 0x2B1E JUMPI JUMPDEST POP PUSH2 0x2B19 SWAP1 PUSH2 0x2648 JUMP JUMPDEST PUSH2 0x2A15 JUMP JUMPDEST PUSH2 0x2B2C SWAP1 PUSH2 0x2B19 SWAP3 SWAP8 PUSH2 0x2895 JUMP JUMPDEST SWAP6 SWAP1 PUSH2 0x2B0F JUMP INVALID DUP7 AND PC SDIV 0xEF 0xB5 0xD8 PUSH3 0x9221A0 0xC5 0x4D GASPRICE 0xDA LOG3 0xAC PUSH15 0x85C4025EF4221245BAC12516F0A1A2 PUSH5 0x6970667358 0x22 SLT KECCAK256 PUSH28 0xB9E418BAC6EB477B062C9BB8F39BE7EE945193825496BB07BFF18631 0xC4 CODESIZE PUSH20 0x64736F6C63430008140033000000000000000000 "},"methodIdentifiers":{"addMember(uint256,address,string)":"1f998d60","createExpense(uint256,string,uint256,address[])":"a6a5e2c5","createGroup(string,string,uint256,string)":"cae75515","expenseCounter()":"ddcad2ae","expenses(uint256)":"af4afe0a","getExpense(uint256)":"735e5db6","getGroup(uint256)":"ceb60654","getGroupBalances(uint256)":"b1411d48","getMemberName(uint256,address)":"7250dc36","getUserBalance(address,uint256)":"91a9648a","getUserGroups(address)":"3da04e4a","groupCounter()":"d24924fe","groupMembership(uint256,address)":"efb37d1b","groups(uint256)":"96324bd4","owner()":"8da5cb5b","pause()":"8456cb59","paused()":"5c975abb","renounceOwnership()":"715018a6","settleAllDebts(uint256)":"c0657812","settleExpense(uint256,uint256)":"73bbe9ff","settlementCounter()":"84b971a5","settlements(uint256)":"08df7dc8","transferOwnership(address)":"f2fde38b","unpause()":"3f4ba83a","updateGroupAmount(uint256,uint256)":"ff7b9de5","updateGroupCategory(uint256,string)":"ae59dfd3","updateUSDCToken(address)":"805351a4","usdcToken()":"11eac855","userBalances(address,uint256)":"fa3bdc46","userGroups(address,uint256)":"60a9e097","withdraw()":"3ccfd60b","withdrawableBalances(address)":"2b576f4e"}}}}}