{"contracts/BalanceChecker.sol":{"BalanceChecker":{"abi":[{"inputs":[],"stateMutability":"nonpayable","type":"constructor"},{"anonymous":false,"inputs":[{"indexed":false,"internalType":"address","name":"account","type":"address"},{"indexed":false,"internalType":"uint256","name":"balance","type":"uint256"}],"name":"BalanceChecked","type":"event"},{"inputs":[{"internalType":"address","name":"account","type":"address"}],"name":"checkBalance","outputs":[{"internalType":"uint256","name":"balance","type":"uint256"}],"stateMutability":"nonpayable","type":"function"},{"inputs":[],"name":"checkContractBalance","outputs":[{"internalType":"uint256","name":"","type":"uint256"}],"stateMutability":"view","type":"function"},{"inputs":[],"name":"checkMyBalance","outputs":[{"internalType":"uint256","name":"","type":"uint256"}],"stateMutability":"nonpayable","type":"function"},{"inputs":[],"name":"owner","outputs":[{"internalType":"address","name":"","type":"address"}],"stateMutability":"view","type":"function"}],"evm":{"bytecode":{"linkReferences":{},"object":"6080806040523461002857600080546001600160a01b03191633179055610160908161002e8239f35b600080fdfe608080604052600436101561001357600080fd5b600090813560e01c90816350312c9e146100cb575080635f5152261461009a5780638da5cb5b146100735763b37d61f81461004d57600080fd5b346100705780600319360112610070576020610068336100e9565b604051908152f35b80fd5b5034610070578060031936011261007057546040516001600160a01b039091168152602090f35b503461007057602036600319011261007057600435906001600160a01b0382168203610070576020610068836100e9565b9050346100e557816003193601126100e557602090478152f35b5080fd5b604080516001600160a01b0383168152913160208301819052917f99fd1b4b1c3d2adfe8295d40a886856c6fa50e4a821d330c781d67c582bc3d999190a19056fea2646970667358221220282ca436190ba5dd82b4f2f6e0e27e7b3afb5d81e4b86ae97878e6e6bff6235764736f6c63430008140033","opcodes":"PUSH1 0x80 DUP1 PUSH1 0x40 MSTORE CALLVALUE PUSH2 0x28 JUMPI PUSH1 0x0 DUP1 SLOAD PUSH1 0x1 PUSH1 0x1 PUSH1 0xA0 SHL SUB NOT AND CALLER OR SWAP1 SSTORE PUSH2 0x160 SWAP1 DUP2 PUSH2 0x2E DUP3 CODECOPY RETURN JUMPDEST PUSH1 0x0 DUP1 REVERT INVALID PUSH1 0x80 DUP1 PUSH1 0x40 MSTORE PUSH1 0x4 CALLDATASIZE LT ISZERO PUSH2 0x13 JUMPI PUSH1 0x0 DUP1 REVERT JUMPDEST PUSH1 0x0 SWAP1 DUP2 CALLDATALOAD PUSH1 0xE0 SHR SWAP1 DUP2 PUSH4 0x50312C9E EQ PUSH2 0xCB JUMPI POP DUP1 PUSH4 0x5F515226 EQ PUSH2 0x9A JUMPI DUP1 PUSH4 0x8DA5CB5B EQ PUSH2 0x73 JUMPI PUSH4 0xB37D61F8 EQ PUSH2 0x4D JUMPI PUSH1 0x0 DUP1 REVERT JUMPDEST CALLVALUE PUSH2 0x70 JUMPI DUP1 PUSH1 0x3 NOT CALLDATASIZE ADD SLT PUSH2 0x70 JUMPI PUSH1 0x20 PUSH2 0x68 CALLER PUSH2 0xE9 JUMP JUMPDEST PUSH1 0x40 MLOAD SWAP1 DUP2 MSTORE RETURN JUMPDEST DUP1 REVERT JUMPDEST POP CALLVALUE PUSH2 0x70 JUMPI DUP1 PUSH1 0x3 NOT CALLDATASIZE ADD SLT PUSH2 0x70 JUMPI SLOAD PUSH1 0x40 MLOAD PUSH1 0x1 PUSH1 0x1 PUSH1 0xA0 SHL SUB SWAP1 SWAP2 AND DUP2 MSTORE PUSH1 0x20 SWAP1 RETURN JUMPDEST POP CALLVALUE PUSH2 0x70 JUMPI PUSH1 0x20 CALLDATASIZE PUSH1 0x3 NOT ADD SLT PUSH2 0x70 JUMPI PUSH1 0x4 CALLDATALOAD SWAP1 PUSH1 0x1 PUSH1 0x1 PUSH1 0xA0 SHL SUB DUP3 AND DUP3 SUB PUSH2 0x70 JUMPI PUSH1 0x20 PUSH2 0x68 DUP4 PUSH2 0xE9 JUMP JUMPDEST SWAP1 POP CALLVALUE PUSH2 0xE5 JUMPI DUP2 PUSH1 0x3 NOT CALLDATASIZE ADD SLT PUSH2 0xE5 JUMPI PUSH1 0x20 SWAP1 SELFBALANCE DUP2 MSTORE RETURN JUMPDEST POP DUP1 REVERT JUMPDEST PUSH1 0x40 DUP1 MLOAD PUSH1 0x1 PUSH1 0x1 PUSH1 0xA0 SHL SUB DUP4 AND DUP2 MSTORE SWAP2 BALANCE PUSH1 0x20 DUP4 ADD DUP2 SWAP1 MSTORE SWAP2 PUSH32 0x99FD1B4B1C3D2ADFE8295D40A886856C6FA50E4A821D330C781D67C582BC3D99 SWAP2 SWAP1 LOG1 SWAP1 JUMP INVALID LOG2 PUSH5 0x6970667358 0x22 SLT KECCAK256 0x28 0x2C LOG4 CALLDATASIZE NOT SIGNEXTEND 0xA5 0xDD DUP3 0xB4 CALLCODE 0xF6 0xE0 0xE2 PUSH31 0x7B3AFB5D81E4B86AE97878E6E6BFF6235764736F6C63430008140033000000 "},"methodIdentifiers":{"checkBalance(address)":"5f515226","checkContractBalance()":"50312c9e","checkMyBalance()":"b37d61f8","owner()":"8da5cb5b"}}}}}