{"contracts/src/SplitMe.sol":{"SplitMe":{"abi":[{"inputs":[{"internalType":"address","name":"initialOwner","type":"address"},{"internalType":"address","name":"_usdcToken","type":"address"}],"stateMutability":"nonpayable","type":"constructor"},{"inputs":[],"name":"EnforcedPause","type":"error"},{"inputs":[],"name":"ExpectedPause","type":"error"},{"inputs":[{"internalType":"address","name":"owner","type":"address"}],"name":"OwnableInvalidOwner","type":"error"},{"inputs":[{"internalType":"address","name":"account","type":"address"}],"name":"OwnableUnauthorizedAccount","type":"error"},{"inputs":[],"name":"ReentrancyGuardReentrantCall","type":"error"},{"inputs":[{"internalType":"address","name":"token","type":"address"}],"name":"SafeERC20FailedOperation","type":"error"},{"anonymous":false,"inputs":[{"indexed":true,"internalType":"uint256","name":"groupId","type":"uint256"},{"indexed":false,"internalType":"address","name":"user","type":"address"},{"indexed":false,"internalType":"int256","name":"newBalance","type":"int256"}],"name":"BalanceUpdated","type":"event"},{"anonymous":false,"inputs":[{"indexed":true,"internalType":"uint256","name":"expenseId","type":"uint256"},{"indexed":true,"internalType":"uint256","name":"groupId","type":"uint256"},{"indexed":false,"internalType":"string","name":"description","type":"string"},{"indexed":false,"internalType":"uint256","name":"amount","type":"uint256"},{"indexed":false,"internalType":"address","name":"paidBy","type":"address"}],"name":"ExpenseCreated","type":"event"},{"anonymous":false,"inputs":[{"indexed":true,"internalType":"uint256","name":"expenseId","type":"uint256"},{"indexed":false,"internalType":"address","name":"settler","type":"address"},{"indexed":false,"internalType":"uint256","name":"amount","type":"uint256"}],"name":"ExpenseSettled","type":"event"},{"anonymous":false,"inputs":[{"indexed":true,"internalType":"uint256","name":"groupId","type":"uint256"},{"indexed":false,"internalType":"string","name":"name","type":"string"},{"indexed":false,"internalType":"address","name":"creator","type":"address"}],"name":"GroupCreated","type":"event"},{"anonymous":false,"inputs":[{"indexed":true,"internalType":"uint256","name":"groupId","type":"uint256"},{"indexed":false,"internalType":"address","name":"member","type":"address"}],"name":"MemberAdded","type":"event"},{"anonymous":false,"inputs":[{"indexed":true,"internalType":"address","name":"previousOwner","type":"address"},{"indexed":true,"internalType":"address","name":"newOwner","type":"address"}],"name":"OwnershipTransferred","type":"event"},{"anonymous":false,"inputs":[{"indexed":false,"internalType":"address","name":"account","type":"address"}],"name":"Paused","type":"event"},{"anonymous":false,"inputs":[{"indexed":true,"internalType":"uint256","name":"settlementId","type":"uint256"},{"indexed":false,"internalType":"address","name":"from","type":"address"},{"indexed":false,"internalType":"address","name":"to","type":"address"},{"indexed":false,"internalType":"uint256","name":"amount","type":"uint256"}],"name":"SettlementProcessed","type":"event"},{"anonymous":false,"inputs":[{"indexed":false,"internalType":"address","name":"account","type":"address"}],"name":"Unpaused","type":"event"},{"inputs":[{"internalType":"uint256","name":"groupId","type":"uint256"},{"internalType":"address","name":"member","type":"address"}],"name":"addMember","outputs":[],"stateMutability":"nonpayable","type":"function"},{"inputs":[{"internalType":"uint256","name":"groupId","type":"uint256"},{"internalType":"string","name":"description","type":"string"},{"internalType":"uint256","name":"amount","type":"uint256"},{"internalType":"address[]","name":"participants","type":"address[]"}],"name":"createExpense","outputs":[{"internalType":"uint256","name":"","type":"uint256"}],"stateMutability":"nonpayable","type":"function"},{"inputs":[{"internalType":"string","name":"name","type":"string"}],"name":"createGroup","outputs":[{"internalType":"uint256","name":"","type":"uint256"}],"stateMutability":"nonpayable","type":"function"},{"inputs":[],"name":"expenseCounter","outputs":[{"internalType":"uint256","name":"","type":"uint256"}],"stateMutability":"view","type":"function"},{"inputs":[{"internalType":"uint256","name":"","type":"uint256"}],"name":"expenses","outputs":[{"internalType":"uint256","name":"id","type":"uint256"},{"internalType":"uint256","name":"groupId","type":"uint256"},{"internalType":"string","name":"description","type":"string"},{"internalType":"uint256","name":"amount","type":"uint256"},{"internalType":"address","name":"paidBy","type":"address"},{"internalType":"bool","name":"isActive","type":"bool"},{"internalType":"uint256","name":"createdAt","type":"uint256"}],"stateMutability":"view","type":"function"},{"inputs":[{"internalType":"uint256","name":"expenseId","type":"uint256"}],"name":"getExpense","outputs":[{"internalType":"uint256","name":"id","type":"uint256"},{"internalType":"uint256","name":"groupId","type":"uint256"},{"internalType":"string","name":"description","type":"string"},{"internalType":"uint256","name":"amount","type":"uint256"},{"internalType":"address","name":"paidBy","type":"address"},{"internalType":"address[]","name":"participants","type":"address[]"},{"internalType":"bool","name":"isActive","type":"bool"},{"internalType":"uint256","name":"createdAt","type":"uint256"}],"stateMutability":"view","type":"function"},{"inputs":[{"internalType":"uint256","name":"groupId","type":"uint256"}],"name":"getGroup","outputs":[{"internalType":"uint256","name":"id","type":"uint256"},{"internalType":"string","name":"name","type":"string"},{"internalType":"address","name":"creator","type":"address"},{"internalType":"address[]","name":"members","type":"address[]"},{"internalType":"bool","name":"isActive","type":"bool"},{"internalType":"uint256","name":"createdAt","type":"uint256"}],"stateMutability":"view","type":"function"},{"inputs":[{"internalType":"uint256","name":"groupId","type":"uint256"}],"name":"getGroupBalances","outputs":[{"internalType":"address[]","name":"members","type":"address[]"},{"internalType":"int256[]","name":"balances","type":"int256[]"}],"stateMutability":"view","type":"function"},{"inputs":[{"internalType":"address","name":"user","type":"address"},{"internalType":"uint256","name":"groupId","type":"uint256"}],"name":"getUserBalance","outputs":[{"internalType":"int256","name":"","type":"int256"}],"stateMutability":"view","type":"function"},{"inputs":[{"internalType":"address","name":"user","type":"address"}],"name":"getUserGroups","outputs":[{"internalType":"uint256[]","name":"","type":"uint256[]"}],"stateMutability":"view","type":"function"},{"inputs":[],"name":"groupCounter","outputs":[{"internalType":"uint256","name":"","type":"uint256"}],"stateMutability":"view","type":"function"},{"inputs":[{"internalType":"uint256","name":"","type":"uint256"}],"name":"groups","outputs":[{"internalType":"uint256","name":"id","type":"uint256"},{"internalType":"string","name":"name","type":"string"},{"internalType":"address","name":"creator","type":"address"},{"internalType":"bool","name":"isActive","type":"bool"},{"internalType":"uint256","name":"createdAt","type":"uint256"}],"stateMutability":"view","type":"function"},{"inputs":[],"name":"owner","outputs":[{"internalType":"address","name":"","type":"address"}],"stateMutability":"view","type":"function"},{"inputs":[],"name":"pause","outputs":[],"stateMutability":"nonpayable","type":"function"},{"inputs":[],"name":"paused","outputs":[{"internalType":"bool","name":"","type":"bool"}],"stateMutability":"view","type":"function"},{"inputs":[],"name":"renounceOwnership","outputs":[],"stateMutability":"nonpayable","type":"function"},{"inputs":[{"internalType":"uint256","name":"groupId","type":"uint256"}],"name":"settleAllDebts","outputs":[],"stateMutability":"nonpayable","type":"function"},{"inputs":[{"internalType":"uint256","name":"expenseId","type":"uint256"},{"internalType":"uint256","name":"amount","type":"uint256"}],"name":"settleExpense","outputs":[],"stateMutability":"nonpayable","type":"function"},{"inputs":[],"name":"settlementCounter","outputs":[{"internalType":"uint256","name":"","type":"uint256"}],"stateMutability":"view","type":"function"},{"inputs":[{"internalType":"uint256","name":"","type":"uint256"}],"name":"settlements","outputs":[{"internalType":"uint256","name":"id","type":"uint256"},{"internalType":"uint256","name":"groupId","type":"uint256"},{"internalType":"address","name":"from","type":"address"},{"internalType":"address","name":"to","type":"address"},{"internalType":"uint256","name":"amount","type":"uint256"},{"internalType":"uint256","name":"timestamp","type":"uint256"},{"internalType":"bytes32","name":"expenseReference","type":"bytes32"}],"stateMutability":"view","type":"function"},{"inputs":[{"internalType":"address","name":"newOwner","type":"address"}],"name":"transferOwnership","outputs":[],"stateMutability":"nonpayable","type":"function"},{"inputs":[],"name":"unpause","outputs":[],"stateMutability":"nonpayable","type":"function"},{"inputs":[{"internalType":"address","name":"newToken","type":"address"}],"name":"updateUSDCToken","outputs":[],"stateMutability":"nonpayable","type":"function"},{"inputs":[],"name":"usdcToken","outputs":[{"internalType":"contract IERC20","name":"","type":"address"}],"stateMutability":"view","type":"function"},{"inputs":[{"internalType":"address","name":"","type":"address"},{"internalType":"uint256","name":"","type":"uint256"}],"name":"userBalances","outputs":[{"internalType":"int256","name":"","type":"int256"}],"stateMutability":"view","type":"function"},{"inputs":[{"internalType":"address","name":"","type":"address"},{"internalType":"uint256","name":"","type":"uint256"}],"name":"userGroups","outputs":[{"internalType":"uint256","name":"","type":"uint256"}],"stateMutability":"view","type":"function"},{"inputs":[],"name":"withdraw","outputs":[],"stateMutability":"nonpayable","type":"function"},{"inputs":[{"internalType":"address","name":"","type":"address"}],"name":"withdrawableBalances","outputs":[{"internalType":"uint256","name":"","type":"uint256"}],"stateMutability":"view","type":"function"}],"evm":{"bytecode":{"linkReferences":{},"object":"608034620000f857601f6200241338819003918201601f19168301916001600160401b03831184841017620000fd578084926040948552833981010312620000f8576200005a6020620000528362000113565b920162000113565b60016000556001600160a01b03908282168015620000df5760018054610100600160a81b03198116600896871b610100600160a81b031617909155604051941c83167f8be0079c531659141344cd1fd0a4f28419497f9722a3daafe3b4186f6b6457e0600080a31660018060a01b031960025416176002556122ea9081620001298239f35b604051631e4fbdf760e01b815260006004820152602490fd5b600080fd5b634e487b7160e01b600052604160045260246000fd5b51906001600160a01b0382168203620000f85756fe608080604052600436101561001357600080fd5b60003560e01c90816308df7dc814611aad5750806311eac85514611a845780632b576f4e14611a4a5780633ccfd60b146119765780633da04e4a146118c25780633f4ba83a146118585780635c975abb1461183557806360a9e097146117dd578063715018a61461177c578063735e5db6146116cb57806373bbe9ff1461125e57806374d0a676146110a2578063805351a41461101d5780638456cb5914610fc457806384b971a514610fa65780638da5cb5b14610f7957806391a9648a1461015357806396324bd414610efb578063a6a5e2c5146108eb578063af4afe0a14610859578063b1411d4814610709578063c065781214610576578063ceb60654146104dc578063d24924fe146104be578063dc2ddcae14610257578063ddcad2ae14610239578063f2fde38b146101a05763fa3bdc461461015357600080fd5b3461019b57604036600319011261019b576001600160a01b03610174611b22565b16600052600a60205260406000206024356000526020526020604060002054604051908152f35b600080fd5b3461019b57602036600319011261019b576101b9611b22565b6101c1611d13565b6001600160a01b038181169182156102205760018054610100600160a81b03198116600893841b610100600160a81b031617909155901c167f8be0079c531659141344cd1fd0a4f28419497f9722a3daafe3b4186f6b6457e0600080a3005b604051631e4fbdf760e01b815260006004820152602490fd5b3461019b57600036600319011261019b576020600454604051908152f35b3461019b5760208060031936011261019b5767ffffffffffffffff60043581811161019b5761028a903690600401611ce5565b610292611df9565b80156104795760036102a48154611d42565b808255806000526006865260406000209081556001808201958411610463576102cd8654611be3565b601f8111610428575b50600095601f85116001146103a757847f18c62fe73d1b8ec45d443cf56b0c4966349cbb70ab036ba3ebfb065932ad17b095969760009161039c575b5060001987861b1c191686831b1790555b60028201336001600160601b0360a01b82541617905561034533848401611d68565b600482019060ff1982541617905560054291015533600052600985526103716040600020825490611da3565b5492839261038c604051928392604084526040840191611dd8565b33878301520390a2604051908152f35b905087013589610312565b601f1985169681600052886000209060005b8a8a8210610414575050867f18c62fe73d1b8ec45d443cf56b0c4966349cbb70ab036ba3ebfb065932ad17b0979899106103fc575b50508186811b019055610323565b88013560001988871b60f8161c1916905588806103ee565b8983013584559285019291820191016103b9565b610453908760005288600020601f870160051c8101918a8810610459575b601f0160051c0190611d51565b876102d6565b9091508190610446565b634e487b7160e01b600052604160045260246000fd5b60405162461bcd60e51b815260048101859052601a60248201527f47726f7570206e616d652063616e6e6f7420626520656d7074790000000000006044820152606490fd5b3461019b57600036600319011261019b576020600354604051908152f35b3461019b57602036600319011261019b5760043560005260066020526040600020805460018060a01b0360028301541660ff60048401541690610565600585015491610536600361052f60018901611c3f565b9701612069565b610552604051978897885260c0602089015260c0880190611b66565b9160408701528582036060870152611ba6565b911515608084015260a08301520390f35b3461019b5760208060031936011261019b5760043590811515806106fd575b61059e90611e17565b81600052600681526105ba60ff60046040600020015416611e56565b6105cc6105c733846120ed565b611e98565b6105d4612046565b6105dc611df9565b33600052600a8152604060002082600052815260406000205460008112156106c357600160ff1b81146106ad57806000039015610672576000805160206122958339815191529161065f8261064160409460018060a01b036002541630903390611f9c565b33600052600a83528360002086600052835260008481205585612153565b6000825191338352820152a26001600055005b60405162461bcd60e51b8152600481018390526013602482015272139bc81bdd5d1cdd185b991a5b99c81919589d606a1b6044820152606490fd5b634e487b7160e01b600052601160045260246000fd5b60405162461bcd60e51b81526004810183905260126024820152714e6f20646562747320746f20736574746c6560701b6044820152606490fd5b50600354821115610595565b3461019b5760208060031936011261019b57600435806000526006825260038060406000200192835461073b816120c1565b936107496040519586611c1d565b818552601f19938461075a846120c1565b013685880137610769836120c1565b966107776040519889611c1d565b838852610783846120c1565b888601960136873760005b8481106107ea576107b18888888c81604051958695604087526040870190611ba6565b9185830382870152519182815201929160005b8281106107d357505050500390f35b8351855286955093810193928101926001016107c4565b806107fc61085092849b999a9b611b38565b90546001600160a01b0391861b1c8116610816838d6120d9565b526108218285611b38565b905490861b1c16600052600a8752604060002085600052875260406000205461084a828a6120d9565b52611d42565b9796959761078e565b3461019b57602036600319011261019b5760043560005260076020526040600020805460018201549161088e60028201611c3f565b60038201549160018060a01b036004820154166108d0600860ff600785015416930154936040519788978852602088015260e0604088015260e0870190611b66565b9360608601526080850152151560a084015260c08301520390f35b3461019b57608036600319011261019b5767ffffffffffffffff60243581811161019b5761091d903690600401611ce5565b60649283359080821161019b573660238301121561019b578082600401351161019b57366024836004013560051b8401011161019b57600435151580610eed575b61096790611e17565b600435600052600660205261098660ff60046040600020015416611e56565b6109956105c7336004356120ed565b61099d611df9565b8215610ea9576044946109b286351515611ed9565b826004013515610e6f576004356000526006602052600360406000200154836004013511610e365760005b83600401358110610dc15750506109f5600454611d42565b908160045581600052600760205260406000209182556004356001830155831161046357610a266002820154611be3565b601f8111610d8c575b50826000601f8211600114610d1e57600091610d13575b508360011b906000198560031b1c19161760028201555b8435600382015560048101336001600160601b0360a01b82541617905560058101600160401b83600401351161046357805460048401358083558111610cf1575b50602483019060005260206000209060005b84600401358110610cd65750505060078101600160ff19825416179055600842910155610ae281600401358535611f49565b610af182600401358635611f69565b9133600052600a60205260406000206004356000526020526040600020610b1a87358254611f73565b905560005b81600401358110610bc2576020610b6b88887f7b0ca01b30804959458f2b66d8c41c1f282377133d5816d4958e9d381ca48cb88960045494859360405192606084526060840191611dd8565b93358682015233604082015280600435940390a3336000818152600a8452604080822060043580845290865291819020548151938452602084015290916000805160206122958339815191529190a2604051908152f35b8290848110610cc0575b6001600160a01b03610bee610be983600487013560248801611f25565b611f35565b16600052600a602052604060002060043560005260205260406000208054926000811284828103128116908583810313901516176106ad57610cbb93039055610c42610be982856004013560248701611f25565b6001600160a01b03610c5f610be984600488013560248901611f25565b16600052600a6020526040600020600435600052602052600080516020612295833981519152610cb3604060002054604051918291600435958360209093929193604081019460018060a01b031681520152565b0390a2611d42565b610b1f565b90506001830183116106ad576001830190610bcc565b6001906020610ce484611f35565b9301928185015501610ab0565b610d0d9082600052602060002090810190856004013501611d51565b86610a9e565b905084013586610a46565b90506002820160005260206000209060005b601f1986168110610d74575084601f19811610610d5a575b5050600183811b016002820155610a5d565b850135600019600386901b60f8161c191690558580610d48565b9091602060018192858a013581550193019101610d30565b610dbb90600283016000526020600020601f860160051c8101916020871061045957601f0160051c0190611d51565b85610a2f565b610de1610dd9610be983876004013560248901611f25565b6004356120ed565b15610df457610def90611d42565b6109dd565b5060405162461bcd60e51b815260206004820152601860248201527f5061727469636970616e74206e6f7420696e2067726f7570000000000000000081880152fd5b60405162461bcd60e51b8152602060048201526015602482015274546f6f206d616e79207061727469636970616e747360581b81880152fd5b60405162461bcd60e51b81526020600482015260166024820152754d7573742068617665207061727469636970616e747360501b81880152fd5b60405162461bcd60e51b815260206004820152601b60248201527f4465736372697074696f6e2063616e6e6f7420626520656d707479000000000060448201528590fd5b50600354600435111561095e565b3461019b57602036600319011261019b57600435600052600660205260406000208054610f2a60018301611c3f565b9160018060a01b0360028201541690600560ff60048301541691015490610f63604051958695865260a0602087015260a0860190611b66565b9260408501521515606084015260808301520390f35b3461019b57600036600319011261019b5760015460405160089190911c6001600160a01b03168152602090f35b3461019b57600036600319011261019b576020600554604051908152f35b3461019b57600036600319011261019b57610fdd611d13565b610fe5611df9565b600160ff19815416176001557f62e78cea01bee320cd4e420270b5ea74000d11b0c9f74754ebdbfc544b05a2586020604051338152a1005b3461019b57602036600319011261019b57611036611b22565b61103e611d13565b6001600160a01b03168015611065576001600160601b0360a01b6002541617600255600080f35b60405162461bcd60e51b8152602060048201526015602482015274496e76616c696420746f6b656e206164647265737360581b6044820152606490fd5b3461019b57604036600319011261019b576004356001600160a01b036024358181169081810361019b5783151580611252575b6110de90611e17565b83600052602092600684526110fd60ff60046040600020015416611e56565b611105611df9565b84600052600684526002604060002001541633036112025781156111c45761112d81856120ed565b61118c579061116d7ff328ac0f8bcae00933fe87ba0aa2d0d505c1df94bc9c1aa05b8441c28b74032c939285600052600684526003604060002001611d68565b8060005260098252611183846040600020611da3565b604051908152a2005b60405162461bcd60e51b815260048101849052601060248201526f20b63932b0b23c90309036b2b6b132b960811b6044820152606490fd5b60405162461bcd60e51b8152600481018490526016602482015275496e76616c6964206d656d626572206164647265737360501b6044820152606490fd5b60405162461bcd60e51b815260048101849052602260248201527f4f6e6c792067726f75702063726561746f722063616e20616464206d656d6265604482015261727360f01b6064820152608490fd5b506003548411156110d5565b3461019b57604036600319011261019b57611277612046565b61127f611df9565b6004351515806116bd575b156116835761129c6024351515611ed9565b6004356000526007602052604060002060ff6007820154161561164957336000526006810160205260ff60406000205416611612576001810154906112e46105c733846120ed565b600381015490600581015491611304836112fe8184611f49565b92611f69565b60005b84811080611609575b156115ff576113228160058601611b38565b905460039190911b1c6001600160a01b031633146113485761134390611d42565b611307565b5050909150600181018091116106ad575b602435106115ba5760025461137e9060243590309033906001600160a01b0316611f9c565b33600052600681016020526040600020600160ff19825416179055600a60205260406000208260005260205260406000206113bc6024358254611f73565b905560018060a01b03600482015416600052600b60205260406000206113e56024358254611f8f565b90556113f2600554611d42565b8060055560018060a01b0360048301541660405191602083019060043582526020845267ffffffffffffffff918460408101108360408701111761046357604085016040528451902091604085016101208601109061012086011117610463576101208401604090815280850182815260608601888152336080880181815260a0890197885260243560c08a018181524260e08c01908152610100909b0198895260009788526008602090815297879020955186559351600186015590516002850180546001600160a01b03199081166001600160a01b03938416179091559851600386018054909a1691161790975590516004808401919091559651600583015593516006909101558051928352908201929092529135917fbc779eacfe67dde2ce8cca0c2dcc5fa918c50cde558c1325a0324c4238b4dd559190a260055460049190910154604080513381526001600160a01b039092166020830152602435908201527faf85b528f86f95883c3d86eef185680424986ed79e7bb3b7362e5d88a247a27190606090a2336000818152600a602090815260408083208584528252918290205482519384529083015260008051602061229583398151915291a26001600055005b60405162461bcd60e51b815260206004820152601e60248201527f496e73756666696369656e7420736574746c656d656e7420616d6f756e7400006044820152606490fd5b5050909150611359565b50818110611310565b60405162461bcd60e51b815260206004820152600f60248201526e105b1c9958591e481cd95d1d1b1959608a1b6044820152606490fd5b60405162461bcd60e51b8152602060048201526012602482015271457870656e7365206e6f742061637469766560701b6044820152606490fd5b60405162461bcd60e51b8152602060048201526012602482015271125b9d985b1a5908195e1c195b9cd948125160721b6044820152606490fd5b50600454600435111561128a565b3461019b57602036600319011261019b57600435600052600760205260406000208054600182015491600381015461176b60018060a01b036004840154169160ff60078501541693600881015493611753611734600561172d60028601611c3f565b9401612069565b92604051998a998a5260208a01526101008060408b0152890190611b66565b926060880152608087015285820360a0870152611ba6565b91151560c084015260e08301520390f35b3461019b57600036600319011261019b57611795611d13565b60018054610100600160a81b0319811690915560009060081c6001600160a01b03167f8be0079c531659141344cd1fd0a4f28419497f9722a3daafe3b4186f6b6457e08280a3005b3461019b57604036600319011261019b576117f6611b22565b6001600160a01b031660009081526009602052604090208054602435919082101561019b5760209161182791611b38565b90546040519160031b1c8152f35b3461019b57600036600319011261019b57602060ff600154166040519015158152f35b3461019b57600036600319011261019b57611871611d13565b60015460ff8116156118b05760ff19166001557f5db9ee0a495bf2e6ff9c91a7834c1ba4fdd244a5e8aa4e537bd38aeae4b073aa6020604051338152a1005b604051638dfc202b60e01b8152600490fd5b3461019b5760208060031936011261019b576001600160a01b036118e4611b22565b1660005260098152604060002060405190818382549182815201908192600052846000209060005b8682821061196257868661192282880383611c1d565b604051928392818401908285525180915260408401929160005b82811061194b57505050500390f35b83518552869550938101939281019260010161193c565b83548552909301926001928301920161190c565b3461019b57600036600319011261019b5761198f612046565b33600052600b6020526040600020548015611a0e57336000818152600b6020908152604080832092909255600254915163a9059cbb60e01b9181019190915260248101929092526044820192909252611a07916001600160a01b0316611a0282606481015b03601f198101845283611c1d565b611fde565b6001600055005b60405162461bcd60e51b81526020600482015260146024820152734e6f2066756e647320746f20776974686472617760601b6044820152606490fd5b3461019b57602036600319011261019b576001600160a01b03611a6b611b22565b16600052600b6020526020604060002054604051908152f35b3461019b57600036600319011261019b576002546040516001600160a01b039091168152602090f35b3461019b57602036600319011261019b5760e09060043560005260086020526040600020805490600181015460018060a01b0380600284015416906003840154169060048401549260066005860154950154958752602087015260408601526060850152608084015260a083015260c0820152f35b600435906001600160a01b038216820361019b57565b8054821015611b505760005260206000200190600090565b634e487b7160e01b600052603260045260246000fd5b919082519283825260005b848110611b92575050826000602080949584010152601f8019910116010190565b602081830181015184830182015201611b71565b90815180825260208080930193019160005b828110611bc6575050505090565b83516001600160a01b031685529381019392810192600101611bb8565b90600182811c92168015611c13575b6020831014611bfd57565b634e487b7160e01b600052602260045260246000fd5b91607f1691611bf2565b90601f8019910116810190811067ffffffffffffffff82111761046357604052565b9060405191826000825492611c5384611be3565b908184526001948581169081600014611cc25750600114611c7f575b5050611c7d92500383611c1d565b565b9093915060005260209081600020936000915b818310611caa575050611c7d93508201013880611c6f565b85548884018501529485019487945091830191611c92565b915050611c7d94506020925060ff191682840152151560051b8201013880611c6f565b9181601f8401121561019b5782359167ffffffffffffffff831161019b576020838186019501011161019b57565b60015460081c6001600160a01b03163303611d2a57565b60405163118cdaa760e01b8152336004820152602490fd5b60001981146106ad5760010190565b818110611d5c575050565b60008155600101611d51565b8054600160401b81101561046357611d8591600182018155611b38565b819291549060031b9160018060a01b03809116831b921b1916179055565b8054600160401b81101561046357611dc091600182018155611b38565b819291549060031b91821b91600019901b1916179055565b908060209392818452848401376000828201840152601f01601f1916010190565b60ff60015416611e0557565b60405163d93c066560e01b8152600490fd5b15611e1e57565b60405162461bcd60e51b815260206004820152601060248201526f125b9d985b1a590819dc9bdd5c08125160821b6044820152606490fd5b15611e5d57565b60405162461bcd60e51b815260206004820152601360248201527247726f7570206973206e6f742061637469766560681b6044820152606490fd5b15611e9f57565b60405162461bcd60e51b81526020600482015260126024820152712737ba10309033b937bab81036b2b6b132b960711b6044820152606490fd5b15611ee057565b60405162461bcd60e51b815260206004820152601760248201527f416d6f756e74206d75737420626520706f7369746976650000000000000000006044820152606490fd5b9190811015611b505760051b0190565b356001600160a01b038116810361019b5790565b8115611f53570490565b634e487b7160e01b600052601260045260246000fd5b8115611f53570690565b919091600083820193841291129080158216911516176106ad57565b919082018092116106ad57565b6040516323b872dd60e01b60208201526001600160a01b0392831660248201529290911660448301526064820192909252611c7d91611a0282608481016119f4565b906000602091828151910182855af11561203a576000513d61203157506001600160a01b0381163b155b61200f5750565b604051635274afe760e01b81526001600160a01b039091166004820152602490fd5b60011415612008565b6040513d6000823e3d90fd5b600260005414612057576002600055565b604051633ee5aeb560e01b8152600490fd5b9060405191828154918282526020928383019160005283600020936000905b82821061209e57505050611c7d92500383611c1d565b85546001600160a01b031684526001958601958895509381019390910190612088565b67ffffffffffffffff81116104635760051b60200190565b8051821015611b505760209160051b010190565b600052600660205260406000209060009160038091018054935b848110612118575050505050600090565b6121228183611b38565b905490841b1c6001600160a01b03908116908516146121495761214490611d42565b612107565b5050505050600190565b919091600092818452602060068152604091828620908691876003809201908154905b81811061223d575050831561223257885b81548110156122265761219a8183611b38565b905490841b1c6001600160a01b0316808b52600a8752878b20898c528752878b20548b81136121d4575b50506121cf90611d42565b612187565b8581029080820487149015171561221257906121f4876121cf9493611f49565b908c52600b8852612209898d20918254611f8f565b905590386121c4565b634e487b7160e01b8c52601160045260248cfd5b50505050505050509050565b505050505050509050565b6122478184611b38565b905490851b1c6001600160a01b03168b52600a8752878b20898c528752878b20548b811361227f575b5061227a90611d42565b612176565b61228d9061227a9297611f8f565b959061227056fe86165805efb5d8629221a0c54d3adaa3ac6e85c4025ef4221245bac12516f0a1a264697066735822122015eb7beb1aa206e5d3e804d26e5f8edfb78e5b881fe71203cafad9efde68376c64736f6c63430008140033","opcodes":"PUSH1 0x80 CALLVALUE PUSH3 0xF8 JUMPI PUSH1 0x1F PUSH3 0x2413 CODESIZE DUP2 SWAP1 SUB SWAP2 DUP3 ADD PUSH1 0x1F NOT AND DUP4 ADD SWAP2 PUSH1 0x1 PUSH1 0x1 PUSH1 0x40 SHL SUB DUP4 GT DUP5 DUP5 LT OR PUSH3 0xFD JUMPI DUP1 DUP5 SWAP3 PUSH1 0x40 SWAP5 DUP6 MSTORE DUP4 CODECOPY DUP2 ADD SUB SLT PUSH3 0xF8 JUMPI PUSH3 0x5A PUSH1 0x20 PUSH3 0x52 DUP4 PUSH3 0x113 JUMP JUMPDEST SWAP3 ADD PUSH3 0x113 JUMP JUMPDEST PUSH1 0x1 PUSH1 0x0 SSTORE PUSH1 0x1 PUSH1 0x1 PUSH1 0xA0 SHL SUB SWAP1 DUP3 DUP3 AND DUP1 ISZERO PUSH3 0xDF JUMPI PUSH1 0x1 DUP1 SLOAD PUSH2 0x100 PUSH1 0x1 PUSH1 0xA8 SHL SUB NOT DUP2 AND PUSH1 0x8 SWAP7 DUP8 SHL PUSH2 0x100 PUSH1 0x1 PUSH1 0xA8 SHL SUB AND OR SWAP1 SWAP2 SSTORE PUSH1 0x40 MLOAD SWAP5 SHR DUP4 AND PUSH32 0x8BE0079C531659141344CD1FD0A4F28419497F9722A3DAAFE3B4186F6B6457E0 PUSH1 0x0 DUP1 LOG3 AND PUSH1 0x1 DUP1 PUSH1 0xA0 SHL SUB NOT PUSH1 0x2 SLOAD AND OR PUSH1 0x2 SSTORE PUSH2 0x22EA SWAP1 DUP2 PUSH3 0x129 DUP3 CODECOPY RETURN JUMPDEST PUSH1 0x40 MLOAD PUSH4 0x1E4FBDF7 PUSH1 0xE0 SHL DUP2 MSTORE PUSH1 0x0 PUSH1 0x4 DUP3 ADD MSTORE PUSH1 0x24 SWAP1 REVERT JUMPDEST PUSH1 0x0 DUP1 REVERT JUMPDEST PUSH4 0x4E487B71 PUSH1 0xE0 SHL PUSH1 0x0 MSTORE PUSH1 0x41 PUSH1 0x4 MSTORE PUSH1 0x24 PUSH1 0x0 REVERT JUMPDEST MLOAD SWAP1 PUSH1 0x1 PUSH1 0x1 PUSH1 0xA0 SHL SUB DUP3 AND DUP3 SUB PUSH3 0xF8 JUMPI JUMP INVALID PUSH1 0x80 DUP1 PUSH1 0x40 MSTORE PUSH1 0x4 CALLDATASIZE LT ISZERO PUSH2 0x13 JUMPI PUSH1 0x0 DUP1 REVERT JUMPDEST PUSH1 0x0 CALLDATALOAD PUSH1 0xE0 SHR SWAP1 DUP2 PUSH4 0x8DF7DC8 EQ PUSH2 0x1AAD JUMPI POP DUP1 PUSH4 0x11EAC855 EQ PUSH2 0x1A84 JUMPI DUP1 PUSH4 0x2B576F4E EQ PUSH2 0x1A4A JUMPI DUP1 PUSH4 0x3CCFD60B EQ PUSH2 0x1976 JUMPI DUP1 PUSH4 0x3DA04E4A EQ PUSH2 0x18C2 JUMPI DUP1 PUSH4 0x3F4BA83A EQ PUSH2 0x1858 JUMPI DUP1 PUSH4 0x5C975ABB EQ PUSH2 0x1835 JUMPI DUP1 PUSH4 0x60A9E097 EQ PUSH2 0x17DD JUMPI DUP1 PUSH4 0x715018A6 EQ PUSH2 0x177C JUMPI DUP1 PUSH4 0x735E5DB6 EQ PUSH2 0x16CB JUMPI DUP1 PUSH4 0x73BBE9FF EQ PUSH2 0x125E JUMPI DUP1 PUSH4 0x74D0A676 EQ PUSH2 0x10A2 JUMPI DUP1 PUSH4 0x805351A4 EQ PUSH2 0x101D JUMPI DUP1 PUSH4 0x8456CB59 EQ PUSH2 0xFC4 JUMPI DUP1 PUSH4 0x84B971A5 EQ PUSH2 0xFA6 JUMPI DUP1 PUSH4 0x8DA5CB5B EQ PUSH2 0xF79 JUMPI DUP1 PUSH4 0x91A9648A EQ PUSH2 0x153 JUMPI DUP1 PUSH4 0x96324BD4 EQ PUSH2 0xEFB JUMPI DUP1 PUSH4 0xA6A5E2C5 EQ PUSH2 0x8EB JUMPI DUP1 PUSH4 0xAF4AFE0A EQ PUSH2 0x859 JUMPI DUP1 PUSH4 0xB1411D48 EQ PUSH2 0x709 JUMPI DUP1 PUSH4 0xC0657812 EQ PUSH2 0x576 JUMPI DUP1 PUSH4 0xCEB60654 EQ PUSH2 0x4DC JUMPI DUP1 PUSH4 0xD24924FE EQ PUSH2 0x4BE JUMPI DUP1 PUSH4 0xDC2DDCAE EQ PUSH2 0x257 JUMPI DUP1 PUSH4 0xDDCAD2AE EQ PUSH2 0x239 JUMPI DUP1 PUSH4 0xF2FDE38B EQ PUSH2 0x1A0 JUMPI PUSH4 0xFA3BDC46 EQ PUSH2 0x153 JUMPI PUSH1 0x0 DUP1 REVERT JUMPDEST CALLVALUE PUSH2 0x19B JUMPI PUSH1 0x40 CALLDATASIZE PUSH1 0x3 NOT ADD SLT PUSH2 0x19B JUMPI PUSH1 0x1 PUSH1 0x1 PUSH1 0xA0 SHL SUB PUSH2 0x174 PUSH2 0x1B22 JUMP JUMPDEST AND PUSH1 0x0 MSTORE PUSH1 0xA PUSH1 0x20 MSTORE PUSH1 0x40 PUSH1 0x0 KECCAK256 PUSH1 0x24 CALLDATALOAD PUSH1 0x0 MSTORE PUSH1 0x20 MSTORE PUSH1 0x20 PUSH1 0x40 PUSH1 0x0 KECCAK256 SLOAD PUSH1 0x40 MLOAD SWAP1 DUP2 MSTORE RETURN JUMPDEST PUSH1 0x0 DUP1 REVERT JUMPDEST CALLVALUE PUSH2 0x19B JUMPI PUSH1 0x20 CALLDATASIZE PUSH1 0x3 NOT ADD SLT PUSH2 0x19B JUMPI PUSH2 0x1B9 PUSH2 0x1B22 JUMP JUMPDEST PUSH2 0x1C1 PUSH2 0x1D13 JUMP JUMPDEST PUSH1 0x1 PUSH1 0x1 PUSH1 0xA0 SHL SUB DUP2 DUP2 AND SWAP2 DUP3 ISZERO PUSH2 0x220 JUMPI PUSH1 0x1 DUP1 SLOAD PUSH2 0x100 PUSH1 0x1 PUSH1 0xA8 SHL SUB NOT DUP2 AND PUSH1 0x8 SWAP4 DUP5 SHL PUSH2 0x100 PUSH1 0x1 PUSH1 0xA8 SHL SUB AND OR SWAP1 SWAP2 SSTORE SWAP1 SHR AND PUSH32 0x8BE0079C531659141344CD1FD0A4F28419497F9722A3DAAFE3B4186F6B6457E0 PUSH1 0x0 DUP1 LOG3 STOP JUMPDEST PUSH1 0x40 MLOAD PUSH4 0x1E4FBDF7 PUSH1 0xE0 SHL DUP2 MSTORE PUSH1 0x0 PUSH1 0x4 DUP3 ADD MSTORE PUSH1 0x24 SWAP1 REVERT JUMPDEST CALLVALUE PUSH2 0x19B JUMPI PUSH1 0x0 CALLDATASIZE PUSH1 0x3 NOT ADD SLT PUSH2 0x19B JUMPI PUSH1 0x20 PUSH1 0x4 SLOAD PUSH1 0x40 MLOAD SWAP1 DUP2 MSTORE RETURN JUMPDEST CALLVALUE PUSH2 0x19B JUMPI PUSH1 0x20 DUP1 PUSH1 0x3 NOT CALLDATASIZE ADD SLT PUSH2 0x19B JUMPI PUSH8 0xFFFFFFFFFFFFFFFF PUSH1 0x4 CALLDATALOAD DUP2 DUP2 GT PUSH2 0x19B JUMPI PUSH2 0x28A SWAP1 CALLDATASIZE SWAP1 PUSH1 0x4 ADD PUSH2 0x1CE5 JUMP JUMPDEST PUSH2 0x292 PUSH2 0x1DF9 JUMP JUMPDEST DUP1 ISZERO PUSH2 0x479 JUMPI PUSH1 0x3 PUSH2 0x2A4 DUP2 SLOAD PUSH2 0x1D42 JUMP JUMPDEST DUP1 DUP3 SSTORE DUP1 PUSH1 0x0 MSTORE PUSH1 0x6 DUP7 MSTORE PUSH1 0x40 PUSH1 0x0 KECCAK256 SWAP1 DUP2 SSTORE PUSH1 0x1 DUP1 DUP3 ADD SWAP6 DUP5 GT PUSH2 0x463 JUMPI PUSH2 0x2CD DUP7 SLOAD PUSH2 0x1BE3 JUMP JUMPDEST PUSH1 0x1F DUP2 GT PUSH2 0x428 JUMPI JUMPDEST POP PUSH1 0x0 SWAP6 PUSH1 0x1F DUP6 GT PUSH1 0x1 EQ PUSH2 0x3A7 JUMPI DUP5 PUSH32 0x18C62FE73D1B8EC45D443CF56B0C4966349CBB70AB036BA3EBFB065932AD17B0 SWAP6 SWAP7 SWAP8 PUSH1 0x0 SWAP2 PUSH2 0x39C JUMPI JUMPDEST POP PUSH1 0x0 NOT DUP8 DUP7 SHL SHR NOT AND DUP7 DUP4 SHL OR SWAP1 SSTORE JUMPDEST PUSH1 0x2 DUP3 ADD CALLER PUSH1 0x1 PUSH1 0x1 PUSH1 0x60 SHL SUB PUSH1 0xA0 SHL DUP3 SLOAD AND OR SWAP1 SSTORE PUSH2 0x345 CALLER DUP5 DUP5 ADD PUSH2 0x1D68 JUMP JUMPDEST PUSH1 0x4 DUP3 ADD SWAP1 PUSH1 0xFF NOT DUP3 SLOAD AND OR SWAP1 SSTORE PUSH1 0x5 TIMESTAMP SWAP2 ADD SSTORE CALLER PUSH1 0x0 MSTORE PUSH1 0x9 DUP6 MSTORE PUSH2 0x371 PUSH1 0x40 PUSH1 0x0 KECCAK256 DUP3 SLOAD SWAP1 PUSH2 0x1DA3 JUMP JUMPDEST SLOAD SWAP3 DUP4 SWAP3 PUSH2 0x38C PUSH1 0x40 MLOAD SWAP3 DUP4 SWAP3 PUSH1 0x40 DUP5 MSTORE PUSH1 0x40 DUP5 ADD SWAP2 PUSH2 0x1DD8 JUMP JUMPDEST CALLER DUP8 DUP4 ADD MSTORE SUB SWAP1 LOG2 PUSH1 0x40 MLOAD SWAP1 DUP2 MSTORE RETURN JUMPDEST SWAP1 POP DUP8 ADD CALLDATALOAD DUP10 PUSH2 0x312 JUMP JUMPDEST PUSH1 0x1F NOT DUP6 AND SWAP7 DUP2 PUSH1 0x0 MSTORE DUP9 PUSH1 0x0 KECCAK256 SWAP1 PUSH1 0x0 JUMPDEST DUP11 DUP11 DUP3 LT PUSH2 0x414 JUMPI POP POP DUP7 PUSH32 0x18C62FE73D1B8EC45D443CF56B0C4966349CBB70AB036BA3EBFB065932AD17B0 SWAP8 SWAP9 SWAP10 LT PUSH2 0x3FC JUMPI JUMPDEST POP POP DUP2 DUP7 DUP2 SHL ADD SWAP1 SSTORE PUSH2 0x323 JUMP JUMPDEST DUP9 ADD CALLDATALOAD PUSH1 0x0 NOT DUP9 DUP8 SHL PUSH1 0xF8 AND SHR NOT AND SWAP1 SSTORE DUP9 DUP1 PUSH2 0x3EE JUMP JUMPDEST DUP10 DUP4 ADD CALLDATALOAD DUP5 SSTORE SWAP3 DUP6 ADD SWAP3 SWAP2 DUP3 ADD SWAP2 ADD PUSH2 0x3B9 JUMP JUMPDEST PUSH2 0x453 SWAP1 DUP8 PUSH1 0x0 MSTORE DUP9 PUSH1 0x0 KECCAK256 PUSH1 0x1F DUP8 ADD PUSH1 0x5 SHR DUP2 ADD SWAP2 DUP11 DUP9 LT PUSH2 0x459 JUMPI JUMPDEST PUSH1 0x1F ADD PUSH1 0x5 SHR ADD SWAP1 PUSH2 0x1D51 JUMP JUMPDEST DUP8 PUSH2 0x2D6 JUMP JUMPDEST SWAP1 SWAP2 POP DUP2 SWAP1 PUSH2 0x446 JUMP JUMPDEST PUSH4 0x4E487B71 PUSH1 0xE0 SHL PUSH1 0x0 MSTORE PUSH1 0x41 PUSH1 0x4 MSTORE PUSH1 0x24 PUSH1 0x0 REVERT JUMPDEST PUSH1 0x40 MLOAD PUSH3 0x461BCD PUSH1 0xE5 SHL DUP2 MSTORE PUSH1 0x4 DUP2 ADD DUP6 SWAP1 MSTORE PUSH1 0x1A PUSH1 0x24 DUP3 ADD MSTORE PUSH32 0x47726F7570206E616D652063616E6E6F7420626520656D707479000000000000 PUSH1 0x44 DUP3 ADD MSTORE PUSH1 0x64 SWAP1 REVERT JUMPDEST CALLVALUE PUSH2 0x19B JUMPI PUSH1 0x0 CALLDATASIZE PUSH1 0x3 NOT ADD SLT PUSH2 0x19B JUMPI PUSH1 0x20 PUSH1 0x3 SLOAD PUSH1 0x40 MLOAD SWAP1 DUP2 MSTORE RETURN JUMPDEST CALLVALUE PUSH2 0x19B JUMPI PUSH1 0x20 CALLDATASIZE PUSH1 0x3 NOT ADD SLT PUSH2 0x19B JUMPI PUSH1 0x4 CALLDATALOAD PUSH1 0x0 MSTORE PUSH1 0x6 PUSH1 0x20 MSTORE PUSH1 0x40 PUSH1 0x0 KECCAK256 DUP1 SLOAD PUSH1 0x1 DUP1 PUSH1 0xA0 SHL SUB PUSH1 0x2 DUP4 ADD SLOAD AND PUSH1 0xFF PUSH1 0x4 DUP5 ADD SLOAD AND SWAP1 PUSH2 0x565 PUSH1 0x5 DUP6 ADD SLOAD SWAP2 PUSH2 0x536 PUSH1 0x3 PUSH2 0x52F PUSH1 0x1 DUP10 ADD PUSH2 0x1C3F JUMP JUMPDEST SWAP8 ADD PUSH2 0x2069 JUMP JUMPDEST PUSH2 0x552 PUSH1 0x40 MLOAD SWAP8 DUP9 SWAP8 DUP9 MSTORE PUSH1 0xC0 PUSH1 0x20 DUP10 ADD MSTORE PUSH1 0xC0 DUP9 ADD SWAP1 PUSH2 0x1B66 JUMP JUMPDEST SWAP2 PUSH1 0x40 DUP8 ADD MSTORE DUP6 DUP3 SUB PUSH1 0x60 DUP8 ADD MSTORE PUSH2 0x1BA6 JUMP JUMPDEST SWAP2 ISZERO ISZERO PUSH1 0x80 DUP5 ADD MSTORE PUSH1 0xA0 DUP4 ADD MSTORE SUB SWAP1 RETURN JUMPDEST CALLVALUE PUSH2 0x19B JUMPI PUSH1 0x20 DUP1 PUSH1 0x3 NOT CALLDATASIZE ADD SLT PUSH2 0x19B JUMPI PUSH1 0x4 CALLDATALOAD SWAP1 DUP2 ISZERO ISZERO DUP1 PUSH2 0x6FD JUMPI JUMPDEST PUSH2 0x59E SWAP1 PUSH2 0x1E17 JUMP JUMPDEST DUP2 PUSH1 0x0 MSTORE PUSH1 0x6 DUP2 MSTORE PUSH2 0x5BA PUSH1 0xFF PUSH1 0x4 PUSH1 0x40 PUSH1 0x0 KECCAK256 ADD SLOAD AND PUSH2 0x1E56 JUMP JUMPDEST PUSH2 0x5CC PUSH2 0x5C7 CALLER DUP5 PUSH2 0x20ED JUMP JUMPDEST PUSH2 0x1E98 JUMP JUMPDEST PUSH2 0x5D4 PUSH2 0x2046 JUMP JUMPDEST PUSH2 0x5DC PUSH2 0x1DF9 JUMP JUMPDEST CALLER PUSH1 0x0 MSTORE PUSH1 0xA DUP2 MSTORE PUSH1 0x40 PUSH1 0x0 KECCAK256 DUP3 PUSH1 0x0 MSTORE DUP2 MSTORE PUSH1 0x40 PUSH1 0x0 KECCAK256 SLOAD PUSH1 0x0 DUP2 SLT ISZERO PUSH2 0x6C3 JUMPI PUSH1 0x1 PUSH1 0xFF SHL DUP2 EQ PUSH2 0x6AD JUMPI DUP1 PUSH1 0x0 SUB SWAP1 ISZERO PUSH2 0x672 JUMPI PUSH1 0x0 DUP1 MLOAD PUSH1 0x20 PUSH2 0x2295 DUP4 CODECOPY DUP2 MLOAD SWAP2 MSTORE SWAP2 PUSH2 0x65F DUP3 PUSH2 0x641 PUSH1 0x40 SWAP5 PUSH1 0x1 DUP1 PUSH1 0xA0 SHL SUB PUSH1 0x2 SLOAD AND ADDRESS SWAP1 CALLER SWAP1 PUSH2 0x1F9C JUMP JUMPDEST CALLER PUSH1 0x0 MSTORE PUSH1 0xA DUP4 MSTORE DUP4 PUSH1 0x0 KECCAK256 DUP7 PUSH1 0x0 MSTORE DUP4 MSTORE PUSH1 0x0 DUP5 DUP2 KECCAK256 SSTORE DUP6 PUSH2 0x2153 JUMP JUMPDEST PUSH1 0x0 DUP3 MLOAD SWAP2 CALLER DUP4 MSTORE DUP3 ADD MSTORE LOG2 PUSH1 0x1 PUSH1 0x0 SSTORE STOP JUMPDEST PUSH1 0x40 MLOAD PUSH3 0x461BCD PUSH1 0xE5 SHL DUP2 MSTORE PUSH1 0x4 DUP2 ADD DUP4 SWAP1 MSTORE PUSH1 0x13 PUSH1 0x24 DUP3 ADD MSTORE PUSH19 0x139BC81BDD5D1CDD185B991A5B99C81919589D PUSH1 0x6A SHL PUSH1 0x44 DUP3 ADD MSTORE PUSH1 0x64 SWAP1 REVERT JUMPDEST PUSH4 0x4E487B71 PUSH1 0xE0 SHL PUSH1 0x0 MSTORE PUSH1 0x11 PUSH1 0x4 MSTORE PUSH1 0x24 PUSH1 0x0 REVERT JUMPDEST PUSH1 0x40 MLOAD PUSH3 0x461BCD PUSH1 0xE5 SHL DUP2 MSTORE PUSH1 0x4 DUP2 ADD DUP4 SWAP1 MSTORE PUSH1 0x12 PUSH1 0x24 DUP3 ADD MSTORE PUSH18 0x4E6F20646562747320746F20736574746C65 PUSH1 0x70 SHL PUSH1 0x44 DUP3 ADD MSTORE PUSH1 0x64 SWAP1 REVERT JUMPDEST POP PUSH1 0x3 SLOAD DUP3 GT ISZERO PUSH2 0x595 JUMP JUMPDEST CALLVALUE PUSH2 0x19B JUMPI PUSH1 0x20 DUP1 PUSH1 0x3 NOT CALLDATASIZE ADD SLT PUSH2 0x19B JUMPI PUSH1 0x4 CALLDATALOAD DUP1 PUSH1 0x0 MSTORE PUSH1 0x6 DUP3 MSTORE PUSH1 0x3 DUP1 PUSH1 0x40 PUSH1 0x0 KECCAK256 ADD SWAP3 DUP4 SLOAD PUSH2 0x73B DUP2 PUSH2 0x20C1 JUMP JUMPDEST SWAP4 PUSH2 0x749 PUSH1 0x40 MLOAD SWAP6 DUP7 PUSH2 0x1C1D JUMP JUMPDEST DUP2 DUP6 MSTORE PUSH1 0x1F NOT SWAP4 DUP5 PUSH2 0x75A DUP5 PUSH2 0x20C1 JUMP JUMPDEST ADD CALLDATASIZE DUP6 DUP9 ADD CALLDATACOPY PUSH2 0x769 DUP4 PUSH2 0x20C1 JUMP JUMPDEST SWAP7 PUSH2 0x777 PUSH1 0x40 MLOAD SWAP9 DUP10 PUSH2 0x1C1D JUMP JUMPDEST DUP4 DUP9 MSTORE PUSH2 0x783 DUP5 PUSH2 0x20C1 JUMP JUMPDEST DUP9 DUP7 ADD SWAP7 ADD CALLDATASIZE DUP8 CALLDATACOPY PUSH1 0x0 JUMPDEST DUP5 DUP2 LT PUSH2 0x7EA JUMPI PUSH2 0x7B1 DUP9 DUP9 DUP9 DUP13 DUP2 PUSH1 0x40 MLOAD SWAP6 DUP7 SWAP6 PUSH1 0x40 DUP8 MSTORE PUSH1 0x40 DUP8 ADD SWAP1 PUSH2 0x1BA6 JUMP JUMPDEST SWAP2 DUP6 DUP4 SUB DUP3 DUP8 ADD MSTORE MLOAD SWAP2 DUP3 DUP2 MSTORE ADD SWAP3 SWAP2 PUSH1 0x0 JUMPDEST DUP3 DUP2 LT PUSH2 0x7D3 JUMPI POP POP POP POP SUB SWAP1 RETURN JUMPDEST DUP4 MLOAD DUP6 MSTORE DUP7 SWAP6 POP SWAP4 DUP2 ADD SWAP4 SWAP3 DUP2 ADD SWAP3 PUSH1 0x1 ADD PUSH2 0x7C4 JUMP JUMPDEST DUP1 PUSH2 0x7FC PUSH2 0x850 SWAP3 DUP5 SWAP12 SWAP10 SWAP11 SWAP12 PUSH2 0x1B38 JUMP JUMPDEST SWAP1 SLOAD PUSH1 0x1 PUSH1 0x1 PUSH1 0xA0 SHL SUB SWAP2 DUP7 SHL SHR DUP2 AND PUSH2 0x816 DUP4 DUP14 PUSH2 0x20D9 JUMP JUMPDEST MSTORE PUSH2 0x821 DUP3 DUP6 PUSH2 0x1B38 JUMP JUMPDEST SWAP1 SLOAD SWAP1 DUP7 SHL SHR AND PUSH1 0x0 MSTORE PUSH1 0xA DUP8 MSTORE PUSH1 0x40 PUSH1 0x0 KECCAK256 DUP6 PUSH1 0x0 MSTORE DUP8 MSTORE PUSH1 0x40 PUSH1 0x0 KECCAK256 SLOAD PUSH2 0x84A DUP3 DUP11 PUSH2 0x20D9 JUMP JUMPDEST MSTORE PUSH2 0x1D42 JUMP JUMPDEST SWAP8 SWAP7 SWAP6 SWAP8 PUSH2 0x78E JUMP JUMPDEST CALLVALUE PUSH2 0x19B JUMPI PUSH1 0x20 CALLDATASIZE PUSH1 0x3 NOT ADD SLT PUSH2 0x19B JUMPI PUSH1 0x4 CALLDATALOAD PUSH1 0x0 MSTORE PUSH1 0x7 PUSH1 0x20 MSTORE PUSH1 0x40 PUSH1 0x0 KECCAK256 DUP1 SLOAD PUSH1 0x1 DUP3 ADD SLOAD SWAP2 PUSH2 0x88E PUSH1 0x2 DUP3 ADD PUSH2 0x1C3F JUMP JUMPDEST PUSH1 0x3 DUP3 ADD SLOAD SWAP2 PUSH1 0x1 DUP1 PUSH1 0xA0 SHL SUB PUSH1 0x4 DUP3 ADD SLOAD AND PUSH2 0x8D0 PUSH1 0x8 PUSH1 0xFF PUSH1 0x7 DUP6 ADD SLOAD AND SWAP4 ADD SLOAD SWAP4 PUSH1 0x40 MLOAD SWAP8 DUP9 SWAP8 DUP9 MSTORE PUSH1 0x20 DUP9 ADD MSTORE PUSH1 0xE0 PUSH1 0x40 DUP9 ADD MSTORE PUSH1 0xE0 DUP8 ADD SWAP1 PUSH2 0x1B66 JUMP JUMPDEST SWAP4 PUSH1 0x60 DUP7 ADD MSTORE PUSH1 0x80 DUP6 ADD MSTORE ISZERO ISZERO PUSH1 0xA0 DUP5 ADD MSTORE PUSH1 0xC0 DUP4 ADD MSTORE SUB SWAP1 RETURN JUMPDEST CALLVALUE PUSH2 0x19B JUMPI PUSH1 0x80 CALLDATASIZE PUSH1 0x3 NOT ADD SLT PUSH2 0x19B JUMPI PUSH8 0xFFFFFFFFFFFFFFFF PUSH1 0x24 CALLDATALOAD DUP2 DUP2 GT PUSH2 0x19B JUMPI PUSH2 0x91D SWAP1 CALLDATASIZE SWAP1 PUSH1 0x4 ADD PUSH2 0x1CE5 JUMP JUMPDEST PUSH1 0x64 SWAP3 DUP4 CALLDATALOAD SWAP1 DUP1 DUP3 GT PUSH2 0x19B JUMPI CALLDATASIZE PUSH1 0x23 DUP4 ADD SLT ISZERO PUSH2 0x19B JUMPI DUP1 DUP3 PUSH1 0x4 ADD CALLDATALOAD GT PUSH2 0x19B JUMPI CALLDATASIZE PUSH1 0x24 DUP4 PUSH1 0x4 ADD CALLDATALOAD PUSH1 0x5 SHL DUP5 ADD ADD GT PUSH2 0x19B JUMPI PUSH1 0x4 CALLDATALOAD ISZERO ISZERO DUP1 PUSH2 0xEED JUMPI JUMPDEST PUSH2 0x967 SWAP1 PUSH2 0x1E17 JUMP JUMPDEST PUSH1 0x4 CALLDATALOAD PUSH1 0x0 MSTORE PUSH1 0x6 PUSH1 0x20 MSTORE PUSH2 0x986 PUSH1 0xFF PUSH1 0x4 PUSH1 0x40 PUSH1 0x0 KECCAK256 ADD SLOAD AND PUSH2 0x1E56 JUMP JUMPDEST PUSH2 0x995 PUSH2 0x5C7 CALLER PUSH1 0x4 CALLDATALOAD PUSH2 0x20ED JUMP JUMPDEST PUSH2 0x99D PUSH2 0x1DF9 JUMP JUMPDEST DUP3 ISZERO PUSH2 0xEA9 JUMPI PUSH1 0x44 SWAP5 PUSH2 0x9B2 DUP7 CALLDATALOAD ISZERO ISZERO PUSH2 0x1ED9 JUMP JUMPDEST DUP3 PUSH1 0x4 ADD CALLDATALOAD ISZERO PUSH2 0xE6F JUMPI PUSH1 0x4 CALLDATALOAD PUSH1 0x0 MSTORE PUSH1 0x6 PUSH1 0x20 MSTORE PUSH1 0x3 PUSH1 0x40 PUSH1 0x0 KECCAK256 ADD SLOAD DUP4 PUSH1 0x4 ADD CALLDATALOAD GT PUSH2 0xE36 JUMPI PUSH1 0x0 JUMPDEST DUP4 PUSH1 0x4 ADD CALLDATALOAD DUP2 LT PUSH2 0xDC1 JUMPI POP POP PUSH2 0x9F5 PUSH1 0x4 SLOAD PUSH2 0x1D42 JUMP JUMPDEST SWAP1 DUP2 PUSH1 0x4 SSTORE DUP2 PUSH1 0x0 MSTORE PUSH1 0x7 PUSH1 0x20 MSTORE PUSH1 0x40 PUSH1 0x0 KECCAK256 SWAP2 DUP3 SSTORE PUSH1 0x4 CALLDATALOAD PUSH1 0x1 DUP4 ADD SSTORE DUP4 GT PUSH2 0x463 JUMPI PUSH2 0xA26 PUSH1 0x2 DUP3 ADD SLOAD PUSH2 0x1BE3 JUMP JUMPDEST PUSH1 0x1F DUP2 GT PUSH2 0xD8C JUMPI JUMPDEST POP DUP3 PUSH1 0x0 PUSH1 0x1F DUP3 GT PUSH1 0x1 EQ PUSH2 0xD1E JUMPI PUSH1 0x0 SWAP2 PUSH2 0xD13 JUMPI JUMPDEST POP DUP4 PUSH1 0x1 SHL SWAP1 PUSH1 0x0 NOT DUP6 PUSH1 0x3 SHL SHR NOT AND OR PUSH1 0x2 DUP3 ADD SSTORE JUMPDEST DUP5 CALLDATALOAD PUSH1 0x3 DUP3 ADD SSTORE PUSH1 0x4 DUP2 ADD CALLER PUSH1 0x1 PUSH1 0x1 PUSH1 0x60 SHL SUB PUSH1 0xA0 SHL DUP3 SLOAD AND OR SWAP1 SSTORE PUSH1 0x5 DUP2 ADD PUSH1 0x1 PUSH1 0x40 SHL DUP4 PUSH1 0x4 ADD CALLDATALOAD GT PUSH2 0x463 JUMPI DUP1 SLOAD PUSH1 0x4 DUP5 ADD CALLDATALOAD DUP1 DUP4 SSTORE DUP2 GT PUSH2 0xCF1 JUMPI JUMPDEST POP PUSH1 0x24 DUP4 ADD SWAP1 PUSH1 0x0 MSTORE PUSH1 0x20 PUSH1 0x0 KECCAK256 SWAP1 PUSH1 0x0 JUMPDEST DUP5 PUSH1 0x4 ADD CALLDATALOAD DUP2 LT PUSH2 0xCD6 JUMPI POP POP POP PUSH1 0x7 DUP2 ADD PUSH1 0x1 PUSH1 0xFF NOT DUP3 SLOAD AND OR SWAP1 SSTORE PUSH1 0x8 TIMESTAMP SWAP2 ADD SSTORE PUSH2 0xAE2 DUP2 PUSH1 0x4 ADD CALLDATALOAD DUP6 CALLDATALOAD PUSH2 0x1F49 JUMP JUMPDEST PUSH2 0xAF1 DUP3 PUSH1 0x4 ADD CALLDATALOAD DUP7 CALLDATALOAD PUSH2 0x1F69 JUMP JUMPDEST SWAP2 CALLER PUSH1 0x0 MSTORE PUSH1 0xA PUSH1 0x20 MSTORE PUSH1 0x40 PUSH1 0x0 KECCAK256 PUSH1 0x4 CALLDATALOAD PUSH1 0x0 MSTORE PUSH1 0x20 MSTORE PUSH1 0x40 PUSH1 0x0 KECCAK256 PUSH2 0xB1A DUP8 CALLDATALOAD DUP3 SLOAD PUSH2 0x1F73 JUMP JUMPDEST SWAP1 SSTORE PUSH1 0x0 JUMPDEST DUP2 PUSH1 0x4 ADD CALLDATALOAD DUP2 LT PUSH2 0xBC2 JUMPI PUSH1 0x20 PUSH2 0xB6B DUP9 DUP9 PUSH32 0x7B0CA01B30804959458F2B66D8C41C1F282377133D5816D4958E9D381CA48CB8 DUP10 PUSH1 0x4 SLOAD SWAP5 DUP6 SWAP4 PUSH1 0x40 MLOAD SWAP3 PUSH1 0x60 DUP5 MSTORE PUSH1 0x60 DUP5 ADD SWAP2 PUSH2 0x1DD8 JUMP JUMPDEST SWAP4 CALLDATALOAD DUP7 DUP3 ADD MSTORE CALLER PUSH1 0x40 DUP3 ADD MSTORE DUP1 PUSH1 0x4 CALLDATALOAD SWAP5 SUB SWAP1 LOG3 CALLER PUSH1 0x0 DUP2 DUP2 MSTORE PUSH1 0xA DUP5 MSTORE PUSH1 0x40 DUP1 DUP3 KECCAK256 PUSH1 0x4 CALLDATALOAD DUP1 DUP5 MSTORE SWAP1 DUP7 MSTORE SWAP2 DUP2 SWAP1 KECCAK256 SLOAD DUP2 MLOAD SWAP4 DUP5 MSTORE PUSH1 0x20 DUP5 ADD MSTORE SWAP1 SWAP2 PUSH1 0x0 DUP1 MLOAD PUSH1 0x20 PUSH2 0x2295 DUP4 CODECOPY DUP2 MLOAD SWAP2 MSTORE SWAP2 SWAP1 LOG2 PUSH1 0x40 MLOAD SWAP1 DUP2 MSTORE RETURN JUMPDEST DUP3 SWAP1 DUP5 DUP2 LT PUSH2 0xCC0 JUMPI JUMPDEST PUSH1 0x1 PUSH1 0x1 PUSH1 0xA0 SHL SUB PUSH2 0xBEE PUSH2 0xBE9 DUP4 PUSH1 0x4 DUP8 ADD CALLDATALOAD PUSH1 0x24 DUP9 ADD PUSH2 0x1F25 JUMP JUMPDEST PUSH2 0x1F35 JUMP JUMPDEST AND PUSH1 0x0 MSTORE PUSH1 0xA PUSH1 0x20 MSTORE PUSH1 0x40 PUSH1 0x0 KECCAK256 PUSH1 0x4 CALLDATALOAD PUSH1 0x0 MSTORE PUSH1 0x20 MSTORE PUSH1 0x40 PUSH1 0x0 KECCAK256 DUP1 SLOAD SWAP3 PUSH1 0x0 DUP2 SLT DUP5 DUP3 DUP2 SUB SLT DUP2 AND SWAP1 DUP6 DUP4 DUP2 SUB SGT SWAP1 ISZERO AND OR PUSH2 0x6AD JUMPI PUSH2 0xCBB SWAP4 SUB SWAP1 SSTORE PUSH2 0xC42 PUSH2 0xBE9 DUP3 DUP6 PUSH1 0x4 ADD CALLDATALOAD PUSH1 0x24 DUP8 ADD PUSH2 0x1F25 JUMP JUMPDEST PUSH1 0x1 PUSH1 0x1 PUSH1 0xA0 SHL SUB PUSH2 0xC5F PUSH2 0xBE9 DUP5 PUSH1 0x4 DUP9 ADD CALLDATALOAD PUSH1 0x24 DUP10 ADD PUSH2 0x1F25 JUMP JUMPDEST AND PUSH1 0x0 MSTORE PUSH1 0xA PUSH1 0x20 MSTORE PUSH1 0x40 PUSH1 0x0 KECCAK256 PUSH1 0x4 CALLDATALOAD PUSH1 0x0 MSTORE PUSH1 0x20 MSTORE PUSH1 0x0 DUP1 MLOAD PUSH1 0x20 PUSH2 0x2295 DUP4 CODECOPY DUP2 MLOAD SWAP2 MSTORE PUSH2 0xCB3 PUSH1 0x40 PUSH1 0x0 KECCAK256 SLOAD PUSH1 0x40 MLOAD SWAP2 DUP3 SWAP2 PUSH1 0x4 CALLDATALOAD SWAP6 DUP4 PUSH1 0x20 SWAP1 SWAP4 SWAP3 SWAP2 SWAP4 PUSH1 0x40 DUP2 ADD SWAP5 PUSH1 0x1 DUP1 PUSH1 0xA0 SHL SUB AND DUP2 MSTORE ADD MSTORE JUMP JUMPDEST SUB SWAP1 LOG2 PUSH2 0x1D42 JUMP JUMPDEST PUSH2 0xB1F JUMP JUMPDEST SWAP1 POP PUSH1 0x1 DUP4 ADD DUP4 GT PUSH2 0x6AD JUMPI PUSH1 0x1 DUP4 ADD SWAP1 PUSH2 0xBCC JUMP JUMPDEST PUSH1 0x1 SWAP1 PUSH1 0x20 PUSH2 0xCE4 DUP5 PUSH2 0x1F35 JUMP JUMPDEST SWAP4 ADD SWAP3 DUP2 DUP6 ADD SSTORE ADD PUSH2 0xAB0 JUMP JUMPDEST PUSH2 0xD0D SWAP1 DUP3 PUSH1 0x0 MSTORE PUSH1 0x20 PUSH1 0x0 KECCAK256 SWAP1 DUP2 ADD SWAP1 DUP6 PUSH1 0x4 ADD CALLDATALOAD ADD PUSH2 0x1D51 JUMP JUMPDEST DUP7 PUSH2 0xA9E JUMP JUMPDEST SWAP1 POP DUP5 ADD CALLDATALOAD DUP7 PUSH2 0xA46 JUMP JUMPDEST SWAP1 POP PUSH1 0x2 DUP3 ADD PUSH1 0x0 MSTORE PUSH1 0x20 PUSH1 0x0 KECCAK256 SWAP1 PUSH1 0x0 JUMPDEST PUSH1 0x1F NOT DUP7 AND DUP2 LT PUSH2 0xD74 JUMPI POP DUP5 PUSH1 0x1F NOT DUP2 AND LT PUSH2 0xD5A JUMPI JUMPDEST POP POP PUSH1 0x1 DUP4 DUP2 SHL ADD PUSH1 0x2 DUP3 ADD SSTORE PUSH2 0xA5D JUMP JUMPDEST DUP6 ADD CALLDATALOAD PUSH1 0x0 NOT PUSH1 0x3 DUP7 SWAP1 SHL PUSH1 0xF8 AND SHR NOT AND SWAP1 SSTORE DUP6 DUP1 PUSH2 0xD48 JUMP JUMPDEST SWAP1 SWAP2 PUSH1 0x20 PUSH1 0x1 DUP2 SWAP3 DUP6 DUP11 ADD CALLDATALOAD DUP2 SSTORE ADD SWAP4 ADD SWAP2 ADD PUSH2 0xD30 JUMP JUMPDEST PUSH2 0xDBB SWAP1 PUSH1 0x2 DUP4 ADD PUSH1 0x0 MSTORE PUSH1 0x20 PUSH1 0x0 KECCAK256 PUSH1 0x1F DUP7 ADD PUSH1 0x5 SHR DUP2 ADD SWAP2 PUSH1 0x20 DUP8 LT PUSH2 0x459 JUMPI PUSH1 0x1F ADD PUSH1 0x5 SHR ADD SWAP1 PUSH2 0x1D51 JUMP JUMPDEST DUP6 PUSH2 0xA2F JUMP JUMPDEST PUSH2 0xDE1 PUSH2 0xDD9 PUSH2 0xBE9 DUP4 DUP8 PUSH1 0x4 ADD CALLDATALOAD PUSH1 0x24 DUP10 ADD PUSH2 0x1F25 JUMP JUMPDEST PUSH1 0x4 CALLDATALOAD PUSH2 0x20ED JUMP JUMPDEST ISZERO PUSH2 0xDF4 JUMPI PUSH2 0xDEF SWAP1 PUSH2 0x1D42 JUMP JUMPDEST PUSH2 0x9DD JUMP JUMPDEST POP PUSH1 0x40 MLOAD PUSH3 0x461BCD PUSH1 0xE5 SHL DUP2 MSTORE PUSH1 0x20 PUSH1 0x4 DUP3 ADD MSTORE PUSH1 0x18 PUSH1 0x24 DUP3 ADD MSTORE PUSH32 0x5061727469636970616E74206E6F7420696E2067726F75700000000000000000 DUP2 DUP9 ADD MSTORE REVERT JUMPDEST PUSH1 0x40 MLOAD PUSH3 0x461BCD PUSH1 0xE5 SHL DUP2 MSTORE PUSH1 0x20 PUSH1 0x4 DUP3 ADD MSTORE PUSH1 0x15 PUSH1 0x24 DUP3 ADD MSTORE PUSH21 0x546F6F206D616E79207061727469636970616E7473 PUSH1 0x58 SHL DUP2 DUP9 ADD MSTORE REVERT JUMPDEST PUSH1 0x40 MLOAD PUSH3 0x461BCD PUSH1 0xE5 SHL DUP2 MSTORE PUSH1 0x20 PUSH1 0x4 DUP3 ADD MSTORE PUSH1 0x16 PUSH1 0x24 DUP3 ADD MSTORE PUSH22 0x4D7573742068617665207061727469636970616E7473 PUSH1 0x50 SHL DUP2 DUP9 ADD MSTORE REVERT JUMPDEST PUSH1 0x40 MLOAD PUSH3 0x461BCD PUSH1 0xE5 SHL DUP2 MSTORE PUSH1 0x20 PUSH1 0x4 DUP3 ADD MSTORE PUSH1 0x1B PUSH1 0x24 DUP3 ADD MSTORE PUSH32 0x4465736372697074696F6E2063616E6E6F7420626520656D7074790000000000 PUSH1 0x44 DUP3 ADD MSTORE DUP6 SWAP1 REVERT JUMPDEST POP PUSH1 0x3 SLOAD PUSH1 0x4 CALLDATALOAD GT ISZERO PUSH2 0x95E JUMP JUMPDEST CALLVALUE PUSH2 0x19B JUMPI PUSH1 0x20 CALLDATASIZE PUSH1 0x3 NOT ADD SLT PUSH2 0x19B JUMPI PUSH1 0x4 CALLDATALOAD PUSH1 0x0 MSTORE PUSH1 0x6 PUSH1 0x20 MSTORE PUSH1 0x40 PUSH1 0x0 KECCAK256 DUP1 SLOAD PUSH2 0xF2A PUSH1 0x1 DUP4 ADD PUSH2 0x1C3F JUMP JUMPDEST SWAP2 PUSH1 0x1 DUP1 PUSH1 0xA0 SHL SUB PUSH1 0x2 DUP3 ADD SLOAD AND SWAP1 PUSH1 0x5 PUSH1 0xFF PUSH1 0x4 DUP4 ADD SLOAD AND SWAP2 ADD SLOAD SWAP1 PUSH2 0xF63 PUSH1 0x40 MLOAD SWAP6 DUP7 SWAP6 DUP7 MSTORE PUSH1 0xA0 PUSH1 0x20 DUP8 ADD MSTORE PUSH1 0xA0 DUP7 ADD SWAP1 PUSH2 0x1B66 JUMP JUMPDEST SWAP3 PUSH1 0x40 DUP6 ADD MSTORE ISZERO ISZERO PUSH1 0x60 DUP5 ADD MSTORE PUSH1 0x80 DUP4 ADD MSTORE SUB SWAP1 RETURN JUMPDEST CALLVALUE PUSH2 0x19B JUMPI PUSH1 0x0 CALLDATASIZE PUSH1 0x3 NOT ADD SLT PUSH2 0x19B JUMPI PUSH1 0x1 SLOAD PUSH1 0x40 MLOAD PUSH1 0x8 SWAP2 SWAP1 SWAP2 SHR PUSH1 0x1 PUSH1 0x1 PUSH1 0xA0 SHL SUB AND DUP2 MSTORE PUSH1 0x20 SWAP1 RETURN JUMPDEST CALLVALUE PUSH2 0x19B JUMPI PUSH1 0x0 CALLDATASIZE PUSH1 0x3 NOT ADD SLT PUSH2 0x19B JUMPI PUSH1 0x20 PUSH1 0x5 SLOAD PUSH1 0x40 MLOAD SWAP1 DUP2 MSTORE RETURN JUMPDEST CALLVALUE PUSH2 0x19B JUMPI PUSH1 0x0 CALLDATASIZE PUSH1 0x3 NOT ADD SLT PUSH2 0x19B JUMPI PUSH2 0xFDD PUSH2 0x1D13 JUMP JUMPDEST PUSH2 0xFE5 PUSH2 0x1DF9 JUMP JUMPDEST PUSH1 0x1 PUSH1 0xFF NOT DUP2 SLOAD AND OR PUSH1 0x1 SSTORE PUSH32 0x62E78CEA01BEE320CD4E420270B5EA74000D11B0C9F74754EBDBFC544B05A258 PUSH1 0x20 PUSH1 0x40 MLOAD CALLER DUP2 MSTORE LOG1 STOP JUMPDEST CALLVALUE PUSH2 0x19B JUMPI PUSH1 0x20 CALLDATASIZE PUSH1 0x3 NOT ADD SLT PUSH2 0x19B JUMPI PUSH2 0x1036 PUSH2 0x1B22 JUMP JUMPDEST PUSH2 0x103E PUSH2 0x1D13 JUMP JUMPDEST PUSH1 0x1 PUSH1 0x1 PUSH1 0xA0 SHL SUB AND DUP1 ISZERO PUSH2 0x1065 JUMPI PUSH1 0x1 PUSH1 0x1 PUSH1 0x60 SHL SUB PUSH1 0xA0 SHL PUSH1 0x2 SLOAD AND OR PUSH1 0x2 SSTORE PUSH1 0x0 DUP1 RETURN JUMPDEST PUSH1 0x40 MLOAD PUSH3 0x461BCD PUSH1 0xE5 SHL DUP2 MSTORE PUSH1 0x20 PUSH1 0x4 DUP3 ADD MSTORE PUSH1 0x15 PUSH1 0x24 DUP3 ADD MSTORE PUSH21 0x496E76616C696420746F6B656E2061646472657373 PUSH1 0x58 SHL PUSH1 0x44 DUP3 ADD MSTORE PUSH1 0x64 SWAP1 REVERT JUMPDEST CALLVALUE PUSH2 0x19B JUMPI PUSH1 0x40 CALLDATASIZE PUSH1 0x3 NOT ADD SLT PUSH2 0x19B JUMPI PUSH1 0x4 CALLDATALOAD PUSH1 0x1 PUSH1 0x1 PUSH1 0xA0 SHL SUB PUSH1 0x24 CALLDATALOAD DUP2 DUP2 AND SWAP1 DUP2 DUP2 SUB PUSH2 0x19B JUMPI DUP4 ISZERO ISZERO DUP1 PUSH2 0x1252 JUMPI JUMPDEST PUSH2 0x10DE SWAP1 PUSH2 0x1E17 JUMP JUMPDEST DUP4 PUSH1 0x0 MSTORE PUSH1 0x20 SWAP3 PUSH1 0x6 DUP5 MSTORE PUSH2 0x10FD PUSH1 0xFF PUSH1 0x4 PUSH1 0x40 PUSH1 0x0 KECCAK256 ADD SLOAD AND PUSH2 0x1E56 JUMP JUMPDEST PUSH2 0x1105 PUSH2 0x1DF9 JUMP JUMPDEST DUP5 PUSH1 0x0 MSTORE PUSH1 0x6 DUP5 MSTORE PUSH1 0x2 PUSH1 0x40 PUSH1 0x0 KECCAK256 ADD SLOAD AND CALLER SUB PUSH2 0x1202 JUMPI DUP2 ISZERO PUSH2 0x11C4 JUMPI PUSH2 0x112D DUP2 DUP6 PUSH2 0x20ED JUMP JUMPDEST PUSH2 0x118C JUMPI SWAP1 PUSH2 0x116D PUSH32 0xF328AC0F8BCAE00933FE87BA0AA2D0D505C1DF94BC9C1AA05B8441C28B74032C SWAP4 SWAP3 DUP6 PUSH1 0x0 MSTORE PUSH1 0x6 DUP5 MSTORE PUSH1 0x3 PUSH1 0x40 PUSH1 0x0 KECCAK256 ADD PUSH2 0x1D68 JUMP JUMPDEST DUP1 PUSH1 0x0 MSTORE PUSH1 0x9 DUP3 MSTORE PUSH2 0x1183 DUP5 PUSH1 0x40 PUSH1 0x0 KECCAK256 PUSH2 0x1DA3 JUMP JUMPDEST PUSH1 0x40 MLOAD SWAP1 DUP2 MSTORE LOG2 STOP JUMPDEST PUSH1 0x40 MLOAD PUSH3 0x461BCD PUSH1 0xE5 SHL DUP2 MSTORE PUSH1 0x4 DUP2 ADD DUP5 SWAP1 MSTORE PUSH1 0x10 PUSH1 0x24 DUP3 ADD MSTORE PUSH16 0x20B63932B0B23C90309036B2B6B132B9 PUSH1 0x81 SHL PUSH1 0x44 DUP3 ADD MSTORE PUSH1 0x64 SWAP1 REVERT JUMPDEST PUSH1 0x40 MLOAD PUSH3 0x461BCD PUSH1 0xE5 SHL DUP2 MSTORE PUSH1 0x4 DUP2 ADD DUP5 SWAP1 MSTORE PUSH1 0x16 PUSH1 0x24 DUP3 ADD MSTORE PUSH22 0x496E76616C6964206D656D6265722061646472657373 PUSH1 0x50 SHL PUSH1 0x44 DUP3 ADD MSTORE PUSH1 0x64 SWAP1 REVERT JUMPDEST PUSH1 0x40 MLOAD PUSH3 0x461BCD PUSH1 0xE5 SHL DUP2 MSTORE PUSH1 0x4 DUP2 ADD DUP5 SWAP1 MSTORE PUSH1 0x22 PUSH1 0x24 DUP3 ADD MSTORE PUSH32 0x4F6E6C792067726F75702063726561746F722063616E20616464206D656D6265 PUSH1 0x44 DUP3 ADD MSTORE PUSH2 0x7273 PUSH1 0xF0 SHL PUSH1 0x64 DUP3 ADD MSTORE PUSH1 0x84 SWAP1 REVERT JUMPDEST POP PUSH1 0x3 SLOAD DUP5 GT ISZERO PUSH2 0x10D5 JUMP JUMPDEST CALLVALUE PUSH2 0x19B JUMPI PUSH1 0x40 CALLDATASIZE PUSH1 0x3 NOT ADD SLT PUSH2 0x19B JUMPI PUSH2 0x1277 PUSH2 0x2046 JUMP JUMPDEST PUSH2 0x127F PUSH2 0x1DF9 JUMP JUMPDEST PUSH1 0x4 CALLDATALOAD ISZERO ISZERO DUP1 PUSH2 0x16BD JUMPI JUMPDEST ISZERO PUSH2 0x1683 JUMPI PUSH2 0x129C PUSH1 0x24 CALLDATALOAD ISZERO ISZERO PUSH2 0x1ED9 JUMP JUMPDEST PUSH1 0x4 CALLDATALOAD PUSH1 0x0 MSTORE PUSH1 0x7 PUSH1 0x20 MSTORE PUSH1 0x40 PUSH1 0x0 KECCAK256 PUSH1 0xFF PUSH1 0x7 DUP3 ADD SLOAD AND ISZERO PUSH2 0x1649 JUMPI CALLER PUSH1 0x0 MSTORE PUSH1 0x6 DUP2 ADD PUSH1 0x20 MSTORE PUSH1 0xFF PUSH1 0x40 PUSH1 0x0 KECCAK256 SLOAD AND PUSH2 0x1612 JUMPI PUSH1 0x1 DUP2 ADD SLOAD SWAP1 PUSH2 0x12E4 PUSH2 0x5C7 CALLER DUP5 PUSH2 0x20ED JUMP JUMPDEST PUSH1 0x3 DUP2 ADD SLOAD SWAP1 PUSH1 0x5 DUP2 ADD SLOAD SWAP2 PUSH2 0x1304 DUP4 PUSH2 0x12FE DUP2 DUP5 PUSH2 0x1F49 JUMP JUMPDEST SWAP3 PUSH2 0x1F69 JUMP JUMPDEST PUSH1 0x0 JUMPDEST DUP5 DUP2 LT DUP1 PUSH2 0x1609 JUMPI JUMPDEST ISZERO PUSH2 0x15FF JUMPI PUSH2 0x1322 DUP2 PUSH1 0x5 DUP7 ADD PUSH2 0x1B38 JUMP JUMPDEST SWAP1 SLOAD PUSH1 0x3 SWAP2 SWAP1 SWAP2 SHL SHR PUSH1 0x1 PUSH1 0x1 PUSH1 0xA0 SHL SUB AND CALLER EQ PUSH2 0x1348 JUMPI PUSH2 0x1343 SWAP1 PUSH2 0x1D42 JUMP JUMPDEST PUSH2 0x1307 JUMP JUMPDEST POP POP SWAP1 SWAP2 POP PUSH1 0x1 DUP2 ADD DUP1 SWAP2 GT PUSH2 0x6AD JUMPI JUMPDEST PUSH1 0x24 CALLDATALOAD LT PUSH2 0x15BA JUMPI PUSH1 0x2 SLOAD PUSH2 0x137E SWAP1 PUSH1 0x24 CALLDATALOAD SWAP1 ADDRESS SWAP1 CALLER SWAP1 PUSH1 0x1 PUSH1 0x1 PUSH1 0xA0 SHL SUB AND PUSH2 0x1F9C JUMP JUMPDEST CALLER PUSH1 0x0 MSTORE PUSH1 0x6 DUP2 ADD PUSH1 0x20 MSTORE PUSH1 0x40 PUSH1 0x0 KECCAK256 PUSH1 0x1 PUSH1 0xFF NOT DUP3 SLOAD AND OR SWAP1 SSTORE PUSH1 0xA PUSH1 0x20 MSTORE PUSH1 0x40 PUSH1 0x0 KECCAK256 DUP3 PUSH1 0x0 MSTORE PUSH1 0x20 MSTORE PUSH1 0x40 PUSH1 0x0 KECCAK256 PUSH2 0x13BC PUSH1 0x24 CALLDATALOAD DUP3 SLOAD PUSH2 0x1F73 JUMP JUMPDEST SWAP1 SSTORE PUSH1 0x1 DUP1 PUSH1 0xA0 SHL SUB PUSH1 0x4 DUP3 ADD SLOAD AND PUSH1 0x0 MSTORE PUSH1 0xB PUSH1 0x20 MSTORE PUSH1 0x40 PUSH1 0x0 KECCAK256 PUSH2 0x13E5 PUSH1 0x24 CALLDATALOAD DUP3 SLOAD PUSH2 0x1F8F JUMP JUMPDEST SWAP1 SSTORE PUSH2 0x13F2 PUSH1 0x5 SLOAD PUSH2 0x1D42 JUMP JUMPDEST DUP1 PUSH1 0x5 SSTORE PUSH1 0x1 DUP1 PUSH1 0xA0 SHL SUB PUSH1 0x4 DUP4 ADD SLOAD AND PUSH1 0x40 MLOAD SWAP2 PUSH1 0x20 DUP4 ADD SWAP1 PUSH1 0x4 CALLDATALOAD DUP3 MSTORE PUSH1 0x20 DUP5 MSTORE PUSH8 0xFFFFFFFFFFFFFFFF SWAP2 DUP5 PUSH1 0x40 DUP2 ADD LT DUP4 PUSH1 0x40 DUP8 ADD GT OR PUSH2 0x463 JUMPI PUSH1 0x40 DUP6 ADD PUSH1 0x40 MSTORE DUP5 MLOAD SWAP1 KECCAK256 SWAP2 PUSH1 0x40 DUP6 ADD PUSH2 0x120 DUP7 ADD LT SWAP1 PUSH2 0x120 DUP7 ADD GT OR PUSH2 0x463 JUMPI PUSH2 0x120 DUP5 ADD PUSH1 0x40 SWAP1 DUP2 MSTORE DUP1 DUP6 ADD DUP3 DUP2 MSTORE PUSH1 0x60 DUP7 ADD DUP9 DUP2 MSTORE CALLER PUSH1 0x80 DUP9 ADD DUP2 DUP2 MSTORE PUSH1 0xA0 DUP10 ADD SWAP8 DUP9 MSTORE PUSH1 0x24 CALLDATALOAD PUSH1 0xC0 DUP11 ADD DUP2 DUP2 MSTORE TIMESTAMP PUSH1 0xE0 DUP13 ADD SWAP1 DUP2 MSTORE PUSH2 0x100 SWAP1 SWAP12 ADD SWAP9 DUP10 MSTORE PUSH1 0x0 SWAP8 DUP9 MSTORE PUSH1 0x8 PUSH1 0x20 SWAP1 DUP2 MSTORE SWAP8 DUP8 SWAP1 KECCAK256 SWAP6 MLOAD DUP7 SSTORE SWAP4 MLOAD PUSH1 0x1 DUP7 ADD SSTORE SWAP1 MLOAD PUSH1 0x2 DUP6 ADD DUP1 SLOAD PUSH1 0x1 PUSH1 0x1 PUSH1 0xA0 SHL SUB NOT SWAP1 DUP2 AND PUSH1 0x1 PUSH1 0x1 PUSH1 0xA0 SHL SUB SWAP4 DUP5 AND OR SWAP1 SWAP2 SSTORE SWAP9 MLOAD PUSH1 0x3 DUP7 ADD DUP1 SLOAD SWAP1 SWAP11 AND SWAP2 AND OR SWAP1 SWAP8 SSTORE SWAP1 MLOAD PUSH1 0x4 DUP1 DUP5 ADD SWAP2 SWAP1 SWAP2 SSTORE SWAP7 MLOAD PUSH1 0x5 DUP4 ADD SSTORE SWAP4 MLOAD PUSH1 0x6 SWAP1 SWAP2 ADD SSTORE DUP1 MLOAD SWAP3 DUP4 MSTORE SWAP1 DUP3 ADD SWAP3 SWAP1 SWAP3 MSTORE SWAP2 CALLDATALOAD SWAP2 PUSH32 0xBC779EACFE67DDE2CE8CCA0C2DCC5FA918C50CDE558C1325A0324C4238B4DD55 SWAP2 SWAP1 LOG2 PUSH1 0x5 SLOAD PUSH1 0x4 SWAP2 SWAP1 SWAP2 ADD SLOAD PUSH1 0x40 DUP1 MLOAD CALLER DUP2 MSTORE PUSH1 0x1 PUSH1 0x1 PUSH1 0xA0 SHL SUB SWAP1 SWAP3 AND PUSH1 0x20 DUP4 ADD MSTORE PUSH1 0x24 CALLDATALOAD SWAP1 DUP3 ADD MSTORE PUSH32 0xAF85B528F86F95883C3D86EEF185680424986ED79E7BB3B7362E5D88A247A271 SWAP1 PUSH1 0x60 SWAP1 LOG2 CALLER PUSH1 0x0 DUP2 DUP2 MSTORE PUSH1 0xA PUSH1 0x20 SWAP1 DUP2 MSTORE PUSH1 0x40 DUP1 DUP4 KECCAK256 DUP6 DUP5 MSTORE DUP3 MSTORE SWAP2 DUP3 SWAP1 KECCAK256 SLOAD DUP3 MLOAD SWAP4 DUP5 MSTORE SWAP1 DUP4 ADD MSTORE PUSH1 0x0 DUP1 MLOAD PUSH1 0x20 PUSH2 0x2295 DUP4 CODECOPY DUP2 MLOAD SWAP2 MSTORE SWAP2 LOG2 PUSH1 0x1 PUSH1 0x0 SSTORE STOP JUMPDEST PUSH1 0x40 MLOAD PUSH3 0x461BCD PUSH1 0xE5 SHL DUP2 MSTORE PUSH1 0x20 PUSH1 0x4 DUP3 ADD MSTORE PUSH1 0x1E PUSH1 0x24 DUP3 ADD MSTORE PUSH32 0x496E73756666696369656E7420736574746C656D656E7420616D6F756E740000 PUSH1 0x44 DUP3 ADD MSTORE PUSH1 0x64 SWAP1 REVERT JUMPDEST POP POP SWAP1 SWAP2 POP PUSH2 0x1359 JUMP JUMPDEST POP DUP2 DUP2 LT PUSH2 0x1310 JUMP JUMPDEST PUSH1 0x40 MLOAD PUSH3 0x461BCD PUSH1 0xE5 SHL DUP2 MSTORE PUSH1 0x20 PUSH1 0x4 DUP3 ADD MSTORE PUSH1 0xF PUSH1 0x24 DUP3 ADD MSTORE PUSH15 0x105B1C9958591E481CD95D1D1B1959 PUSH1 0x8A SHL PUSH1 0x44 DUP3 ADD MSTORE PUSH1 0x64 SWAP1 REVERT JUMPDEST PUSH1 0x40 MLOAD PUSH3 0x461BCD PUSH1 0xE5 SHL DUP2 MSTORE PUSH1 0x20 PUSH1 0x4 DUP3 ADD MSTORE PUSH1 0x12 PUSH1 0x24 DUP3 ADD MSTORE PUSH18 0x457870656E7365206E6F7420616374697665 PUSH1 0x70 SHL PUSH1 0x44 DUP3 ADD MSTORE PUSH1 0x64 SWAP1 REVERT JUMPDEST PUSH1 0x40 MLOAD PUSH3 0x461BCD PUSH1 0xE5 SHL DUP2 MSTORE PUSH1 0x20 PUSH1 0x4 DUP3 ADD MSTORE PUSH1 0x12 PUSH1 0x24 DUP3 ADD MSTORE PUSH18 0x125B9D985B1A5908195E1C195B9CD9481251 PUSH1 0x72 SHL PUSH1 0x44 DUP3 ADD MSTORE PUSH1 0x64 SWAP1 REVERT JUMPDEST POP PUSH1 0x4 SLOAD PUSH1 0x4 CALLDATALOAD GT ISZERO PUSH2 0x128A JUMP JUMPDEST CALLVALUE PUSH2 0x19B JUMPI PUSH1 0x20 CALLDATASIZE PUSH1 0x3 NOT ADD SLT PUSH2 0x19B JUMPI PUSH1 0x4 CALLDATALOAD PUSH1 0x0 MSTORE PUSH1 0x7 PUSH1 0x20 MSTORE PUSH1 0x40 PUSH1 0x0 KECCAK256 DUP1 SLOAD PUSH1 0x1 DUP3 ADD SLOAD SWAP2 PUSH1 0x3 DUP2 ADD SLOAD PUSH2 0x176B PUSH1 0x1 DUP1 PUSH1 0xA0 SHL SUB PUSH1 0x4 DUP5 ADD SLOAD AND SWAP2 PUSH1 0xFF PUSH1 0x7 DUP6 ADD SLOAD AND SWAP4 PUSH1 0x8 DUP2 ADD SLOAD SWAP4 PUSH2 0x1753 PUSH2 0x1734 PUSH1 0x5 PUSH2 0x172D PUSH1 0x2 DUP7 ADD PUSH2 0x1C3F JUMP JUMPDEST SWAP5 ADD PUSH2 0x2069 JUMP JUMPDEST SWAP3 PUSH1 0x40 MLOAD SWAP10 DUP11 SWAP10 DUP11 MSTORE PUSH1 0x20 DUP11 ADD MSTORE PUSH2 0x100 DUP1 PUSH1 0x40 DUP12 ADD MSTORE DUP10 ADD SWAP1 PUSH2 0x1B66 JUMP JUMPDEST SWAP3 PUSH1 0x60 DUP9 ADD MSTORE PUSH1 0x80 DUP8 ADD MSTORE DUP6 DUP3 SUB PUSH1 0xA0 DUP8 ADD MSTORE PUSH2 0x1BA6 JUMP JUMPDEST SWAP2 ISZERO ISZERO PUSH1 0xC0 DUP5 ADD MSTORE PUSH1 0xE0 DUP4 ADD MSTORE SUB SWAP1 RETURN JUMPDEST CALLVALUE PUSH2 0x19B JUMPI PUSH1 0x0 CALLDATASIZE PUSH1 0x3 NOT ADD SLT PUSH2 0x19B JUMPI PUSH2 0x1795 PUSH2 0x1D13 JUMP JUMPDEST PUSH1 0x1 DUP1 SLOAD PUSH2 0x100 PUSH1 0x1 PUSH1 0xA8 SHL SUB NOT DUP2 AND SWAP1 SWAP2 SSTORE PUSH1 0x0 SWAP1 PUSH1 0x8 SHR PUSH1 0x1 PUSH1 0x1 PUSH1 0xA0 SHL SUB AND PUSH32 0x8BE0079C531659141344CD1FD0A4F28419497F9722A3DAAFE3B4186F6B6457E0 DUP3 DUP1 LOG3 STOP JUMPDEST CALLVALUE PUSH2 0x19B JUMPI PUSH1 0x40 CALLDATASIZE PUSH1 0x3 NOT ADD SLT PUSH2 0x19B JUMPI PUSH2 0x17F6 PUSH2 0x1B22 JUMP JUMPDEST PUSH1 0x1 PUSH1 0x1 PUSH1 0xA0 SHL SUB AND PUSH1 0x0 SWAP1 DUP2 MSTORE PUSH1 0x9 PUSH1 0x20 MSTORE PUSH1 0x40 SWAP1 KECCAK256 DUP1 SLOAD PUSH1 0x24 CALLDATALOAD SWAP2 SWAP1 DUP3 LT ISZERO PUSH2 0x19B JUMPI PUSH1 0x20 SWAP2 PUSH2 0x1827 SWAP2 PUSH2 0x1B38 JUMP JUMPDEST SWAP1 SLOAD PUSH1 0x40 MLOAD SWAP2 PUSH1 0x3 SHL SHR DUP2 MSTORE RETURN JUMPDEST CALLVALUE PUSH2 0x19B JUMPI PUSH1 0x0 CALLDATASIZE PUSH1 0x3 NOT ADD SLT PUSH2 0x19B JUMPI PUSH1 0x20 PUSH1 0xFF PUSH1 0x1 SLOAD AND PUSH1 0x40 MLOAD SWAP1 ISZERO ISZERO DUP2 MSTORE RETURN JUMPDEST CALLVALUE PUSH2 0x19B JUMPI PUSH1 0x0 CALLDATASIZE PUSH1 0x3 NOT ADD SLT PUSH2 0x19B JUMPI PUSH2 0x1871 PUSH2 0x1D13 JUMP JUMPDEST PUSH1 0x1 SLOAD PUSH1 0xFF DUP2 AND ISZERO PUSH2 0x18B0 JUMPI PUSH1 0xFF NOT AND PUSH1 0x1 SSTORE PUSH32 0x5DB9EE0A495BF2E6FF9C91A7834C1BA4FDD244A5E8AA4E537BD38AEAE4B073AA PUSH1 0x20 PUSH1 0x40 MLOAD CALLER DUP2 MSTORE LOG1 STOP JUMPDEST PUSH1 0x40 MLOAD PUSH4 0x8DFC202B PUSH1 0xE0 SHL DUP2 MSTORE PUSH1 0x4 SWAP1 REVERT JUMPDEST CALLVALUE PUSH2 0x19B JUMPI PUSH1 0x20 DUP1 PUSH1 0x3 NOT CALLDATASIZE ADD SLT PUSH2 0x19B JUMPI PUSH1 0x1 PUSH1 0x1 PUSH1 0xA0 SHL SUB PUSH2 0x18E4 PUSH2 0x1B22 JUMP JUMPDEST AND PUSH1 0x0 MSTORE PUSH1 0x9 DUP2 MSTORE PUSH1 0x40 PUSH1 0x0 KECCAK256 PUSH1 0x40 MLOAD SWAP1 DUP2 DUP4 DUP3 SLOAD SWAP2 DUP3 DUP2 MSTORE ADD SWAP1 DUP2 SWAP3 PUSH1 0x0 MSTORE DUP5 PUSH1 0x0 KECCAK256 SWAP1 PUSH1 0x0 JUMPDEST DUP7 DUP3 DUP3 LT PUSH2 0x1962 JUMPI DUP7 DUP7 PUSH2 0x1922 DUP3 DUP9 SUB DUP4 PUSH2 0x1C1D JUMP JUMPDEST PUSH1 0x40 MLOAD SWAP3 DUP4 SWAP3 DUP2 DUP5 ADD SWAP1 DUP3 DUP6 MSTORE MLOAD DUP1 SWAP2 MSTORE PUSH1 0x40 DUP5 ADD SWAP3 SWAP2 PUSH1 0x0 JUMPDEST DUP3 DUP2 LT PUSH2 0x194B JUMPI POP POP POP POP SUB SWAP1 RETURN JUMPDEST DUP4 MLOAD DUP6 MSTORE DUP7 SWAP6 POP SWAP4 DUP2 ADD SWAP4 SWAP3 DUP2 ADD SWAP3 PUSH1 0x1 ADD PUSH2 0x193C JUMP JUMPDEST DUP4 SLOAD DUP6 MSTORE SWAP1 SWAP4 ADD SWAP3 PUSH1 0x1 SWAP3 DUP4 ADD SWAP3 ADD PUSH2 0x190C JUMP JUMPDEST CALLVALUE PUSH2 0x19B JUMPI PUSH1 0x0 CALLDATASIZE PUSH1 0x3 NOT ADD SLT PUSH2 0x19B JUMPI PUSH2 0x198F PUSH2 0x2046 JUMP JUMPDEST CALLER PUSH1 0x0 MSTORE PUSH1 0xB PUSH1 0x20 MSTORE PUSH1 0x40 PUSH1 0x0 KECCAK256 SLOAD DUP1 ISZERO PUSH2 0x1A0E JUMPI CALLER PUSH1 0x0 DUP2 DUP2 MSTORE PUSH1 0xB PUSH1 0x20 SWAP1 DUP2 MSTORE PUSH1 0x40 DUP1 DUP4 KECCAK256 SWAP3 SWAP1 SWAP3 SSTORE PUSH1 0x2 SLOAD SWAP2 MLOAD PUSH4 0xA9059CBB PUSH1 0xE0 SHL SWAP2 DUP2 ADD SWAP2 SWAP1 SWAP2 MSTORE PUSH1 0x24 DUP2 ADD SWAP3 SWAP1 SWAP3 MSTORE PUSH1 0x44 DUP3 ADD SWAP3 SWAP1 SWAP3 MSTORE PUSH2 0x1A07 SWAP2 PUSH1 0x1 PUSH1 0x1 PUSH1 0xA0 SHL SUB AND PUSH2 0x1A02 DUP3 PUSH1 0x64 DUP2 ADD JUMPDEST SUB PUSH1 0x1F NOT DUP2 ADD DUP5 MSTORE DUP4 PUSH2 0x1C1D JUMP JUMPDEST PUSH2 0x1FDE JUMP JUMPDEST PUSH1 0x1 PUSH1 0x0 SSTORE STOP JUMPDEST PUSH1 0x40 MLOAD PUSH3 0x461BCD PUSH1 0xE5 SHL DUP2 MSTORE PUSH1 0x20 PUSH1 0x4 DUP3 ADD MSTORE PUSH1 0x14 PUSH1 0x24 DUP3 ADD MSTORE PUSH20 0x4E6F2066756E647320746F207769746864726177 PUSH1 0x60 SHL PUSH1 0x44 DUP3 ADD MSTORE PUSH1 0x64 SWAP1 REVERT JUMPDEST CALLVALUE PUSH2 0x19B JUMPI PUSH1 0x20 CALLDATASIZE PUSH1 0x3 NOT ADD SLT PUSH2 0x19B JUMPI PUSH1 0x1 PUSH1 0x1 PUSH1 0xA0 SHL SUB PUSH2 0x1A6B PUSH2 0x1B22 JUMP JUMPDEST AND PUSH1 0x0 MSTORE PUSH1 0xB PUSH1 0x20 MSTORE PUSH1 0x20 PUSH1 0x40 PUSH1 0x0 KECCAK256 SLOAD PUSH1 0x40 MLOAD SWAP1 DUP2 MSTORE RETURN JUMPDEST CALLVALUE PUSH2 0x19B JUMPI PUSH1 0x0 CALLDATASIZE PUSH1 0x3 NOT ADD SLT PUSH2 0x19B JUMPI PUSH1 0x2 SLOAD PUSH1 0x40 MLOAD PUSH1 0x1 PUSH1 0x1 PUSH1 0xA0 SHL SUB SWAP1 SWAP2 AND DUP2 MSTORE PUSH1 0x20 SWAP1 RETURN JUMPDEST CALLVALUE PUSH2 0x19B JUMPI PUSH1 0x20 CALLDATASIZE PUSH1 0x3 NOT ADD SLT PUSH2 0x19B JUMPI PUSH1 0xE0 SWAP1 PUSH1 0x4 CALLDATALOAD PUSH1 0x0 MSTORE PUSH1 0x8 PUSH1 0x20 MSTORE PUSH1 0x40 PUSH1 0x0 KECCAK256 DUP1 SLOAD SWAP1 PUSH1 0x1 DUP2 ADD SLOAD PUSH1 0x1 DUP1 PUSH1 0xA0 SHL SUB DUP1 PUSH1 0x2 DUP5 ADD SLOAD AND SWAP1 PUSH1 0x3 DUP5 ADD SLOAD AND SWAP1 PUSH1 0x4 DUP5 ADD SLOAD SWAP3 PUSH1 0x6 PUSH1 0x5 DUP7 ADD SLOAD SWAP6 ADD SLOAD SWAP6 DUP8 MSTORE PUSH1 0x20 DUP8 ADD MSTORE PUSH1 0x40 DUP7 ADD MSTORE PUSH1 0x60 DUP6 ADD MSTORE PUSH1 0x80 DUP5 ADD MSTORE PUSH1 0xA0 DUP4 ADD MSTORE PUSH1 0xC0 DUP3 ADD MSTORE RETURN JUMPDEST PUSH1 0x4 CALLDATALOAD SWAP1 PUSH1 0x1 PUSH1 0x1 PUSH1 0xA0 SHL SUB DUP3 AND DUP3 SUB PUSH2 0x19B JUMPI JUMP JUMPDEST DUP1 SLOAD DUP3 LT ISZERO PUSH2 0x1B50 JUMPI PUSH1 0x0 MSTORE PUSH1 0x20 PUSH1 0x0 KECCAK256 ADD SWAP1 PUSH1 0x0 SWAP1 JUMP JUMPDEST PUSH4 0x4E487B71 PUSH1 0xE0 SHL PUSH1 0x0 MSTORE PUSH1 0x32 PUSH1 0x4 MSTORE PUSH1 0x24 PUSH1 0x0 REVERT JUMPDEST SWAP2 SWAP1 DUP3 MLOAD SWAP3 DUP4 DUP3 MSTORE PUSH1 0x0 JUMPDEST DUP5 DUP2 LT PUSH2 0x1B92 JUMPI POP POP DUP3 PUSH1 0x0 PUSH1 0x20 DUP1 SWAP5 SWAP6 DUP5 ADD ADD MSTORE PUSH1 0x1F DUP1 NOT SWAP2 ADD AND ADD ADD SWAP1 JUMP JUMPDEST PUSH1 0x20 DUP2 DUP4 ADD DUP2 ADD MLOAD DUP5 DUP4 ADD DUP3 ADD MSTORE ADD PUSH2 0x1B71 JUMP JUMPDEST SWAP1 DUP2 MLOAD DUP1 DUP3 MSTORE PUSH1 0x20 DUP1 DUP1 SWAP4 ADD SWAP4 ADD SWAP2 PUSH1 0x0 JUMPDEST DUP3 DUP2 LT PUSH2 0x1BC6 JUMPI POP POP POP POP SWAP1 JUMP JUMPDEST DUP4 MLOAD PUSH1 0x1 PUSH1 0x1 PUSH1 0xA0 SHL SUB AND DUP6 MSTORE SWAP4 DUP2 ADD SWAP4 SWAP3 DUP2 ADD SWAP3 PUSH1 0x1 ADD PUSH2 0x1BB8 JUMP JUMPDEST SWAP1 PUSH1 0x1 DUP3 DUP2 SHR SWAP3 AND DUP1 ISZERO PUSH2 0x1C13 JUMPI JUMPDEST PUSH1 0x20 DUP4 LT EQ PUSH2 0x1BFD JUMPI JUMP JUMPDEST PUSH4 0x4E487B71 PUSH1 0xE0 SHL PUSH1 0x0 MSTORE PUSH1 0x22 PUSH1 0x4 MSTORE PUSH1 0x24 PUSH1 0x0 REVERT JUMPDEST SWAP2 PUSH1 0x7F AND SWAP2 PUSH2 0x1BF2 JUMP JUMPDEST SWAP1 PUSH1 0x1F DUP1 NOT SWAP2 ADD AND DUP2 ADD SWAP1 DUP2 LT PUSH8 0xFFFFFFFFFFFFFFFF DUP3 GT OR PUSH2 0x463 JUMPI PUSH1 0x40 MSTORE JUMP JUMPDEST SWAP1 PUSH1 0x40 MLOAD SWAP2 DUP3 PUSH1 0x0 DUP3 SLOAD SWAP3 PUSH2 0x1C53 DUP5 PUSH2 0x1BE3 JUMP JUMPDEST SWAP1 DUP2 DUP5 MSTORE PUSH1 0x1 SWAP5 DUP6 DUP2 AND SWAP1 DUP2 PUSH1 0x0 EQ PUSH2 0x1CC2 JUMPI POP PUSH1 0x1 EQ PUSH2 0x1C7F JUMPI JUMPDEST POP POP PUSH2 0x1C7D SWAP3 POP SUB DUP4 PUSH2 0x1C1D JUMP JUMPDEST JUMP JUMPDEST SWAP1 SWAP4 SWAP2 POP PUSH1 0x0 MSTORE PUSH1 0x20 SWAP1 DUP2 PUSH1 0x0 KECCAK256 SWAP4 PUSH1 0x0 SWAP2 JUMPDEST DUP2 DUP4 LT PUSH2 0x1CAA JUMPI POP POP PUSH2 0x1C7D SWAP4 POP DUP3 ADD ADD CODESIZE DUP1 PUSH2 0x1C6F JUMP JUMPDEST DUP6 SLOAD DUP9 DUP5 ADD DUP6 ADD MSTORE SWAP5 DUP6 ADD SWAP5 DUP8 SWAP5 POP SWAP2 DUP4 ADD SWAP2 PUSH2 0x1C92 JUMP JUMPDEST SWAP2 POP POP PUSH2 0x1C7D SWAP5 POP PUSH1 0x20 SWAP3 POP PUSH1 0xFF NOT AND DUP3 DUP5 ADD MSTORE ISZERO ISZERO PUSH1 0x5 SHL DUP3 ADD ADD CODESIZE DUP1 PUSH2 0x1C6F JUMP JUMPDEST SWAP2 DUP2 PUSH1 0x1F DUP5 ADD SLT ISZERO PUSH2 0x19B JUMPI DUP3 CALLDATALOAD SWAP2 PUSH8 0xFFFFFFFFFFFFFFFF DUP4 GT PUSH2 0x19B JUMPI PUSH1 0x20 DUP4 DUP2 DUP7 ADD SWAP6 ADD ADD GT PUSH2 0x19B JUMPI JUMP JUMPDEST PUSH1 0x1 SLOAD PUSH1 0x8 SHR PUSH1 0x1 PUSH1 0x1 PUSH1 0xA0 SHL SUB AND CALLER SUB PUSH2 0x1D2A JUMPI JUMP JUMPDEST PUSH1 0x40 MLOAD PUSH4 0x118CDAA7 PUSH1 0xE0 SHL DUP2 MSTORE CALLER PUSH1 0x4 DUP3 ADD MSTORE PUSH1 0x24 SWAP1 REVERT JUMPDEST PUSH1 0x0 NOT DUP2 EQ PUSH2 0x6AD JUMPI PUSH1 0x1 ADD SWAP1 JUMP JUMPDEST DUP2 DUP2 LT PUSH2 0x1D5C JUMPI POP POP JUMP JUMPDEST PUSH1 0x0 DUP2 SSTORE PUSH1 0x1 ADD PUSH2 0x1D51 JUMP JUMPDEST DUP1 SLOAD PUSH1 0x1 PUSH1 0x40 SHL DUP2 LT ISZERO PUSH2 0x463 JUMPI PUSH2 0x1D85 SWAP2 PUSH1 0x1 DUP3 ADD DUP2 SSTORE PUSH2 0x1B38 JUMP JUMPDEST DUP2 SWAP3 SWAP2 SLOAD SWAP1 PUSH1 0x3 SHL SWAP2 PUSH1 0x1 DUP1 PUSH1 0xA0 SHL SUB DUP1 SWAP2 AND DUP4 SHL SWAP3 SHL NOT AND OR SWAP1 SSTORE JUMP JUMPDEST DUP1 SLOAD PUSH1 0x1 PUSH1 0x40 SHL DUP2 LT ISZERO PUSH2 0x463 JUMPI PUSH2 0x1DC0 SWAP2 PUSH1 0x1 DUP3 ADD DUP2 SSTORE PUSH2 0x1B38 JUMP JUMPDEST DUP2 SWAP3 SWAP2 SLOAD SWAP1 PUSH1 0x3 SHL SWAP2 DUP3 SHL SWAP2 PUSH1 0x0 NOT SWAP1 SHL NOT AND OR SWAP1 SSTORE JUMP JUMPDEST SWAP1 DUP1 PUSH1 0x20 SWAP4 SWAP3 DUP2 DUP5 MSTORE DUP5 DUP5 ADD CALLDATACOPY PUSH1 0x0 DUP3 DUP3 ADD DUP5 ADD MSTORE PUSH1 0x1F ADD PUSH1 0x1F NOT AND ADD ADD SWAP1 JUMP JUMPDEST PUSH1 0xFF PUSH1 0x1 SLOAD AND PUSH2 0x1E05 JUMPI JUMP JUMPDEST PUSH1 0x40 MLOAD PUSH4 0xD93C0665 PUSH1 0xE0 SHL DUP2 MSTORE PUSH1 0x4 SWAP1 REVERT JUMPDEST ISZERO PUSH2 0x1E1E JUMPI JUMP JUMPDEST PUSH1 0x40 MLOAD PUSH3 0x461BCD PUSH1 0xE5 SHL DUP2 MSTORE PUSH1 0x20 PUSH1 0x4 DUP3 ADD MSTORE PUSH1 0x10 PUSH1 0x24 DUP3 ADD MSTORE PUSH16 0x125B9D985B1A590819DC9BDD5C081251 PUSH1 0x82 SHL PUSH1 0x44 DUP3 ADD MSTORE PUSH1 0x64 SWAP1 REVERT JUMPDEST ISZERO PUSH2 0x1E5D JUMPI JUMP JUMPDEST PUSH1 0x40 MLOAD PUSH3 0x461BCD PUSH1 0xE5 SHL DUP2 MSTORE PUSH1 0x20 PUSH1 0x4 DUP3 ADD MSTORE PUSH1 0x13 PUSH1 0x24 DUP3 ADD MSTORE PUSH19 0x47726F7570206973206E6F7420616374697665 PUSH1 0x68 SHL PUSH1 0x44 DUP3 ADD MSTORE PUSH1 0x64 SWAP1 REVERT JUMPDEST ISZERO PUSH2 0x1E9F JUMPI JUMP JUMPDEST PUSH1 0x40 MLOAD PUSH3 0x461BCD PUSH1 0xE5 SHL DUP2 MSTORE PUSH1 0x20 PUSH1 0x4 DUP3 ADD MSTORE PUSH1 0x12 PUSH1 0x24 DUP3 ADD MSTORE PUSH18 0x2737BA10309033B937BAB81036B2B6B132B9 PUSH1 0x71 SHL PUSH1 0x44 DUP3 ADD MSTORE PUSH1 0x64 SWAP1 REVERT JUMPDEST ISZERO PUSH2 0x1EE0 JUMPI JUMP JUMPDEST PUSH1 0x40 MLOAD PUSH3 0x461BCD PUSH1 0xE5 SHL DUP2 MSTORE PUSH1 0x20 PUSH1 0x4 DUP3 ADD MSTORE PUSH1 0x17 PUSH1 0x24 DUP3 ADD MSTORE PUSH32 0x416D6F756E74206D75737420626520706F736974697665000000000000000000 PUSH1 0x44 DUP3 ADD MSTORE PUSH1 0x64 SWAP1 REVERT JUMPDEST SWAP2 SWAP1 DUP2 LT ISZERO PUSH2 0x1B50 JUMPI PUSH1 0x5 SHL ADD SWAP1 JUMP JUMPDEST CALLDATALOAD PUSH1 0x1 PUSH1 0x1 PUSH1 0xA0 SHL SUB DUP2 AND DUP2 SUB PUSH2 0x19B JUMPI SWAP1 JUMP JUMPDEST DUP2 ISZERO PUSH2 0x1F53 JUMPI DIV SWAP1 JUMP JUMPDEST PUSH4 0x4E487B71 PUSH1 0xE0 SHL PUSH1 0x0 MSTORE PUSH1 0x12 PUSH1 0x4 MSTORE PUSH1 0x24 PUSH1 0x0 REVERT JUMPDEST DUP2 ISZERO PUSH2 0x1F53 JUMPI MOD SWAP1 JUMP JUMPDEST SWAP2 SWAP1 SWAP2 PUSH1 0x0 DUP4 DUP3 ADD SWAP4 DUP5 SLT SWAP2 SLT SWAP1 DUP1 ISZERO DUP3 AND SWAP2 ISZERO AND OR PUSH2 0x6AD JUMPI JUMP JUMPDEST SWAP2 SWAP1 DUP3 ADD DUP1 SWAP3 GT PUSH2 0x6AD JUMPI JUMP JUMPDEST PUSH1 0x40 MLOAD PUSH4 0x23B872DD PUSH1 0xE0 SHL PUSH1 0x20 DUP3 ADD MSTORE PUSH1 0x1 PUSH1 0x1 PUSH1 0xA0 SHL SUB SWAP3 DUP4 AND PUSH1 0x24 DUP3 ADD MSTORE SWAP3 SWAP1 SWAP2 AND PUSH1 0x44 DUP4 ADD MSTORE PUSH1 0x64 DUP3 ADD SWAP3 SWAP1 SWAP3 MSTORE PUSH2 0x1C7D SWAP2 PUSH2 0x1A02 DUP3 PUSH1 0x84 DUP2 ADD PUSH2 0x19F4 JUMP JUMPDEST SWAP1 PUSH1 0x0 PUSH1 0x20 SWAP2 DUP3 DUP2 MLOAD SWAP2 ADD DUP3 DUP6 GAS CALL ISZERO PUSH2 0x203A JUMPI PUSH1 0x0 MLOAD RETURNDATASIZE PUSH2 0x2031 JUMPI POP PUSH1 0x1 PUSH1 0x1 PUSH1 0xA0 SHL SUB DUP2 AND EXTCODESIZE ISZERO JUMPDEST PUSH2 0x200F JUMPI POP JUMP JUMPDEST PUSH1 0x40 MLOAD PUSH4 0x5274AFE7 PUSH1 0xE0 SHL DUP2 MSTORE PUSH1 0x1 PUSH1 0x1 PUSH1 0xA0 SHL SUB SWAP1 SWAP2 AND PUSH1 0x4 DUP3 ADD MSTORE PUSH1 0x24 SWAP1 REVERT JUMPDEST PUSH1 0x1 EQ ISZERO PUSH2 0x2008 JUMP JUMPDEST PUSH1 0x40 MLOAD RETURNDATASIZE PUSH1 0x0 DUP3 RETURNDATACOPY RETURNDATASIZE SWAP1 REVERT JUMPDEST PUSH1 0x2 PUSH1 0x0 SLOAD EQ PUSH2 0x2057 JUMPI PUSH1 0x2 PUSH1 0x0 SSTORE JUMP JUMPDEST PUSH1 0x40 MLOAD PUSH4 0x3EE5AEB5 PUSH1 0xE0 SHL DUP2 MSTORE PUSH1 0x4 SWAP1 REVERT JUMPDEST SWAP1 PUSH1 0x40 MLOAD SWAP2 DUP3 DUP2 SLOAD SWAP2 DUP3 DUP3 MSTORE PUSH1 0x20 SWAP3 DUP4 DUP4 ADD SWAP2 PUSH1 0x0 MSTORE DUP4 PUSH1 0x0 KECCAK256 SWAP4 PUSH1 0x0 SWAP1 JUMPDEST DUP3 DUP3 LT PUSH2 0x209E JUMPI POP POP POP PUSH2 0x1C7D SWAP3 POP SUB DUP4 PUSH2 0x1C1D JUMP JUMPDEST DUP6 SLOAD PUSH1 0x1 PUSH1 0x1 PUSH1 0xA0 SHL SUB AND DUP5 MSTORE PUSH1 0x1 SWAP6 DUP7 ADD SWAP6 DUP9 SWAP6 POP SWAP4 DUP2 ADD SWAP4 SWAP1 SWAP2 ADD SWAP1 PUSH2 0x2088 JUMP JUMPDEST PUSH8 0xFFFFFFFFFFFFFFFF DUP2 GT PUSH2 0x463 JUMPI PUSH1 0x5 SHL PUSH1 0x20 ADD SWAP1 JUMP JUMPDEST DUP1 MLOAD DUP3 LT ISZERO PUSH2 0x1B50 JUMPI PUSH1 0x20 SWAP2 PUSH1 0x5 SHL ADD ADD SWAP1 JUMP JUMPDEST PUSH1 0x0 MSTORE PUSH1 0x6 PUSH1 0x20 MSTORE PUSH1 0x40 PUSH1 0x0 KECCAK256 SWAP1 PUSH1 0x0 SWAP2 PUSH1 0x3 DUP1 SWAP2 ADD DUP1 SLOAD SWAP4 JUMPDEST DUP5 DUP2 LT PUSH2 0x2118 JUMPI POP POP POP POP POP PUSH1 0x0 SWAP1 JUMP JUMPDEST PUSH2 0x2122 DUP2 DUP4 PUSH2 0x1B38 JUMP JUMPDEST SWAP1 SLOAD SWAP1 DUP5 SHL SHR PUSH1 0x1 PUSH1 0x1 PUSH1 0xA0 SHL SUB SWAP1 DUP2 AND SWAP1 DUP6 AND EQ PUSH2 0x2149 JUMPI PUSH2 0x2144 SWAP1 PUSH2 0x1D42 JUMP JUMPDEST PUSH2 0x2107 JUMP JUMPDEST POP POP POP POP POP PUSH1 0x1 SWAP1 JUMP JUMPDEST SWAP2 SWAP1 SWAP2 PUSH1 0x0 SWAP3 DUP2 DUP5 MSTORE PUSH1 0x20 PUSH1 0x6 DUP2 MSTORE PUSH1 0x40 SWAP2 DUP3 DUP7 KECCAK256 SWAP1 DUP7 SWAP2 DUP8 PUSH1 0x3 DUP1 SWAP3 ADD SWAP1 DUP2 SLOAD SWAP1 JUMPDEST DUP2 DUP2 LT PUSH2 0x223D JUMPI POP POP DUP4 ISZERO PUSH2 0x2232 JUMPI DUP9 JUMPDEST DUP2 SLOAD DUP2 LT ISZERO PUSH2 0x2226 JUMPI PUSH2 0x219A DUP2 DUP4 PUSH2 0x1B38 JUMP JUMPDEST SWAP1 SLOAD SWAP1 DUP5 SHL SHR PUSH1 0x1 PUSH1 0x1 PUSH1 0xA0 SHL SUB AND DUP1 DUP12 MSTORE PUSH1 0xA DUP8 MSTORE DUP8 DUP12 KECCAK256 DUP10 DUP13 MSTORE DUP8 MSTORE DUP8 DUP12 KECCAK256 SLOAD DUP12 DUP2 SGT PUSH2 0x21D4 JUMPI JUMPDEST POP POP PUSH2 0x21CF SWAP1 PUSH2 0x1D42 JUMP JUMPDEST PUSH2 0x2187 JUMP JUMPDEST DUP6 DUP2 MUL SWAP1 DUP1 DUP3 DIV DUP8 EQ SWAP1 ISZERO OR ISZERO PUSH2 0x2212 JUMPI SWAP1 PUSH2 0x21F4 DUP8 PUSH2 0x21CF SWAP5 SWAP4 PUSH2 0x1F49 JUMP JUMPDEST SWAP1 DUP13 MSTORE PUSH1 0xB DUP9 MSTORE PUSH2 0x2209 DUP10 DUP14 KECCAK256 SWAP2 DUP3 SLOAD PUSH2 0x1F8F JUMP JUMPDEST SWAP1 SSTORE SWAP1 CODESIZE PUSH2 0x21C4 JUMP JUMPDEST PUSH4 0x4E487B71 PUSH1 0xE0 SHL DUP13 MSTORE PUSH1 0x11 PUSH1 0x4 MSTORE PUSH1 0x24 DUP13 REVERT JUMPDEST POP POP POP POP POP POP POP POP SWAP1 POP JUMP JUMPDEST POP POP POP POP POP POP POP SWAP1 POP JUMP JUMPDEST PUSH2 0x2247 DUP2 DUP5 PUSH2 0x1B38 JUMP JUMPDEST SWAP1 SLOAD SWAP1 DUP6 SHL SHR PUSH1 0x1 PUSH1 0x1 PUSH1 0xA0 SHL SUB AND DUP12 MSTORE PUSH1 0xA DUP8 MSTORE DUP8 DUP12 KECCAK256 DUP10 DUP13 MSTORE DUP8 MSTORE DUP8 DUP12 KECCAK256 SLOAD DUP12 DUP2 SGT PUSH2 0x227F JUMPI JUMPDEST POP PUSH2 0x227A SWAP1 PUSH2 0x1D42 JUMP JUMPDEST PUSH2 0x2176 JUMP JUMPDEST PUSH2 0x228D SWAP1 PUSH2 0x227A SWAP3 SWAP8 PUSH2 0x1F8F JUMP JUMPDEST SWAP6 SWAP1 PUSH2 0x2270 JUMP INVALID DUP7 AND PC SDIV 0xEF 0xB5 0xD8 PUSH3 0x9221A0 0xC5 0x4D GASPRICE 0xDA LOG3 0xAC PUSH15 0x85C4025EF4221245BAC12516F0A1A2 PUSH5 0x6970667358 0x22 SLT KECCAK256 ISZERO 0xEB PUSH28 0xEB1AA206E5D3E804D26E5F8EDFB78E5B881FE71203CAFAD9EFDE6837 PUSH13 0x64736F6C634300081400330000 "},"methodIdentifiers":{"addMember(uint256,address)":"74d0a676","createExpense(uint256,string,uint256,address[])":"a6a5e2c5","createGroup(string)":"dc2ddcae","expenseCounter()":"ddcad2ae","expenses(uint256)":"af4afe0a","getExpense(uint256)":"735e5db6","getGroup(uint256)":"ceb60654","getGroupBalances(uint256)":"b1411d48","getUserBalance(address,uint256)":"91a9648a","getUserGroups(address)":"3da04e4a","groupCounter()":"d24924fe","groups(uint256)":"96324bd4","owner()":"8da5cb5b","pause()":"8456cb59","paused()":"5c975abb","renounceOwnership()":"715018a6","settleAllDebts(uint256)":"c0657812","settleExpense(uint256,uint256)":"73bbe9ff","settlementCounter()":"84b971a5","settlements(uint256)":"08df7dc8","transferOwnership(address)":"f2fde38b","unpause()":"3f4ba83a","updateUSDCToken(address)":"805351a4","usdcToken()":"11eac855","userBalances(address,uint256)":"fa3bdc46","userGroups(address,uint256)":"60a9e097","withdraw()":"3ccfd60b","withdrawableBalances(address)":"2b576f4e"}}}}}