{
  "_format": "hh-sol-artifact-1",
  "contractName": "SplitMe",
  "sourceName": "contracts/src/SplitMe.sol",
  "abi": [
    {
      "inputs": [
        {
          "internalType": "address",
          "name": "initialOwner",
          "type": "address"
        },
        {
          "internalType": "address",
          "name": "_usdcToken",
          "type": "address"
        }
      ],
      "stateMutability": "nonpayable",
      "type": "constructor"
    },
    {
      "inputs": [],
      "name": "EnforcedPause",
      "type": "error"
    },
    {
      "inputs": [],
      "name": "ExpectedPause",
      "type": "error"
    },
    {
      "inputs": [
        {
          "internalType": "address",
          "name": "owner",
          "type": "address"
        }
      ],
      "name": "OwnableInvalidOwner",
      "type": "error"
    },
    {
      "inputs": [
        {
          "internalType": "address",
          "name": "account",
          "type": "address"
        }
      ],
      "name": "OwnableUnauthorizedAccount",
      "type": "error"
    },
    {
      "inputs": [],
      "name": "ReentrancyGuardReentrantCall",
      "type": "error"
    },
    {
      "inputs": [
        {
          "internalType": "address",
          "name": "token",
          "type": "address"
        }
      ],
      "name": "SafeERC20FailedOperation",
      "type": "error"
    },
    {
      "anonymous": false,
      "inputs": [
        {
          "indexed": true,
          "internalType": "uint256",
          "name": "groupId",
          "type": "uint256"
        },
        {
          "indexed": false,
          "internalType": "address",
          "name": "user",
          "type": "address"
        },
        {
          "indexed": false,
          "internalType": "int256",
          "name": "newBalance",
          "type": "int256"
        }
      ],
      "name": "BalanceUpdated",
      "type": "event"
    },
    {
      "anonymous": false,
      "inputs": [
        {
          "indexed": true,
          "internalType": "uint256",
          "name": "expenseId",
          "type": "uint256"
        },
        {
          "indexed": true,
          "internalType": "uint256",
          "name": "groupId",
          "type": "uint256"
        },
        {
          "indexed": false,
          "internalType": "string",
          "name": "description",
          "type": "string"
        },
        {
          "indexed": false,
          "internalType": "uint256",
          "name": "amount",
          "type": "uint256"
        },
        {
          "indexed": false,
          "internalType": "address",
          "name": "paidBy",
          "type": "address"
        }
      ],
      "name": "ExpenseCreated",
      "type": "event"
    },
    {
      "anonymous": false,
      "inputs": [
        {
          "indexed": true,
          "internalType": "uint256",
          "name": "expenseId",
          "type": "uint256"
        },
        {
          "indexed": false,
          "internalType": "address",
          "name": "settler",
          "type": "address"
        },
        {
          "indexed": false,
          "internalType": "uint256",
          "name": "amount",
          "type": "uint256"
        }
      ],
      "name": "ExpenseSettled",
      "type": "event"
    },
    {
      "anonymous": false,
      "inputs": [
        {
          "indexed": true,
          "internalType": "uint256",
          "name": "groupId",
          "type": "uint256"
        },
        {
          "indexed": false,
          "internalType": "uint256",
          "name": "amount",
          "type": "uint256"
        }
      ],
      "name": "GroupAmountUpdated",
      "type": "event"
    },
    {
      "anonymous": false,
      "inputs": [
        {
          "indexed": true,
          "internalType": "uint256",
          "name": "groupId",
          "type": "uint256"
        },
        {
          "indexed": false,
          "internalType": "string",
          "name": "category",
          "type": "string"
        }
      ],
      "name": "GroupCategoryUpdated",
      "type": "event"
    },
    {
      "anonymous": false,
      "inputs": [
        {
          "indexed": true,
          "internalType": "uint256",
          "name": "groupId",
          "type": "uint256"
        },
        {
          "indexed": false,
          "internalType": "string",
          "name": "name",
          "type": "string"
        },
        {
          "indexed": false,
          "internalType": "address",
          "name": "creator",
          "type": "address"
        }
      ],
      "name": "GroupCreated",
      "type": "event"
    },
    {
      "anonymous": false,
      "inputs": [
        {
          "indexed": true,
          "internalType": "uint256",
          "name": "groupId",
          "type": "uint256"
        },
        {
          "indexed": false,
          "internalType": "address",
          "name": "member",
          "type": "address"
        }
      ],
      "name": "MemberAdded",
      "type": "event"
    },
    {
      "anonymous": false,
      "inputs": [
        {
          "indexed": true,
          "internalType": "address",
          "name": "previousOwner",
          "type": "address"
        },
        {
          "indexed": true,
          "internalType": "address",
          "name": "newOwner",
          "type": "address"
        }
      ],
      "name": "OwnershipTransferred",
      "type": "event"
    },
    {
      "anonymous": false,
      "inputs": [
        {
          "indexed": false,
          "internalType": "address",
          "name": "account",
          "type": "address"
        }
      ],
      "name": "Paused",
      "type": "event"
    },
    {
      "anonymous": false,
      "inputs": [
        {
          "indexed": true,
          "internalType": "uint256",
          "name": "settlementId",
          "type": "uint256"
        },
        {
          "indexed": false,
          "internalType": "address",
          "name": "from",
          "type": "address"
        },
        {
          "indexed": false,
          "internalType": "address",
          "name": "to",
          "type": "address"
        },
        {
          "indexed": false,
          "internalType": "uint256",
          "name": "amount",
          "type": "uint256"
        }
      ],
      "name": "SettlementProcessed",
      "type": "event"
    },
    {
      "anonymous": false,
      "inputs": [
        {
          "indexed": false,
          "internalType": "address",
          "name": "account",
          "type": "address"
        }
      ],
      "name": "Unpaused",
      "type": "event"
    },
    {
      "inputs": [
        {
          "internalType": "uint256",
          "name": "groupId",
          "type": "uint256"
        },
        {
          "internalType": "address",
          "name": "member",
          "type": "address"
        },
        {
          "internalType": "string",
          "name": "memberName",
          "type": "string"
        }
      ],
      "name": "addMember",
      "outputs": [],
      "stateMutability": "nonpayable",
      "type": "function"
    },
    {
      "inputs": [
        {
          "internalType": "uint256",
          "name": "groupId",
          "type": "uint256"
        },
        {
          "internalType": "string",
          "name": "description",
          "type": "string"
        },
        {
          "internalType": "uint256",
          "name": "amount",
          "type": "uint256"
        },
        {
          "internalType": "address[]",
          "name": "participants",
          "type": "address[]"
        }
      ],
      "name": "createExpense",
      "outputs": [
        {
          "internalType": "uint256",
          "name": "",
          "type": "uint256"
        }
      ],
      "stateMutability": "nonpayable",
      "type": "function"
    },
    {
      "inputs": [
        {
          "internalType": "string",
          "name": "name",
          "type": "string"
        },
        {
          "internalType": "string",
          "name": "category",
          "type": "string"
        },
        {
          "internalType": "uint256",
          "name": "amount",
          "type": "uint256"
        },
        {
          "internalType": "string",
          "name": "creatorName",
          "type": "string"
        }
      ],
      "name": "createGroup",
      "outputs": [
        {
          "internalType": "uint256",
          "name": "",
          "type": "uint256"
        }
      ],
      "stateMutability": "nonpayable",
      "type": "function"
    },
    {
      "inputs": [],
      "name": "expenseCounter",
      "outputs": [
        {
          "internalType": "uint256",
          "name": "",
          "type": "uint256"
        }
      ],
      "stateMutability": "view",
      "type": "function"
    },
    {
      "inputs": [
        {
          "internalType": "uint256",
          "name": "",
          "type": "uint256"
        }
      ],
      "name": "expenses",
      "outputs": [
        {
          "internalType": "uint256",
          "name": "id",
          "type": "uint256"
        },
        {
          "internalType": "uint256",
          "name": "groupId",
          "type": "uint256"
        },
        {
          "internalType": "string",
          "name": "description",
          "type": "string"
        },
        {
          "internalType": "uint256",
          "name": "amount",
          "type": "uint256"
        },
        {
          "internalType": "address",
          "name": "paidBy",
          "type": "address"
        },
        {
          "internalType": "bool",
          "name": "isActive",
          "type": "bool"
        },
        {
          "internalType": "uint256",
          "name": "createdAt",
          "type": "uint256"
        }
      ],
      "stateMutability": "view",
      "type": "function"
    },
    {
      "inputs": [
        {
          "internalType": "uint256",
          "name": "expenseId",
          "type": "uint256"
        }
      ],
      "name": "getExpense",
      "outputs": [
        {
          "internalType": "uint256",
          "name": "id",
          "type": "uint256"
        },
        {
          "internalType": "uint256",
          "name": "groupId",
          "type": "uint256"
        },
        {
          "internalType": "string",
          "name": "description",
          "type": "string"
        },
        {
          "internalType": "uint256",
          "name": "amount",
          "type": "uint256"
        },
        {
          "internalType": "address",
          "name": "paidBy",
          "type": "address"
        },
        {
          "internalType": "address[]",
          "name": "participants",
          "type": "address[]"
        },
        {
          "internalType": "bool",
          "name": "isActive",
          "type": "bool"
        },
        {
          "internalType": "uint256",
          "name": "createdAt",
          "type": "uint256"
        }
      ],
      "stateMutability": "view",
      "type": "function"
    },
    {
      "inputs": [
        {
          "internalType": "uint256",
          "name": "groupId",
          "type": "uint256"
        }
      ],
      "name": "getGroup",
      "outputs": [
        {
          "internalType": "uint256",
          "name": "id",
          "type": "uint256"
        },
        {
          "internalType": "string",
          "name": "name",
          "type": "string"
        },
        {
          "internalType": "address",
          "name": "creator",
          "type": "address"
        },
        {
          "internalType": "address[]",
          "name": "members",
          "type": "address[]"
        },
        {
          "internalType": "bool",
          "name": "isActive",
          "type": "bool"
        },
        {
          "internalType": "uint256",
          "name": "createdAt",
          "type": "uint256"
        },
        {
          "internalType": "string",
          "name": "category",
          "type": "string"
        },
        {
          "internalType": "uint256",
          "name": "totalAmount",
          "type": "uint256"
        }
      ],
      "stateMutability": "view",
      "type": "function"
    },
    {
      "inputs": [
        {
          "internalType": "uint256",
          "name": "groupId",
          "type": "uint256"
        }
      ],
      "name": "getGroupBalances",
      "outputs": [
        {
          "internalType": "address[]",
          "name": "members",
          "type": "address[]"
        },
        {
          "internalType": "int256[]",
          "name": "balances",
          "type": "int256[]"
        }
      ],
      "stateMutability": "view",
      "type": "function"
    },
    {
      "inputs": [
        {
          "internalType": "uint256",
          "name": "groupId",
          "type": "uint256"
        },
        {
          "internalType": "address",
          "name": "member",
          "type": "address"
        }
      ],
      "name": "getMemberName",
      "outputs": [
        {
          "internalType": "string",
          "name": "",
          "type": "string"
        }
      ],
      "stateMutability": "view",
      "type": "function"
    },
    {
      "inputs": [
        {
          "internalType": "address",
          "name": "user",
          "type": "address"
        },
        {
          "internalType": "uint256",
          "name": "groupId",
          "type": "uint256"
        }
      ],
      "name": "getUserBalance",
      "outputs": [
        {
          "internalType": "int256",
          "name": "",
          "type": "int256"
        }
      ],
      "stateMutability": "view",
      "type": "function"
    },
    {
      "inputs": [
        {
          "internalType": "address",
          "name": "user",
          "type": "address"
        }
      ],
      "name": "getUserGroups",
      "outputs": [
        {
          "internalType": "uint256[]",
          "name": "",
          "type": "uint256[]"
        }
      ],
      "stateMutability": "view",
      "type": "function"
    },
    {
      "inputs": [],
      "name": "groupCounter",
      "outputs": [
        {
          "internalType": "uint256",
          "name": "",
          "type": "uint256"
        }
      ],
      "stateMutability": "view",
      "type": "function"
    },
    {
      "inputs": [
        {
          "internalType": "uint256",
          "name": "",
          "type": "uint256"
        },
        {
          "internalType": "address",
          "name": "",
          "type": "address"
        }
      ],
      "name": "groupMembership",
      "outputs": [
        {
          "internalType": "bool",
          "name": "",
          "type": "bool"
        }
      ],
      "stateMutability": "view",
      "type": "function"
    },
    {
      "inputs": [
        {
          "internalType": "uint256",
          "name": "",
          "type": "uint256"
        }
      ],
      "name": "groups",
      "outputs": [
        {
          "internalType": "uint256",
          "name": "id",
          "type": "uint256"
        },
        {
          "internalType": "string",
          "name": "name",
          "type": "string"
        },
        {
          "internalType": "address",
          "name": "creator",
          "type": "address"
        },
        {
          "internalType": "bool",
          "name": "isActive",
          "type": "bool"
        },
        {
          "internalType": "uint256",
          "name": "createdAt",
          "type": "uint256"
        },
        {
          "internalType": "string",
          "name": "category",
          "type": "string"
        },
        {
          "internalType": "uint256",
          "name": "totalAmount",
          "type": "uint256"
        }
      ],
      "stateMutability": "view",
      "type": "function"
    },
    {
      "inputs": [],
      "name": "owner",
      "outputs": [
        {
          "internalType": "address",
          "name": "",
          "type": "address"
        }
      ],
      "stateMutability": "view",
      "type": "function"
    },
    {
      "inputs": [],
      "name": "pause",
      "outputs": [],
      "stateMutability": "nonpayable",
      "type": "function"
    },
    {
      "inputs": [],
      "name": "paused",
      "outputs": [
        {
          "internalType": "bool",
          "name": "",
          "type": "bool"
        }
      ],
      "stateMutability": "view",
      "type": "function"
    },
    {
      "inputs": [],
      "name": "renounceOwnership",
      "outputs": [],
      "stateMutability": "nonpayable",
      "type": "function"
    },
    {
      "inputs": [
        {
          "internalType": "uint256",
          "name": "groupId",
          "type": "uint256"
        }
      ],
      "name": "settleAllDebts",
      "outputs": [],
      "stateMutability": "nonpayable",
      "type": "function"
    },
    {
      "inputs": [
        {
          "internalType": "uint256",
          "name": "expenseId",
          "type": "uint256"
        },
        {
          "internalType": "uint256",
          "name": "amount",
          "type": "uint256"
        }
      ],
      "name": "settleExpense",
      "outputs": [],
      "stateMutability": "nonpayable",
      "type": "function"
    },
    {
      "inputs": [],
      "name": "settlementCounter",
      "outputs": [
        {
          "internalType": "uint256",
          "name": "",
          "type": "uint256"
        }
      ],
      "stateMutability": "view",
      "type": "function"
    },
    {
      "inputs": [
        {
          "internalType": "uint256",
          "name": "",
          "type": "uint256"
        }
      ],
      "name": "settlements",
      "outputs": [
        {
          "internalType": "uint256",
          "name": "id",
          "type": "uint256"
        },
        {
          "internalType": "uint256",
          "name": "groupId",
          "type": "uint256"
        },
        {
          "internalType": "address",
          "name": "from",
          "type": "address"
        },
        {
          "internalType": "address",
          "name": "to",
          "type": "address"
        },
        {
          "internalType": "uint256",
          "name": "amount",
          "type": "uint256"
        },
        {
          "internalType": "uint256",
          "name": "timestamp",
          "type": "uint256"
        },
        {
          "internalType": "bytes32",
          "name": "expenseReference",
          "type": "bytes32"
        }
      ],
      "stateMutability": "view",
      "type": "function"
    },
    {
      "inputs": [
        {
          "internalType": "address",
          "name": "newOwner",
          "type": "address"
        }
      ],
      "name": "transferOwnership",
      "outputs": [],
      "stateMutability": "nonpayable",
      "type": "function"
    },
    {
      "inputs": [],
      "name": "unpause",
      "outputs": [],
      "stateMutability": "nonpayable",
      "type": "function"
    },
    {
      "inputs": [
        {
          "internalType": "uint256",
          "name": "groupId",
          "type": "uint256"
        },
        {
          "internalType": "uint256",
          "name": "newAmount",
          "type": "uint256"
        }
      ],
      "name": "updateGroupAmount",
      "outputs": [],
      "stateMutability": "nonpayable",
      "type": "function"
    },
    {
      "inputs": [
        {
          "internalType": "uint256",
          "name": "groupId",
          "type": "uint256"
        },
        {
          "internalType": "string",
          "name": "newCategory",
          "type": "string"
        }
      ],
      "name": "updateGroupCategory",
      "outputs": [],
      "stateMutability": "nonpayable",
      "type": "function"
    },
    {
      "inputs": [
        {
          "internalType": "address",
          "name": "newToken",
          "type": "address"
        }
      ],
      "name": "updateUSDCToken",
      "outputs": [],
      "stateMutability": "nonpayable",
      "type": "function"
    },
    {
      "inputs": [],
      "name": "usdcToken",
      "outputs": [
        {
          "internalType": "contract IERC20",
          "name": "",
          "type": "address"
        }
      ],
      "stateMutability": "view",
      "type": "function"
    },
    {
      "inputs": [
        {
          "internalType": "address",
          "name": "",
          "type": "address"
        },
        {
          "internalType": "uint256",
          "name": "",
          "type": "uint256"
        }
      ],
      "name": "userBalances",
      "outputs": [
        {
          "internalType": "int256",
          "name": "",
          "type": "int256"
        }
      ],
      "stateMutability": "view",
      "type": "function"
    },
    {
      "inputs": [
        {
          "internalType": "address",
          "name": "",
          "type": "address"
        },
        {
          "internalType": "uint256",
          "name": "",
          "type": "uint256"
        }
      ],
      "name": "userGroups",
      "outputs": [
        {
          "internalType": "uint256",
          "name": "",
          "type": "uint256"
        }
      ],
      "stateMutability": "view",
      "type": "function"
    },
    {
      "inputs": [],
      "name": "withdraw",
      "outputs": [],
      "stateMutability": "nonpayable",
      "type": "function"
    },
    {
      "inputs": [
        {
          "internalType": "address",
          "name": "",
          "type": "address"
        }
      ],
      "name": "withdrawableBalances",
      "outputs": [
        {
          "internalType": "uint256",
          "name": "",
          "type": "uint256"
        }
      ],
      "stateMutability": "view",
      "type": "function"
    }
  ],
  "bytecode": "0x608034620000f857601f62002cb238819003918201601f19168301916001600160401b03831184841017620000fd578084926040948552833981010312620000f8576200005a6020620000528362000113565b920162000113565b60016000556001600160a01b03908282168015620000df5760018054610100600160a81b03198116600896871b610100600160a81b031617909155604051941c83167f8be0079c531659141344cd1fd0a4f28419497f9722a3daafe3b4186f6b6457e0600080a31660018060a01b03196002541617600255612b899081620001298239f35b604051631e4fbdf760e01b815260006004820152602490fd5b600080fd5b634e487b7160e01b600052604160045260246000fd5b51906001600160a01b0382168203620000f85756fe608080604052600436101561001357600080fd5b60003560e01c90816308df7dc8146123895750806311eac855146123605780631f998d60146120275780632b576f4e14611fed5780633ccfd60b14611f195780633da04e4a14611e655780633f4ba83a14611dfb5780635c975abb14611dd857806360a9e09714611d80578063715018a614611d1f5780637250dc3614611c97578063735e5db614611be657806373bbe9ff1461177b578063805351a4146116f65780638456cb591461169d57806384b971a51461167f5780638da5cb5b1461165257806391a9648a1461028657806396324bd4146115ad578063a6a5e2c514610f62578063ae59dfd314610d18578063af4afe0a14610c86578063b1411d4814610b36578063c065781214610991578063cae75515146104b4578063ceb60654146103f0578063d24924fe146103d2578063ddcad2ae146103b4578063efb37d1b14610367578063f2fde38b146102ce578063fa3bdc46146102865763ff7b9de51461017f57600080fd5b346102815761018d36612502565b81151580610275575b61019f9061271d565b8160005260066020526101bc60ff6004604060002001541661275c565b6101c46126ff565b6000828152600660205260409020600201546001600160a01b031633036102245760207fdb805fda9ed99f7b4130f56cc360ffde29fa848cfca4ce4ccb3548a4a93061ce91836000526006825280600760406000200155604051908152a2005b60405162461bcd60e51b8152602060048201526024808201527f4f6e6c792067726f75702063726561746f722063616e2075706461746520616d6044820152631bdd5b9d60e21b6064820152608490fd5b50600354821115610196565b600080fd5b34610281576040366003190112610281576001600160a01b036102a7612414565b16600052600a60205260406000206024356000526020526020604060002054604051908152f35b34610281576020366003190112610281576102e7612414565b6102ef612619565b6001600160a01b0381811691821561034e5760018054610100600160a81b03198116600893841b610100600160a81b031617909155901c167f8be0079c531659141344cd1fd0a4f28419497f9722a3daafe3b4186f6b6457e0600080a3005b604051631e4fbdf760e01b815260006004820152602490fd5b34610281576040366003190112610281576103806123fe565b600435600052600c60205260406000209060018060a01b0316600052602052602060ff604060002054166040519015158152f35b34610281576000366003190112610281576020600454604051908152f35b34610281576000366003190112610281576020600354604051908152f35b346102815760203660031901126102815760043560005260066020526040600020805460018060a01b03600283015416916104aa60ff60048301541660058301549260078101549361049061044760018401612573565b9761046060066104596003870161296f565b9501612573565b9361047d6040519a8b9a8b526101008060208d01528b0190612485565b9160408a015288820360608a01526124c5565b921515608087015260a086015284820360c0860152612485565b9060e08301520390f35b34610281576080366003190112610281576004356001600160401b038111610281576104e490369060040161242a565b906024356001600160401b0381116102815761050490369060040161242a565b6064939193356001600160401b0381116102815761052690369060040161242a565b90946105306126ff565b831561094c57610541600354612648565b908160035581600052600660205260406000209182556001600160401b0385116107dd576105726001830154612518565b601f8111610917575b50846000601f82116001146108a95760009161089e575b508560011b906000198760031b1c19161760018301555b60028201336001600160601b0360a01b8254161790556105cc336003840161266e565b600482019360ff19946001868254161790554260058401556001600160401b0381116107dd5760068301916106018354612518565b601f811161086c575b50600090601f83116001146107fe57600894939291600091836107f3575b50508160011b916000199060031b1c19161790555b604435600782015533600052016020526040600020906001600160401b0381116107dd578060209661066f8454612518565b601f81116107a2575b50600090601f83116001146107395760009261072e575b50508160011b916000199060031b1c19161790555b33600052600984526106bd6040600020600354906126a9565b600354600052600c8452604060002033600052845260016040600020918254161790557f18c62fe73d1b8ec45d443cf56b0c4966349cbb70ab036ba3ebfb065932ad17b060035492839261071e6040519283926040845260408401916126de565b33878301520390a2604051908152f35b01359050878061068f565b909150601f1983169184600052886000209260005b81811061078b5750908460019594939210610771575b505050811b0190556106a4565b0135600019600384901b60f8161c19169055878080610764565b91938a60018192878701358155019501920161074e565b6107cd908560005289600020601f850160051c8101918b86106107d3575b601f0160051c0190612657565b88610678565b90915081906107c0565b634e487b7160e01b600052604160045260246000fd5b013590508a80610628565b8360005260206000209160005b601f198516811061085457509183916001936008979695601f1981161061083a575b505050811b01905561063d565b0135600019600384901b60f8161c191690558a808061082d565b9092602060018192868601358155019401910161080b565b61089890846000526020600020601f850160051c810191602086106107d357601f0160051c0190612657565b8961060a565b905086013588610592565b90506001830160005260206000209060005b601f19881681106108ff575086601f198116106108e5575b5050600185811b0160018301556105a9565b870135600019600388901b60f8161c1916905587806108d3565b9091602060018192858c0135815501930191016108bb565b61094690600184016000526020600020601f880160051c810191602089106107d357601f0160051c0190612657565b8761057b565b60405162461bcd60e51b815260206004820152601a60248201527f47726f7570206e616d652063616e6e6f7420626520656d7074790000000000006044820152606490fd5b3461028157602080600319360112610281576004359081151580610b2a575b6109b99061271d565b81600052600681526109d560ff6004604060002001541661275c565b81600052600c815260406000203360005281526109f960ff6040600020541661279e565b610a0161294c565b610a096126ff565b33600052600a815260406000208260005281526040600020546000811215610af057600160ff1b8114610ada57806000039015610a9f57600080516020612b3483398151915291610a8c82610a6e60409460018060a01b0360025416309033906128a2565b33600052600a835283600020866000528352600084812055856129f2565b6000825191338352820152a26001600055005b60405162461bcd60e51b8152600481018390526013602482015272139bc81bdd5d1cdd185b991a5b99c81919589d606a1b6044820152606490fd5b634e487b7160e01b600052601160045260246000fd5b60405162461bcd60e51b81526004810183905260126024820152714e6f20646562747320746f20736574746c6560701b6044820152606490fd5b506003548211156109b0565b3461028157602080600319360112610281576004358060005260068252600380604060002001928354610b68816129c7565b93610b766040519586612552565b818552601f199384610b87846129c7565b013685880137610b96836129c7565b96610ba46040519889612552565b838852610bb0846129c7565b888601960136873760005b848110610c1757610bde8888888c816040519586956040875260408701906124c5565b9185830382870152519182815201929160005b828110610c0057505050500390f35b835185528695509381019392810192600101610bf1565b80610c29610c7d92849b999a9b612457565b90546001600160a01b0391861b1c8116610c43838d6129de565b52610c4e8285612457565b905490861b1c16600052600a87526040600020856000528752604060002054610c77828a6129de565b52612648565b97969597610bbb565b3461028157602036600319011261028157600435600052600760205260406000208054600182015491610cbb60028201612573565b60038201549160018060a01b03600482015416610cfd600860ff600785015416930154936040519788978852602088015260e0604088015260e0870190612485565b9360608601526080850152151560a084015260c08301520390f35b34610281576040366003190112610281576004356001600160401b0360243581811161028157610d4c90369060040161242a565b919083151580610f56575b610d609061271d565b8360005260209160068352610d7f60ff6004604060002001541661275c565b610d876126ff565b60008581526006845260409020600201546001600160a01b03163303610f0257846000526006835260066040600020019084116107dd57610dc88154612518565b601f8111610ed2575b506000601f8511600114610e465791610e3691857fcf14d138b385737a7a7561d6246253f0e6ad83997354974f612d58eae957ff1c969594600091610e3b575b508560011b906000198760031b1c19161790555b6040519383859485528401916126de565b0390a2005b905082013588610e11565b601f1985169082600052846000209160005b818110610ebb575091610e369391877fcf14d138b385737a7a7561d6246253f0e6ad83997354974f612d58eae957ff1c9897969410610ea1575b5050600185811b019055610e25565b830135600019600388901b60f8161c191690558780610e92565b919286600181928689013581550194019201610e58565b610efc908260005284600020601f870160051c8101918688106107d357601f0160051c0190612657565b85610dd1565b60405162461bcd60e51b815260048101849052602660248201527f4f6e6c792067726f75702063726561746f722063616e207570646174652063616044820152657465676f727960d01b6064820152608490fd5b50600354841115610d57565b34610281576080366003190112610281576001600160401b0360243581811161028157610f9390369060040161242a565b6064928335908082116102815736602383011215610281578082600401351161028157366024836004013560051b840101116102815760043515158061159f575b610fdd9061271d565b600435600052600660205260ff94610ffe866004604060002001541661275c565b600435600052600c80602052604060002033600052602052611026876040600020541661279e565b61102e6126ff565b841561155c57604496611043883515156127df565b8460040135156115205760043560005260066020526003604060002001548560040135116114e55760005b856004013581106114545750505050611088600454612648565b90816004558160005260076020526040600020918255600435600183015583116107dd576110b96002820154612518565b601f811161141f575b50826000601f82116001146113b1576000916113a6575b508360011b906000198560031b1c19161760028201555b8435600382015560048101336001600160601b0360a01b82541617905560058101600160401b8360040135116107dd57805460048401358083558111611384575b50602483019060005260206000209060005b846004013581106113695750505060078101600160ff198254161790556008429101556111758160040135853561284f565b6111848260040135863561286f565b9133600052600a602052604060002060043560005260205260406000206111ad87358254612879565b905560005b816004013581106112555760206111fe88887f7b0ca01b30804959458f2b66d8c41c1f282377133d5816d4958e9d381ca48cb889600454948593604051926060845260608401916126de565b93358682015233604082015280600435940390a3336000818152600a845260408082206004358084529086529181902054815193845260208401529091600080516020612b348339815191529190a2604051908152f35b8290848110611353575b6001600160a01b0361128161127c8360048701356024880161282b565b61283b565b16600052600a60205260406000206004356000526020526040600020805492600081128482810312811690858381031390151617610ada5761134e930390556112d561127c8285600401356024870161282b565b6001600160a01b036112f261127c8460048801356024890161282b565b16600052600a6020526040600020600435600052602052600080516020612b34833981519152611346604060002054604051918291600435958360209093929193604081019460018060a01b031681520152565b0390a2612648565b6111b2565b9050600183018311610ada57600183019061125f565b60019060206113778461283b565b9301928185015501611143565b6113a09082600052602060002090810190856004013501612657565b86611131565b9050840135866110d9565b90506002820160005260206000209060005b601f1986168110611407575084601f198116106113ed575b5050600183811b0160028201556110f0565b850135600019600386901b60f8161c1916905585806113db565b9091602060018192858a0135815501930191016113c3565b61144e90600283016000526020600020601f860160051c810191602087106107d357601f0160051c0190612657565b856110c2565b61146961127c82886004013560248a0161282b565b6004356000528360205260406000209060018060a01b03166000526020528160406000205416156114a25761149d90612648565b61106e565b60405162461bcd60e51b815260206004820152601860248201527f5061727469636970616e74206e6f7420696e2067726f75700000000000000000818b01528490fd5b60405162461bcd60e51b8152602060048201526015602482015274546f6f206d616e79207061727469636970616e747360581b818a01528390fd5b60405162461bcd60e51b81526020600482015260166024820152754d7573742068617665207061727469636970616e747360501b818a01528390fd5b5060405162461bcd60e51b815260206004820152601b60248201527f4465736372697074696f6e2063616e6e6f7420626520656d70747900000000006044820152fd5b506003546004351115610fd4565b34610281576020366003190112610281576004356000526006602052604060002080546115dc60018301612573565b9161164860018060a01b0360028301541660ff600484015416926005810154600761160960068401612573565b92015494611629604051988998895260e060208a015260e0890190612485565b93604088015215156060870152608086015284820360a0860152612485565b9060c08301520390f35b346102815760003660031901126102815760015460405160089190911c6001600160a01b03168152602090f35b34610281576000366003190112610281576020600554604051908152f35b34610281576000366003190112610281576116b6612619565b6116be6126ff565b600160ff19815416176001557f62e78cea01bee320cd4e420270b5ea74000d11b0c9f74754ebdbfc544b05a2586020604051338152a1005b346102815760203660031901126102815761170f612414565b611717612619565b6001600160a01b0316801561173e576001600160601b0360a01b6002541617600255600080f35b60405162461bcd60e51b8152602060048201526015602482015274496e76616c696420746f6b656e206164647265737360581b6044820152606490fd5b346102815761178936612502565b9061179261294c565b61179a6126ff565b80151580611bda575b15611ba0576117b38215156127df565b806000526007602052604060002060ff60078201541615611b66576006810191336000528260205260ff60406000205416611b2f5760018201549384600052600c60205260406000203360005260205261181460ff6040600020541661279e565b600383015493600584019485549561183687611830818561284f565b9361286f565b60005b88811080611b26575b15611b18576118518184612457565b905460039190911b1c6001600160a01b031633146118775761187290612648565b611839565b50505090919293945060018101809111610ada575b8210611ad3576002546118ad908390309033906001600160a01b03166128a2565b336000526020526040600020600160ff19825416179055600a60205260406000208460005260205260406000206118e5828254612879565b905560018060a01b03600484015416600052600b602052604060002061190c828254612895565b9055611919600554612648565b918260055560018060a01b036004850154166040519060208201838152602083526001600160401b0390836040810110826040860111176107dd576040840160405283519020906040840161012085011090610120850111176107dd5761012083016040908152808401878152606085018a8152336080870181815260a0880196875260c088018a81524260e08a0190815261010090990196875260009b8c52600860209081529b8690209451855592516001850155516002840180546001600160a01b03199081166001600160a01b0393841617909155965160038501805490981691161790955551600482015593516005850155905160069093019290925581519081529384018390527faf85b528f86f95883c3d86eef185680424986ed79e7bb3b7362e5d88a247a271937fbc779eacfe67dde2ce8cca0c2dcc5fa918c50cde558c1325a0324c4238b4dd559190a260055460049390930154604080513381526001600160a01b039092166020830152810191909152606090a2336000818152600a6020908152604080832085845282529182902054825193845290830152600080516020612b3483398151915291a26001600055005b60405162461bcd60e51b815260206004820152601e60248201527f496e73756666696369656e7420736574746c656d656e7420616d6f756e7400006044820152606490fd5b50505090919293945061188c565b50818110611842565b60405162461bcd60e51b815260206004820152600f60248201526e105b1c9958591e481cd95d1d1b1959608a1b6044820152606490fd5b60405162461bcd60e51b8152602060048201526012602482015271457870656e7365206e6f742061637469766560701b6044820152606490fd5b60405162461bcd60e51b8152602060048201526012602482015271125b9d985b1a5908195e1c195b9cd948125160721b6044820152606490fd5b506004548111156117a3565b34610281576020366003190112610281576004356000526007602052604060002080546001820154916003810154611c8660018060a01b036004840154169160ff60078501541693600881015493611c6e611c4f6005611c4860028601612573565b940161296f565b92604051998a998a5260208a01526101008060408b0152890190612485565b926060880152608087015285820360a08701526124c5565b91151560c084015260e08301520390f35b3461028157604036600319011261028157600435611cb36123fe565b81600052602091600c835260406000209160018060a01b031691826000528352611ce460ff6040600020541661279e565b600052600682526008604060002001906000528152611d066040600020612573565b90611d1b604051928284938452830190612485565b0390f35b3461028157600036600319011261028157611d38612619565b60018054610100600160a81b0319811690915560009060081c6001600160a01b03167f8be0079c531659141344cd1fd0a4f28419497f9722a3daafe3b4186f6b6457e08280a3005b3461028157604036600319011261028157611d99612414565b6001600160a01b031660009081526009602052604090208054602435919082101561028157602091611dca91612457565b90546040519160031b1c8152f35b3461028157600036600319011261028157602060ff600154166040519015158152f35b3461028157600036600319011261028157611e14612619565b60015460ff811615611e535760ff19166001557f5db9ee0a495bf2e6ff9c91a7834c1ba4fdd244a5e8aa4e537bd38aeae4b073aa6020604051338152a1005b604051638dfc202b60e01b8152600490fd5b3461028157602080600319360112610281576001600160a01b03611e87612414565b1660005260098152604060002060405190818382549182815201908192600052846000209060005b86828210611f05578686611ec582880383612552565b604051928392818401908285525180915260408401929160005b828110611eee57505050500390f35b835185528695509381019392810192600101611edf565b835485529093019260019283019201611eaf565b3461028157600036600319011261028157611f3261294c565b33600052600b6020526040600020548015611fb157336000818152600b6020908152604080832092909255600254915163a9059cbb60e01b9181019190915260248101929092526044820192909252611faa916001600160a01b0316611fa582606481015b03601f198101845283612552565b6128e4565b6001600055005b60405162461bcd60e51b81526020600482015260146024820152734e6f2066756e647320746f20776974686472617760601b6044820152606490fd5b34610281576020366003190112610281576001600160a01b0361200e612414565b16600052600b6020526020604060002054604051908152f35b34610281576060366003190112610281576004356120436123fe565b906001600160401b036044358181116102815761206490369060040161242a565b93909183151580612354575b6120799061271d565b836000526020926006845261209860ff6004604060002001541661275c565b6120a06126ff565b60008581526006855260409020600201546001600160a01b0390811633036123045783169283156122c65785600052600c8552604060002084600052855260ff6040600020541661228e57612104908660005260068652600360406000200161266e565b826000526009845261211a8560406000206126a9565b84600052600c845260406000208360005284526040600020906001918260ff198254161790558560005260068552600860406000200184600052855260406000209287116107dd5761216c8354612518565b601f811161225e575b50600090601f88116001146121da5796809281927ff328ac0f8bcae00933fe87ba0aa2d0d505c1df94bc9c1aa05b8441c28b74032c98996000946121cf575b50501b916000199060031b1c19161790555b604051908152a2005b0135925089806121b4565b9690601f1982169084600052866000209160005b818110612249575090837ff328ac0f8bcae00933fe87ba0aa2d0d505c1df94bc9c1aa05b8441c28b74032c999a921061222f575b505050811b0190556121c6565b0135600019600384901b60f8161c19169055878080612222565b8a8301358455928501929188019188016121ee565b612288908460005286600020601f8a0160051c810191888b106107d357601f0160051c0190612657565b87612175565b60405162461bcd60e51b815260048101869052601060248201526f20b63932b0b23c90309036b2b6b132b960811b6044820152606490fd5b60405162461bcd60e51b8152600481018690526016602482015275496e76616c6964206d656d626572206164647265737360501b6044820152606490fd5b60405162461bcd60e51b815260048101869052602260248201527f4f6e6c792067726f75702063726561746f722063616e20616464206d656d6265604482015261727360f01b6064820152608490fd5b50600354841115612070565b34610281576000366003190112610281576002546040516001600160a01b039091168152602090f35b346102815760203660031901126102815760e09060043560005260086020526040600020805490600181015460018060a01b0380600284015416906003840154169060048401549260066005860154950154958752602087015260408601526060850152608084015260a083015260c0820152f35b602435906001600160a01b038216820361028157565b600435906001600160a01b038216820361028157565b9181601f84011215610281578235916001600160401b038311610281576020838186019501011161028157565b805482101561246f5760005260206000200190600090565b634e487b7160e01b600052603260045260246000fd5b919082519283825260005b8481106124b1575050826000602080949584010152601f8019910116010190565b602081830181015184830182015201612490565b90815180825260208080930193019160005b8281106124e5575050505090565b83516001600160a01b0316855293810193928101926001016124d7565b6040906003190112610281576004359060243590565b90600182811c92168015612548575b602083101461253257565b634e487b7160e01b600052602260045260246000fd5b91607f1691612527565b90601f801991011681019081106001600160401b038211176107dd57604052565b906040519182600082549261258784612518565b9081845260019485811690816000146125f657506001146125b3575b50506125b192500383612552565b565b9093915060005260209081600020936000915b8183106125de5750506125b1935082010138806125a3565b855488840185015294850194879450918301916125c6565b9150506125b194506020925060ff191682840152151560051b82010138806125a3565b60015460081c6001600160a01b0316330361263057565b60405163118cdaa760e01b8152336004820152602490fd5b6000198114610ada5760010190565b818110612662575050565b60008155600101612657565b8054600160401b8110156107dd5761268b91600182018155612457565b819291549060031b9160018060a01b03809116831b921b1916179055565b8054600160401b8110156107dd576126c691600182018155612457565b819291549060031b91821b91600019901b1916179055565b908060209392818452848401376000828201840152601f01601f1916010190565b60ff6001541661270b57565b60405163d93c066560e01b8152600490fd5b1561272457565b60405162461bcd60e51b815260206004820152601060248201526f125b9d985b1a590819dc9bdd5c08125160821b6044820152606490fd5b1561276357565b60405162461bcd60e51b815260206004820152601360248201527247726f7570206973206e6f742061637469766560681b6044820152606490fd5b156127a557565b60405162461bcd60e51b81526020600482015260126024820152712737ba10309033b937bab81036b2b6b132b960711b6044820152606490fd5b156127e657565b60405162461bcd60e51b815260206004820152601760248201527f416d6f756e74206d75737420626520706f7369746976650000000000000000006044820152606490fd5b919081101561246f5760051b0190565b356001600160a01b03811681036102815790565b8115612859570490565b634e487b7160e01b600052601260045260246000fd5b8115612859570690565b91909160008382019384129112908015821691151617610ada57565b91908201809211610ada57565b6040516323b872dd60e01b60208201526001600160a01b03928316602482015292909116604483015260648201929092526125b191611fa58260848101611f97565b906000602091828151910182855af115612940576000513d61293757506001600160a01b0381163b155b6129155750565b604051635274afe760e01b81526001600160a01b039091166004820152602490fd5b6001141561290e565b6040513d6000823e3d90fd5b60026000541461295d576002600055565b604051633ee5aeb560e01b8152600490fd5b9060405191828154918282526020928383019160005283600020936000905b8282106129a4575050506125b192500383612552565b85546001600160a01b03168452600195860195889550938101939091019061298e565b6001600160401b0381116107dd5760051b60200190565b805182101561246f5760209160051b010190565b919091600092818452602060068152604091828620908691876003809201908154905b818110612adc5750508315612ad157885b8154811015612ac557612a398183612457565b905490841b1c6001600160a01b0316808b52600a8752878b20898c528752878b20548b8113612a73575b5050612a6e90612648565b612a26565b85810290808204871490151715612ab15790612a9387612a6e949361284f565b908c52600b8852612aa8898d20918254612895565b90559038612a63565b634e487b7160e01b8c52601160045260248cfd5b50505050505050509050565b505050505050509050565b612ae68184612457565b905490851b1c6001600160a01b03168b52600a8752878b20898c528752878b20548b8113612b1e575b50612b1990612648565b612a15565b612b2c90612b199297612895565b9590612b0f56fe86165805efb5d8629221a0c54d3adaa3ac6e85c4025ef4221245bac12516f0a1a26469706673582212207bb9e418bac6eb477b062c9bb8f39be7ee945193825496bb07bff18631c4387364736f6c63430008140033",
  "linkReferences": {},
  "deployedLinkReferences": {}
}